:10000000D5C00000F2C00000F0C00000EEC000004B
:10001000ECC00000EAC00000E8C00000E6C000003C
:10002000E4C00000E2C00000E0C00000DEC000004C
:10003000DCC00000DAC00000D8C00000D6C000005C
:10004000D4C0000000C40000D0C00000CEC000003A
:10005000CCC00000CAC00000C8C00000C6C000007C
:10006000C4C000005CC40000C0C00000BEC00000EE
:10007000BCC00000BAC00000B8C00000B6C000009C
:10008000B4C00000B2C00000B0C00000AEC00000AC
:10009000ACC00000AAC00000A8C00000A6C00000BC
:1000A000A4C00000A2C00000A0C000009EC00000CC
:1000B0009CC000009AC0000098C0000096C00000DC
:1000C00094C0000092C0000090C000008EC00000EC
:1000D0008CC000008AC0000088C0000086C00000FC
:1000E00084C000001202220232024202EC02EC0240
:1000F000EC02EC02EC02EC02520262027202820298
:10010000EC02EC02EC02EC02EC02EC029202EC02D9
:10011000EC02EC02EC02EC02EC02EC02EC02EC026F
:10012000A202EC02EC02EC02EC02EC02EC02EC02A9
:10013000EC02EC02B202EC02EC02EC02EC02EC0289
:10014000EC02EC02EC02EC02C102D002EC02EC0286
:10015000EC02EC02EC02EC02EC02EC02EC02EC022F
:10016000EC02EC02EC02EC02EC02EC02EC02EC021F
:10017000EC02EC02EC02EC02EC02EC02EC02EC020F
:10018000EC02EC02EC02EC02EC02EC02EC02EC02FF
:10019000EC02EC02EC02EC02EC02EC02EC02EC02EF
:1001A000EC02EC02EC02EC02EC02DF0211241FBEB6
:1001B000CFEFD1E2DEBFCDBF00E00CBF15E0A0E085
:1001C000B2E0E4E4FDE000E00BBF02C007900D9256
:1001D000A036B107D9F725E0A0E6B5E001C01D9231
:1001E000AC3FB207E1F700D2ABC50ACF81E0209166
:1001F000610590916005291380E008959091600554
:10020000943611F41092600590916005E92FF0E0AA
:10021000EB58FA4F80839F5F90936005089580911B
:100220006105843611F41092610590916105E92F02
:10023000F0E0EB58FA4F80819F5F9093610508953D
:10024000BF92CF92DF92EF92FF920F931F93CF93C3
:10025000DF9300D01F921F92CDB7DEB7FE0131961B
:1002600025E0DF011D922A95E9F721B1E1E0F0E0F8
:10027000042E02C0EE0FFF1F0A94E2F72E2B21B9C5
:1002800022B12E2B22B9BFEF21EE34E0B150204035
:100290003040E1F700C0000032B12E2F209532230C
:1002A00032B95FEFA0EEB0E05150A040B040E1F7AE
:1002B00000C0000032B13E2B32B931B1232321B945
:1002C00025ED2A95F1F7000020B130E0042E02C0A0
:1002D000359527950A94E2F720FD74C0AFE3B1E0AD
:1002E0001197F1F700C0000020B130E002C0359551
:1002F00027954A95E2F720FF67C0AFE3B1E0119779
:10030000F1F700C000009E012F5F3F4F79016E01A1
:1003100036E0C30ED11C01E010E031C0415051095C
:1003200019F454C049EC50E020B130E02E233F23B3
:10033000232BA1F340EA4A95F1F720B130E02E23B8
:100340003F23232B41F098010A2E02C0220F331FB6
:100350000A94E2F7B22A49EC50E003C04150510937
:10036000B9F120B130E02E233F23232BB9F71197A9
:10037000C8F6D701BD927D01CA16DB0621F0A7E0C1
:10038000B0E0B12CCFCF21B12E2B21B922B1E22B7D
:10039000E2B9BFEFE1EEF4E0B150E040F040E1F748
:1003A00000C0000049815B812A81240F250F3C8118
:1003B000230F3D8123130EC0DC015C93FB014083BE
:1003C00080E009C08FEF07C08FEF05C08FEF03C03B
:1003D0008FEF01C08FEF0F900F900F900F900F9045
:1003E000DF91CF911F910F91FF90EF90DF90CF9011
:1003F000BF900895CF93DF931F921F92CDB7DEB7C2
:10040000BE016F5F7F4F05D2E9818E2F90E0FC0126
:100410003197E436F10508F0DFC08827EE58FF4F2A
:100420008F4F53C48A81813029F4409884E192E04F
:1004300033D2D5C0873009F0D2C0409A81E392E030
:100440002BD2CDC08A81813029F441988FE492E08B
:1004500023D2C5C0873009F0C2C0419A8CE692E031
:100460001BD2BDC08A81813029F442988AE892E08B
:1004700013D2B5C0873009F0B2C0429A87EA92E041
:100480000BD2ADC08A81813029F4439885EC92E08B
:1004900003D2A5C0873009F0A2C0439A82EE92E051
:1004A000FBD19DC08A81813029F4449880E093E09B
:1004B000F3D195C0873009F092C0449A8DE193E062
:1004C000EBD18DC08A81813029F445988BE393E08C
:1004D000E3D185C0873009F082C0459A88E593E072
:1004E000DBD17DC08A81813029F4469886E793E08C
:1004F000D3D175C0873009F072C0469A83E993E082
:10050000CBD16DC08A81813029F4479881EB93E08B
:10051000C3D165C0873009F062C0479A8EEC93E082
:10052000BBD15DC08A81813029F428988CEE93E09C
:10053000B3D155C0873009F052C0289A8BE094E0BF
:10054000ABD14DC08A81813029F429988BE294E0A7
:10055000A3D145C0873009F042C0299A8FE494E0C6
:100560009BD13DC08A81813029F42C9884E794E0A6
:1005700093D135C0873099F52C9A80E994E08CD1DD
:100580002EC08A81813029F42A988DEA94E084D1A2
:1005900026C0873021F52A9A8DEC94E07DD11FC0CA
:1005A0008A81813029F42B9884E794E075D117C0B3
:1005B0008730A9F42B9A80E994E06ED110C08A812B
:1005C000813021F48EEE94E067D109C0873039F490
:1005D00084E195E061D103C08BE395E05DD10F909C
:1005E0000F90DF91CF9108958FE184B915B88FEF07
:1005F00087B918B817D138D18FE19EE40197F1F788
:1006000000C00000F89415B8B5D19FEF23ED80E34A
:10061000915020408040E1F700C000009FEF23EDA3
:1006200080E3915020408040E1F700C000009FEF40
:1006300023ED80E3915020408040E1F700C00000AE
:100640009FEF23ED80E3915020408040E1F700C010
:1006500000009FEF23ED80E3915020408040E1F7C0
:1006600000C00000C0917205789410E0D0E06DD019
:10067000809172058C17D9F3C0917205D53019F4A9
:100680000AD0D0E001C0DF5F133019F479D010E058
:10069000EECF1F5FECCFF89441E067E675E088E6A7
:1006A00095E0CEDD809168054AE069ED75E0082EA1
:1006B000000C990B12D38BE5E7D080E092E0ECD0F0
:1006C0008EE092E0E9D089ED95E0E6D08DE5DCD0D2
:1006D0008AE0DAD08FE39CE90197F1F700C00000CF
:1006E000809167054AE069ED75E0082E000C990BD2
:1006F000F4D28BE5C9D080E092E0CED088E092E0E1
:10070000CBD089ED95E0C8D08DE5BED08AE0BCD0D5
:1007100034D1DC01CB018093630590936405A093F1
:100720006505B09366054AE069ED75E0D6D28BE5C4
:10073000ABD081E595E0B0D089ED95E0ADD08DE509
:10074000A3D08AE0A1D078940895CF93C6E002C0E8
:1007500066DDB7D04BDD811106C0C15021F080911C
:1007600062058823A9F380916205813039F4F894F9
:100770008DED95E03FDE109262057894CF9108955B
:10078000F89441E067E675E088E695E059DD81116F
:100790003CC060916805062E000C770B880B990B06
:1007A000A5D120916D0530916E0540916F05509156
:1007B000700505D120E030E040E05FE323D263D153
:1007C0006F31CCF460916705062E000C770B880B17
:1007D000990B8CD12091690530916A0540916B0588
:1007E00050916C05ECD020E030E040E05FE30AD2AD
:1007F0004AD164341CF029982C9809C08091710565
:10080000811105C0299A2C9A02C02C9829987894B5
:100810000895FC012081FB012083FC018181FB0103
:1008200081830895E1E8F0E080818D608083EFE6C8
:10083000F0E08081836080838DE38093890089E08C
:100840008093880008951F920F920FB60F92112483
:100850008F93809172058F5F809372058F910F90B7
:100860000FBE0F901F90189588E98093C10086E015
:100870008093C20085E38A95F1F700001092C500CD
:1008800083E08093C4000895E0ECF0E0908195FF50
:10089000FDCF8093C60008950F931F93CF93FC0163
:1008A0008081882351F08F01C0E0EEDFCF5FF80137
:1008B000EC0FF11D80818111F8CFCF911F910F9125
:1008C000089590917405913021F58D35A1F09091A6
:1008D0007305923048F4E92FF0E0E352FA4F808339
:1008E0009F5F90937305089510927405109273059D
:1008F000109262050895E0917305F0E0E352FA4F1B
:100900001082109274051092730581E08093620545
:1009100008958B3519F481E08093740508951F9232
:100920000F920FB60F9211240BB60F922F933F9395
:100930004F935F936F937F938F939F93AF93BF93E7
:10094000EF93FF93F8948091C60058DC7894FF9160
:10095000EF91BF91AF919F918F917F916F915F9137
:100960004F913F912F910F900BBE0F900FBE0F90A4
:100970001F9018950C9A059A08958AE08A95F1F7C8
:1009800000C0149A85E38A95F1F70000149809C015
:1009900080E090E0DC010196A11DB11D0599FBCF1F
:1009A00003C00599F5CFFDCFBC01CD019DD027EE49
:1009B0003AE34DE05CE326D16BC008955058BB2765
:1009C000AA270ED0E5C0D6D030F0DBD020F031F42D
:1009D0009F3F11F41EF4CBC00EF4E095E7FBC1C0BD
:1009E000E92FE7D080F3BA176207730784079507EA
:1009F00018F071F49EF5FFC00EF4E0950B2EBA2F9F
:100A0000A02D0B01B90190010C01CA01A001112414
:100A1000FF27591B99F0593F50F4503E68F11A16C0
:100A2000F040A22F232F342F4427585FF3CF469551
:100A300037952795A795F0405395C9F77EF41F1673
:100A4000BA0B620B730B840BBAF09150A1F0FF0F3D
:100A5000BB1F661F771F881FC2F70EC0BA0F621F29
:100A6000731F841F48F4879577956795B795F79519
:100A70009E3F08F0B3CF9395880F08F09927EE0FAB
:100A800097958795089504D06894B111B5C00895DD
:100A900098D088F09F5790F0B92F9927B751A0F0C0
:100AA000D1F0660F771F881F991F1AF0BA95C9F702
:100AB00012C0B13081F09FD0B1E008959CC0672F83
:100AC000782F8827B85F39F0B93FCCF386957795B2
:100AD0006795B395D9F73EF490958095709561959B
:100AE0007F4F8F4F9F4F0895E89409C097FB3EF4C6
:100AF00090958095709561957F4F8F4F9F4F99236B
:100B0000A9F0F92F96E9BB279395F69587957795E8
:100B10006795B795F111F8CFFAF4BB0F11F460FFA8
:100B20001BC06F5F7F4F8F4F9F4F16C0882311F000
:100B300096E911C0772321F09EE8872F762F05C014
:100B4000662371F096E8862F70E060E02AF09A95AF
:100B5000660F771F881FDAF7880F9695879597F9A4
:100B6000089597F99F6780E870E060E008959FEF2F
:100B700080EC089500240A94161617061806090634
:100B8000089500240A941216130614060506089503
:100B9000092E0394000C11F4882352F0BB0F40F48B
:100BA000BF2B11F460FF04C06F5F7F4F8F4F9F4FCB
:100BB000089557FD9058440F551F59F05F3F71F04D
:100BC0004795880F97FB991F61F09F3F79F08795B4
:100BD0000895121613061406551FF2CF4695F1DF3D
:100BE00008C0161617061806991FF1CF86957105CD
:100BF000610508940895E894BB2766277727CB0101
:100C000097F908950BD0C4CFB5DF28F0BADF18F0FC
:100C1000952309F0A6CFABCF1124EECFCADFA0F306
:100C2000959FD1F3950F50E0551F629FF001729F81
:100C3000BB27F00DB11D639FAA27F00DB11DAA1FA0
:100C4000649F6627B00DA11D661F829F2227B00DED
:100C5000A11D621F739FB00DA11D621F839FA00D78
:100C6000611D221F749F3327A00D611D231F849FC8
:100C7000600D211D822F762F6A2F11249F5750401F
:100C80008AF0E1F088234AF0EE0FFF1FBB1F661FBA
:100C9000771F881F91505040A9F79E3F510570F073
:100CA00060CFAACF5F3FECF3983EDCF38695779553
:100CB0006795B795F795E7959F5FC1F7FE2B880F6E
:100CC000911D9695879597F90895EE0FFF1F881F40
:100CD0008BBF0790F691E02D1994BB274A3031F471
:100CE000992322F4BDE2909581959F4F01C0BB27C7
:100CF000FB015527AA27880F991FAA1FA41710F0D8
:100D0000A41B83955051B9F7A05DAA3308F0A95DE3
:100D1000A193009779F7B111B1931192CB0100C063
:100D2000DC01FC01672F71917723E1F7329704C052
:100D30007C916D9370836291AE17BF07C8F30895DD
:040D4000F894FFCF55
:100D440053656E736F72320048756D643A00546572
:100D54006D703A005B4552524F522052656365698B
:100D640076696E673A4D4544315F4F6E5F4F6B5DF8
:100D7400005B4552524F5220526563656976696E35
:100D8400673A4D4544315F4F66665F4F6B5D005B6C
:100D94004552524F5220526563656976696E673ACF
:100DA4004D4544325F4F6E5F4F6B5D005B45525261
:100DB4004F5220526563656976696E673A4D4544C2
:100DC400325F4F66665F4F6B5D005B4552524F5218
:100DD40020526563656976696E673A4D4544335FB1
:100DE4004F6E5F4F6B5D005B4552524F5220526510
:100DF40063656976696E673A4D4544335F4F66664D
:100E04005F4F6B5D005B4552524F522052656365E4
:100E14006976696E673A4D4544345F4F6E5F4F6B38
:100E24005D005B4552524F52205265636569766995
:100E34006E673A4D4544345F4F66665F4F6B5D00A5
:100E44005B4552524F5220526563656976696E67FD
:100E54003A534F4C315F4F6E5F4F6B5D005B4552B1
:100E6400524F5220526563656976696E673A534FF3
:100E74004C315F4F66665F4F6B5D005B4552524F6E
:100E84005220526563656976696E673A534F4C32F6
:100E94005F4F6E5F4F6B5D005B4552524F52205265
:100EA4006563656976696E673A534F4C325F4F6686
:100EB400665F4F6B5D005B4552524F522052656333
:100EC400656976696E673A534F4C335F4F6E5F4F77
:100ED4006B5D005B4552524F5220526563656976E3
:100EE400696E673A534F4C335F4F66665F4F6B5D75
:100EF400005B4552524F5220526563656976696EB4
:100F0400673A534F4C345F4F6E5F4F6B5D005B45E8
:100F140052524F5220526563656976696E673A533F
:100F24004F4C345F4F66665F4F6B5D005B455252BA
:100F34004F5220526563656976696E673A464C592B
:100F44004D45445F4F6E5F4F6B5D005B4552524FA2
:100F54005220526563656976696E673A464C594D0D
:100F640045445F4F66665F4F6B5D005B4552524F71
:100F74005220526563656976696E673A56454E54E8
:100F8400494C4154494F4E5F4F6E5F4F6B5D005B60
:100F94004552524F5220526563656976696E673ACD
:100FA40056454E54494C4154494F4E5F4F66665F17
:100FB4004F6B5D005B4552524F5220526563656929
:100FC40076696E673A46414E5F4F6E5F4F6B5D00C8
:100FD4005B4552524F5220526563656976696E676C
:100FE4003A46414E5F4F66665F4F6B5D005B45520C
:100FF400524F5220526563656976696E673A4C496F
:101004004748545F315F4F6E5F4F6B5D005B4552E5
:10101400524F5220526563656976696E673A4C494E
:101024004748545F315F4F66665F4F6B5D005B45B9
:1010340052524F5220526563656976696E673A462B
:10104400414E5F4155544F5F4D4F44455F4F6E5F76
:101054004F6B5D005B4552524F5220526563656988
:1010640076696E673A46414E5F4155544F5F4D4F26
:1010740044455F4F66665F4F6B5D005B4552524F60
:101084005220526563656976696E673A5945535DC6
:10109400007761746572206C6576656C3A20000097
:00000001FF
