:1000000081C000009FC000009DC000009BC0000098
:1000100099C0000097C0000095C0000093C0000088
:1000200091C000008FC000008DC000008BC0000098
:1000300089C0000087C0000085C0000083C00000A8
:1000400081C0000070C600007DC000007BC00000C1
:1000500079C0000079C6000075C0000073C00000C0
:1000600071C00000E6C600006DC000006BC000005B
:1000700069C0000067C0000065C0000063C00000E8
:1000800061C000005FC000005DC000005BC00000F8
:1000900059C0000057C0000055C0000053C0000008
:1000A00051C000004FC000004DC000004BC0000018
:1000B00049C0000047C0000045C0000043C0000028
:1000C00041C000003FC000003DC000003BC0000038
:1000D00039C0000037C0000035C0000033C0000048
:1000E00031C0000027023502430251025F026D0257
:1000F0007B028902F703FB03FF03030407040B04DD
:100100000F04130411241FBECFEFD1E2DEBFCDBF19
:1001100000E00CBF13E0A0E0B2E0EAEAF2E100E0A8
:100120000BBF02C007900D92A633B107D9F724E0A8
:10013000A6E3B3E001C01D92A73DB207E1F7D3D417
:100140000C9453095DCF81E02091370390913603E1
:10015000291380E0089590913603E92FF0E0EA5BDF
:10016000FC4F80839F5F909336030895E6E4F3E0AD
:1001700086ED94E01192E817F907E1F71092360343
:10018000109237030895BC0186E493E00E94FE08B4
:1001900021E0892B09F420E0822F089586E493E082
:1001A0000895BF92CF92DF92EF92FF920F931F9329
:1001B000CF93DF9300D01F921F92CDB7DEB7FE0121
:1001C000319625E0DF011D922A95E9F723B3E1E09E
:1001D000F0E0042E02C0EE0FFF1F0A94E2F72E2B70
:1001E00023BB24B32E2B24BBBFEF21EE34E0B15050
:1001F00020403040E1F700C0000034B32E2F20959E
:10020000322334BB5FEFA0EEB0E05150A040B040CD
:10021000E1F700C0000034B33E2B34BB33B32323DB
:1002200023BB25ED2A95F1F7000022B330E0042E20
:1002300002C0359527950A94E2F720FD74C0AFE31C
:10024000B1E01197F1F700C0000022B330E002C026
:10025000359527954A95E2F720FF67C0AFE3B1E0F7
:100260001197F1F700C000009E012F5F3F4F790109
:100270006E0136E0C30ED11C01E010E031C04150E8
:10028000510919F454C049EC50E022B330E02E2358
:100290003F23232BA1F340EA4A95F1F722B330E044
:1002A0002E233F23232B41F098010A2E02C0220F58
:1002B000331F0A94E2F7B22A49EC50E003C04150E0
:1002C0005109B9F122B330E02E233F23232BB9F794
:1002D0001197C8F6D701BD927D01CA16DB0621F041
:1002E000A7E0B0E0B12CCFCF23B32E2B23BB24B398
:1002F000E22BE4BBBFEFE1EEF4E0B150E040F040B0
:10030000E1F700C0000049815B812A81240F250F9D
:100310003C81230F3D8123130EC0DC015C93FB0164
:10032000408380E009C08FEF07C08FEF05C08FEFDB
:1003300003C08FEF01C08FEF0F900F900F900F90C1
:100340000F90DF91CF911F910F91FF90EF90DF9071
:10035000CF90BF9008950ADF89E092E055D5F3DE93
:100360008130E9F32FEF80E792E021508040904008
:10037000E1F700C00000FACE08958F929F92AF92ED
:10038000BF92CF92DF92EF92FF920F931F93CF9382
:10039000DF93CDB7DEB7CF54D1400FB6F894DEBFB0
:1003A0000FBECDBF4C017B01142F022FD4DF8FE293
:1003B000E7E1F2E0DE01119601900D928A95E1F7F6
:1003C000B701CE0101960FD7011708F4B3C0CE01D3
:1003D00001967C010F2EF6E2AF2EB12CF02D0F2EE0
:1003E000FDE3CF2ED12CF02DF70101900020E9F78D
:1003F0003197B182A082D7010D900020E9F71197C3
:1004000086E0E0EAF2E001900D928A95E1F74AE099
:10041000BE01655B7E4F812F90E00AD7BE01655B10
:100420007E4FC701E0D6F70101900020E9F7319730
:10043000D182C082812F90E0FC013197E830F10534
:1004400008F074C08827EE58FF4F8F4FA7C6F401FD
:1004500081814AE0BE01655B7E4F90E0E9D6BE0136
:10046000655B7E4FC701BFD661C0F40182814AE05F
:10047000BE01655B7E4F90E0DBD6BE01655B7E4FC3
:10048000C701B1D653C0F40183814AE0BE01655B68
:100490007E4F90E0CDD6BE01655B7E4FC701A3D6EF
:1004A00045C0F40184814AE0BE01655B7E4F90E067
:1004B000BFD6BE01655B7E4FC70195D637C0F4013C
:1004C00085814AE0BE01655B7E4F90E0B1D6BE01FA
:1004D000655B7E4FC70187D629C0F40186814AE05B
:1004E000BE01655B7E4F90E0A3D6BE01655B7E4F8B
:1004F000C70179D61BC0F40187814AE0BE01655B64
:100500007E4F90E095D6BE01655B7E4FC7016BD6EE
:100510000DC0F40180854AE0BE01655B7E4F90E02E
:1005200087D6BE01655B7E4FC7015DD61F5F011791
:1005300008F05ACFDE011196FD0101900020E9F785
:1005400031970F2EFDE0EF2EFAE0FF2EF02DF18215
:10055000E0821282FD0101900020E9F7CF010197AE
:100560004AE0BE01655B7E4F8A1B9B0B61D68E0104
:10057000035D1E4F8CE0E6E4F2E0D80101900D929D
:100580008A95E1F7BE01655B7E4FC8012CD6F80164
:1005900001900020E9F73197F182E0821282E6DDD6
:1005A00082E592E031D4CFDD8130E9F38BE792E050
:1005B000EADD811105C081E892E0E5DD8823B1F331
:1005C0008BE792E0E0DD813059F4D0DDFFEF23EDE1
:1005D00080E3F15020408040E1F700C000005AC0A5
:1005E0009FEFE9EFF0E09150E040F040E1F700C00C
:1005F0000000BCDDCE01835D9E4F06D4A4DD8130BA
:10060000E9F38BE792E0BFDD81110AC081E892E057
:10061000BADD811105C084E892E0B5DD882389F355
:100620008BE792E0B0DD813059F4A0DD2FEF83ED50
:1006300090E3215080409040E1F700C000002AC0C4
:10064000EFEFF9EF20E0E150F0402040E1F700C08B
:10065000000081E892E097DD813091F489E892E032
:1006600092DD8823D9F382DD8FEF90E7E2E08150BD
:100670009040E040E1F700C00000CE010196C4D3F5
:1006800075DDFFEF23ED80E3F15020408040E1F77E
:1006900000C00000C15BDE4F0FB6F894DEBF0FBE96
:1006A000CDBFDF91CF911F910F91FF90EF90DF9021
:1006B000CF90BF90AF909F908F900895CF93DF938E
:1006C00000D01F921F92CDB7DEB7DC019E012F5FD5
:1006D0003F4F85E0F90111928A95E9F781E389831B
:1006E00085E38A83BD01695F7F4F40E027E030E00A
:1006F0001DC0FB019191BF0180ED890F8A3010F080
:100700009D3281F4E1E0F0E0EC0FFD1FE40FF11DFC
:1007100090834F5FE1E0F0E0EC0FFD1FE40FF11D6F
:10072000108202C09C3261F02F5F3F4FFD010190AB
:100730000020E9F73197EA1BFB0B2E173F07C8F2A1
:10074000CE01019633D50F900F900F900F900F9020
:10075000DF91CF910895BF92CF92DF92EF92FF92F7
:100760000F931F93CF93DF93CDB7DEB72A970FB6C2
:10077000F894DEBF0FBECDBF7C01B62E6A0187E0C4
:10078000E6EAF2E0DE01119601900D928A95E1F71A
:1007900080E38E836DEA72E0C70130D5892B09F4BE
:1007A0004AC0BB2009F449C011E000E086E0E0EA5D
:1007B000F2E0DE01119601900D928A95E1F780E357
:1007C000810F8E83BE016F5F7F4FC70117D50097E2
:1007D00069F174DF282F812F90E0FC013197E83018
:1007E000F10520F58827E658FF4F8F4FD7C4F60153
:1007F00021830F5F1BC0F60122830F5F17C0F60134
:1008000023830F5F13C0F60124830F5F0FC0F6012F
:1008100025830F5F0BC0F60126830F5F07C0F6012B
:1008200027830F5F03C0F60120870F5F1F5FB1169C
:1008300008F0BCCF03C000E001C000E0802F2A9682
:100840000FB6F894DEBF0FBECDBFDF91CF911F91E1
:100850000F91FF90EF90DF90CF90BF9008958F920F
:100860009F92BF92CF92DF92EF92FF920F931F93CE
:10087000CF93DF93CDB7DEB7CB5ED1090FB6F89437
:10088000DEBF0FBECDBF6C014B017A01B22E63DD1E
:10089000A89589E2E1EBF2E08E010F5F1F4FD801CE
:1008A00001900D928A95E1F7B401C8019CD4D8015A
:1008B0000D900020E9F711978AE1EAEDF2E001904E
:1008C0000D928A95E1F7B701C8018DD4F801019026
:1008D0000020E9F731970F2EFDE0EF2EFAE0FF2E12
:1008E000F02DF182E0821282F80101900020E9F7F8
:1008F000CF0101974AE0BE0169517F4F801B910BE8
:1009000097D408531F4F8CE0E6E4F2E0D801019041
:100910000D928A95E1F7BE0169517F4FC80163D4FA
:10092000F80101900020E9F73197F182E08212820C
:100930001DDC82E592E068D206DC8130E9F38BE7CA
:1009400092E021DC811105C081E892E01CDC882363
:10095000B1F38BE792E017DC813059F407DCFFEF4D
:1009600023ED80E3F15020408040E1F700C000001B
:1009700071C09FEFE9EFF0E09150E040F040E1F707
:1009800000C00000F3DBCE0187539F4F3DD2DBDB7D
:100990008130E9F38BE792E0F6DB81110AC081E850
:1009A00092E0F1DB811105C084E892E0ECDB882362
:1009B00089F3A8958BE792E0E6DB813029F084E8A3
:1009C00092E0E1DB813059F4D1DB2FEF83ED90E34E
:1009D000215080409040E1F700C000003BC0EFEFA5
:1009E000F9EF20E0E150F0402040E1F700C00000C6
:1009F000A89581E892E0C7DB813011F589E892E0A3
:100A0000C2DB8823D9F3B2DB8FEF90E7E2E08150BD
:100A10009040E040E1F700C00000CE010196F4D123
:100A200084EF92E0B0DB8823D9F38FE19EE4019755
:100A3000F1F700C00000B2DBA6016B2D8CDE96DB67
:100A400095DB9FEFE3EDF0E39150E040F040E1F7FC
:100A500000C00000C551DF4F0FB6F894DEBF0FBED7
:100A6000CDBFDF91CF911F910F91FF90EF90DF905D
:100A7000CF90BF909F908F900895FC01818181114C
:100A800006C0ABE0B1E08C9184608C9305C0ABE014
:100A9000B1E08C918B7F8C938281811102C0289A66
:100AA00001C028988381811102C0469A01C04698EE
:100AB0008481811102C0479A0895479808958FEF65
:100AC00087B918B8EAE0F1E0808180688083EBE0C4
:100AD000F1E08081806880838081806880838FE1FD
:100AE00084B915B80895CF93DF93CDB7DEB72997B2
:100AF0000FB6F894DEBF0FBECDBFE1DFFBD00BD148
:100B00006BD18FE19EE40197F1F700C00000F894EB
:100B100015B8BAD19FEF23ED80E39150204080407B
:100B2000E1F700C000009FEF23ED80E391502040EB
:100B30008040E1F700C000009FEF23ED80E391507B
:100B400020408040E1F700C000009FEF23ED80E3EC
:100B5000915020408040E1F700C000009FEF23ED5E
:100B600080E3915020408040E1F700C000001091E8
:100B70004503789499E288E10FB6F894A89580939C
:100B800060000FBE90936000A89581E08A838B83FC
:100B90008C838D831E821F821886198628E041E08F
:100BA0006BEF72E0CE010196E8DBE12CF12C00E066
:100BB000A895809145038117D9F31091450305301D
:100BC00019F412D000E001C00F5F9AE0E91203C0EF
:100BD00047D0E12C01C0E39424E0F21203C031D0ED
:100BE000F12CE6CFF394E4CFCF93DF93CDB7DEB70C
:100BF00029970FB6F894DEBF0FBECDBFA895F89425
:100C000041E068E373E089E393E0CBDA8091390354
:100C10008A83809138038B8387E38C837894A895AB
:100C200023E041E06CE073E0CE010196A6DBA895DD
:100C300029960FB6F894DEBF0FBECDBFDF91CF91DE
:100C40000895A89528E04DE153E06EE273E080E05E
:100C500092E005DEA89580E092E00FDF7894089599
:100C6000F894A89541E068E373E089E393E099DAAA
:100C700081113CC060913903062E000C770B880B64
:100C8000990B9DD120913E0330913F034091400349
:100C900050914103FDD020E030E040E05FE31BD203
:100CA0005BD16F31CCF460913803062E000C770BCA
:100CB000880B990B84D120913A0330913B034091EA
:100CC0003C0350913D03E4D020E030E040E05FE39E
:100CD00002D242D164341CF029982B9809C080912B
:100CE0004203811105C0299A2B9A02C02B9829989A
:100CF00078940895E1E8F0E080818D608083EFE6EC
:100D0000F0E08081836080838DE38093890089E0B7
:100D100080938800089584B5826084BD83E085BD9A
:100D20008DE787BD08951F920F920FB60F92112481
:100D30008F93809145038F5F809345038F910F9030
:100D40000FBE0F901F9018951F920F920FB60F9223
:100D500011240BB60F928F939F93EF93FF93809183
:100D6000D604813019F0823079F01BC098B181E04F
:100D7000892788B980914303909144030197909308
:100D80004403809343030DC098B182E0892788B95A
:100D9000809143039091440301979093440380937F
:100DA00043038091430390914403892B51F4EBE07A
:100DB000F1E0808180688083EEE6F0E080818D7FC5
:100DC0008083FF91EF919F918F910F900BBE0F90B9
:100DD0000FBE0F901F90189588E98093C10086E0A0
:100DE0008093C20085E38A95F1F700001092C50058
:100DF00083E08093C4000895E0ECF0E0908195FFDB
:100E0000FDCF8093C60008950F931F93CF93FC01ED
:100E10008081882351F08F01C0E0EEDFCF5FF801C1
:100E2000EC0FF11D80818111F8CFCF911F910F91AF
:100E300008951F920F920FB60F9211240BB60F92C6
:100E40002F933F934F935F936F937F938F939F93D2
:100E5000AF93BF93EF93FF93F8948091C6007BD933
:100E60007894FF91EF91BF91AF919F918F917F9176
:100E70006F915F914F913F912F910F900BBE0F900B
:100E80000FBE0F901F9018953D9A379A08955058AD
:100E9000BB27AA270ED0E5C0D6D030F0DBD020F09B
:100EA00031F49F3F11F41EF4CBC00EF4E095E7FB44
:100EB000C1C0E92FE7D080F3BA1762077307840730
:100EC000950718F071F49EF5FFC00EF4E0950B2E17
:100ED000BA2FA02D0B01B90190010C01CA01A0018C
:100EE0001124FF27591B99F0593F50F4503E68F1E7
:100EF0001A16F040A22F232F342F4427585FF3CF28
:100F0000469537952795A795F0405395C9F77EF4F8
:100F10001F16BA0B620B730B840BBAF09150A1F041
:100F2000FF0FBB1F661F771F881FC2F70EC0BA0FC7
:100F3000621F731F841F48F4879577956795B7954F
:100F4000F7959E3F08F0B3CF9395880F08F0992747
:100F5000EE0F97958795089504D06894B111B5C0A8
:100F6000089598D088F09F5790F0B92F9927B751DE
:100F7000A0F0D1F0660F771F881F991F1AF0BA955D
:100F8000C9F712C0B13081F09FD0B1E008959CC084
:100F9000672F782F8827B85F39F0B93FCCF3869553
:100FA00077956795B395D9F73EF4909580957095B0
:100FB00061957F4F8F4F9F4F0895E89409C097FB2D
:100FC0003EF490958095709561957F4F8F4F9F4F20
:100FD0009923A9F0F92F96E9BB279395F695879564
:100FE00077956795B795F111F8CFFAF4BB0F11F427
:100FF00060FF1BC06F5F7F4F8F4F9F4F16C08823CE
:1010000011F096E911C0772321F09EE8872F762F03
:1010100005C0662371F096E8862F70E060E02AF044
:101020009A95660F771F881FDAF7880F9695879530
:1010300097F9089597F99F6780E870E060E0089558
:101040009FEF80EC089500240A94161617061806E0
:101050000906089500240A941216130614060506BC
:101060000895092E0394000C11F4882352F0BB0F4D
:1010700040F4BF2B11F460FF04C06F5F7F4F8F4FB0
:101080009F4F089557FD9058440F551F59F05F3FEB
:1010900071F04795880F97FB991F61F09F3F79F09A
:1010A00087950895121613061406551FF2CF46951C
:1010B000F1DF08C0161617061806991FF1CF86959E
:1010C0007105610508940895E894BB276627772782
:1010D000CB0197F908950BD0C4CFB5DF28F0BADF64
:1010E00018F0952309F0A6CFABCF1124EECFCADFBD
:1010F000A0F3959FD1F3950F50E0551F629FF0012B
:10110000729FBB27F00DB11D639FAA27F00DB11D83
:10111000AA1F649F6627B00DA11D661F829F22270C
:10112000B00DA11D621F739FB00DA11D621F839F93
:10113000A00D611D221F749F3327A00D611D231F69
:10114000849F600D211D822F762F6A2F11249F57B7
:1011500050408AF0E1F088234AF0EE0FFF1FBB1FDA
:10116000661F771F881F91505040A9F79E3F510579
:1011700070F060CFAACF5F3FECF3983EDCF386952A
:1011800077956795B795F795E7959F5FC1F7FE2B24
:10119000880F911D9695879597F90895EE0FFF1F7B
:1011A000881F8BBF0790F691E02D1994FC018827CA
:1011B0009927E89421912032E9F3293010F02E305C
:1011C000C8F32B3239F02D3231F4689403C03AD091
:1011D000820F911D219120532A30C8F31EF490955F
:1011E00081959F4F0895FB01DC010D900020E9F7E8
:1011F000119701900D920020E1F70895FB015191A4
:101200005523A9F0BF01DC014D9145174111E1F7CC
:1012100059F4CD010190002049F04D914015411144
:10122000C9F3FB014111EFCF81E090E001970895F0
:10123000BB274A3031F4992322F4BDE29095819581
:101240009F4F09C07AE0979F902D879F802D910D29
:1012500011240895BB27FB015527AA27880F991F42
:10126000AA1FA41710F0A41B83955051B9F7A05DD5
:10127000AA3308F0A95DA193009779F7B111B19352
:101280001192CB0100C0DC01FC01672F7191772323
:10129000E1F7329704C07C916D9370836291AE1731
:0A12A000BF07C8F30895F894FFCFCC
:1012AA0001010101000000000041542B4349504351
:1012BA004C4F53450D0A00474554206874747073A7
:1012CA003A2F2F6170692E7468696E677370656151
:1012DA006B2E636F6D2F7570646174653F61706901
:1012EA005F6B65793D0041542B43495053454E4449
:1012FA003D0041542B43495053544152543D2254CA
:10130A004350222C223138342E3130362E313533A7
:10131A002E313439222C38300D0A004552524F52A0
:10132A00004F4B004641494C003E006669656C64BB
:10133A0031006669656C6432006669656C64330005
:10134A006669656C64006669656C6430004950447E
:10135A00004745542068747470733A2F2F6170697E
:10136A002E7468696E67737065616B2E636F6D2F7B
:10137A006368616E6E656C732F002F6665656473B2
:10138A002F6C6173742E6A736F6E3F6170695F6B45
:10139A0065793D00434C4F53454400584D585938E0
:1013AA005045374B4F5430484E4D4D0035505855E7
:1013BA0032354C33324D4A4C50534A380048464332
:1013CA004B45564A36524B37594F4D5333003837EF
:0613DA0032363638000037
:00000001FF
