:1000000081C000009FC000009DC000009BC0000098
:1000100099C0000097C0000095C0000093C0000088
:1000200091C000008FC000008DC000008BC0000098
:1000300089C0000087C0000085C0000083C00000A8
:1000400081C0000095C700007DC000007BC000009B
:1000500079C000009EC7000075C0000073C000009A
:1000600071C000000C943C086DC000006BC0000023
:1000700069C0000067C0000065C0000063C00000E8
:1000800061C000005FC000005DC000005BC00000F8
:1000900059C0000057C0000055C0000053C0000008
:1000A00051C000004FC000004DC000004BC0000018
:1000B00049C0000047C0000045C0000043C0000028
:1000C00041C000003FC000003DC000003BC0000038
:1000D00039C0000037C0000035C0000033C0000048
:1000E00031C0000061026F027D028B029902A702FB
:1000F000B502C3023104350439043D04410445040A
:1001000049044D0411241FBECFEFD1E2DEBFCDBFA5
:1001100000E00CBF13E0A0E0B2E0EEE5F4E100E0A7
:100120000BBF02C007900D92A837B107D9F725E0A1
:10013000A8E7B3E001C01D92A631B207E1F74FD5A1
:100140000C942D0A5DCF81E0209179039091780382
:10015000291380E0089590917803E92FF0E0EB57A0
:10016000FC4F80839F5F909378030895E5E8F3E068
:1001700085E195E01192E817F907E1F7109278030D
:10018000109279030895BC0185E893E00E94D80994
:1001900021E0892B09F420E0822F089585E893E07F
:1001A00008952F923F924F925F927F928F929F92EB
:1001B000AF92BF92CF92DF92EF92FF920F931F9375
:1001C000CF93DF9300D01F921F92CDB7DEB75C01B3
:1001D0004B01FE01319685E0DF011D928A95E9F71A
:1001E000FA0180A1E1E0F0E00E2C02C0EE0FFF1F4B
:1001F0000A94E2F78E2BDA0190968C93D9019096AF
:100200008C9190978E2B90968C93BFEF61EE74E05B
:10021000B15060407040E1F700C00000D9019096F5
:100220009C9190978E2F8095982390969C93BFEFEA
:1002300060EE70E0B15060407040E1F700C0000037
:10024000D90190969C9190979E2B90969C93DA0161
:1002500090969C919097892390968C93B5EDBA9542
:10026000F1F70000180160E2260E311CD8019096CB
:100270008C91909790E00E2C02C0959587950A94EA
:10028000E2F780FD82C08FE391E00197F1F700C0B3
:10029000000090968C9190E002C095958795EA9425
:1002A000E2F780FF74C08FE391E00197F1F700C09F
:1002B0000000DE0111966D012E01B6E04B0E511CBF
:1002C000EE24E394F12C36C06150710919F461C039
:1002D00069EC70E0D1018C9190E08E239F23892BF3
:1002E00099F3B0EABA95F1F7D1018C9190E08E23A1
:1002F0009F23892B41F0C701002E02C0880F991F50
:100300000A94E2F7782A69EC70E004C06150710940
:1003100009F441C0D1018C9190E08E239F23892B59
:10032000A9F701501109A0F6D6017D926D014A1678
:100330005B0621F007E010E0712CCACFDA0190963D
:100340008C9190978E2B90968C93D90190968C914E
:100350009097E82B9096EC93BFEFE1EEF4E0B1506C
:10036000E040F040E1F700C0000029813B818A8134
:10037000820F830F9C81890F9D8189130EC0D50147
:100380003C93F401208380E009C08FEF07C08FEF1A
:1003900005C08FEF03C08FEF01C08FEF0F900F905C
:1003A0000F900F900F90DF91CF911F910F91FF90C1
:1003B000EF90DF90CF90BF90AF909F908F907F9005
:1003C0005F904F903F902F900895D0DE8BE192E0A8
:1003D0003ED6B9DE8130E9F32FEF80E792E021507D
:1003E00080409040E1F700C00000C0CE08958F9299
:1003F0009F92AF92BF92CF92DF92EF92FF920F93B4
:100400001F93CF93DF93CDB7DEB7CF54D1400FB654
:10041000F894DEBF0FBECDBF4C017B01142F022F1D
:10042000D4DF8FE2E9E2F2E0DE01119601900D9255
:100430008A95E1F7B701CE010196AFD7011708F40D
:10044000B3C0CE0101967C010F2EF6E2AF2EB12C87
:10045000F02D0F2EFDE3CF2ED12CF02DF7010190C2
:100460000020E9F73197B182A082D7010D900020DA
:10047000E9F7119786E0E2EBF2E001900D928A95A0
:10048000E1F74AE0BE01655B7E4F812F90E0AAD77D
:10049000BE01655B7E4FC70180D7F7010190002048
:1004A000E9F73197D182C082812F90E0FC0131972A
:1004B000E830F10508F074C08827EE58FF4F8F4FE1
:1004C00047C7F40181814AE0BE01655B7E4F90E041
:1004D00089D7BE01655B7E4FC7015FD761C0F4015C
:1004E00082814AE0BE01655B7E4F90E07BD7BE0112
:1004F000655B7E4FC70151D753C0F40183814AE049
:10050000BE01655B7E4F90E06DD7BE01655B7E4F9F
:10051000C70143D745C0F40184814AE0BE01655B51
:100520007E4F90E05FD7BE01655B7E4FC70135D738
:1005300037C0F40185814AE0BE01655B7E4F90E0E3
:1005400051D7BE01655B7E4FC70127D729C0F40193
:1005500086814AE0BE01655B7E4F90E043D7BE01D5
:10056000655B7E4FC70119D71BC0F40187814AE044
:10057000BE01655B7E4F90E035D7BE01655B7E4F67
:10058000C7010BD70DC0F40180854AE0BE01655B51
:100590007E4F90E027D7BE01655B7E4FC701FDD639
:1005A0001F5F011708F05ACFDE011196FD0101907F
:1005B0000020E9F731970F2EFDE0EF2EFAE0FF2E35
:1005C000F02DF182E0821282FD0101900020E9F716
:1005D000CF0101974AE0BE01655B7E4F8A1B9B0BF2
:1005E00001D78E01035D1E4F8CE0E8E5F2E0D801F3
:1005F00001900D928A95E1F7BE01655B7E4FC801BF
:10060000CCD6F80101900020E9F73197F182E08221
:100610001282ACDD84E692E01AD595DD8130E9F3F3
:100620008DE892E0B0DD811105C083E992E0ABDD99
:100630008823B1F38DE892E0A6DD813059F496DD90
:10064000FFEF23ED80E3F15020408040E1F700C050
:1006500000005AC09FEFE9EFF0E09150E040F04019
:10066000E1F700C0000082DDCE01835D9E4FEFD434
:100670006ADD8130E9F38DE892E085DD81110AC001
:1006800083E992E080DD811105C086E992E07BDD9F
:10069000882389F38DE892E076DD813059F466DDB8
:1006A0002FEF83ED90E3215080409040E1F700C0B0
:1006B00000002AC0EFEFF9EF20E0E150F0402040C9
:1006C000E1F700C0000083E992E05DDD813091F444
:1006D0008BE992E058DD8823D9F348DD8FEF90E76E
:1006E000E2E081509040E040E1F700C00000CE0120
:1006F0000196ADD43BDDFFEF23ED80E3F1502040C8
:100700008040E1F700C00000C15BDE4F0FB6F894F7
:10071000DEBF0FBECDBFDF91CF911F910F91FF9034
:10072000EF90DF90CF90BF90AF909F908F90089503
:10073000CF93DF9300D01F921F92CDB7DEB7DC01BD
:100740009E012F5F3F4F85E0F90111928A95E9F7ED
:1007500081E3898385E38A83BD01695F7F4F40E040
:1007600027E030E01DC0FB019191BF0180ED890FB2
:100770008A3010F09D3281F4E1E0F0E0EC0FFD1FD3
:10078000E40FF11D90834F5FE1E0F0E0EC0FFD1FFF
:10079000E40FF11D108202C09C3261F02F5F3F4FC9
:1007A000FD0101900020E9F73197EA1BFB0B2E17A2
:1007B0003F07C8F2CE010196D3D50F900F900F904E
:1007C0000F900F90DF91CF910895BF92CF92DF925B
:1007D000EF92FF920F931F93CF93DF93CDB7DEB7C6
:1007E0002A970FB6F894DEBF0FBECDBF7C01B62EA0
:1007F0006A0187E0E8EBF2E0DE01119601900D92CC
:100800008A95E1F780E38E836FEB72E0C701D0D564
:10081000892B09F44AC0BB2009F449C011E000E06B
:1008200086E0E2EBF2E0DE01119601900D928A95EE
:10083000E1F780E3810F8E83BE016F5F7F4FC701B9
:10084000B7D5009769F174DF282F812F90E0FC0164
:100850003197E830F10520F58827E658FF4F8F4F94
:1008600077C5F60121830F5F1BC0F60122830F5F5E
:1008700017C0F60123830F5F13C0F60124830F5FB7
:100880000FC0F60125830F5F0BC0F60126830F5FB3
:1008900007C0F60127830F5F03C0F60120870F5FB3
:1008A0001F5FB11608F0BCCF03C000E001C000E03C
:1008B000802F2A960FB6F894DEBF0FBECDBFDF9112
:1008C000CF911F910F91FF90EF90DF90CF90BF904D
:1008D00008958F929F92BF92CF92DF92EF92FF92F4
:1008E0000F931F93CF93DF93CDB7DEB7CB5ED109C4
:1008F0000FB6F894DEBF0FBECDBF6C014B017A017D
:10090000B22E63DDA89589E2E3ECF2E08E010F5F81
:100910001F4FD80101900D928A95E1F7B401C801EB
:100920003CD5D8010D900020E9F711978AE1ECEE53
:10093000F2E001900D928A95E1F7B701C8012DD53B
:10094000F80101900020E9F731970F2EFDE0EF2E1E
:10095000FAE0FF2EF02DF182E0821282F801019080
:100960000020E9F7CF0101974AE0BE0169517F4FAE
:10097000801B910B37D508531F4F8CE0E8E5F2E060
:10098000D80101900D928A95E1F7BE0169517F4F20
:10099000C80103D5F80101900020E9F73197F182F1
:1009A000E0821282E3DB84E692E051D3CCDB81303B
:1009B000E9F38DE892E0E7DB811105C083E992E07D
:1009C000E2DB8823B1F38DE892E0DDDB813059F47E
:1009D000CDDBFFEF23ED80E3F15020408040E1F7D5
:1009E00000C0000071C09FEFE9EFF0E09150E040DF
:1009F000F040E1F700C00000B9DBCE0187539F4F04
:100A000026D3A1DB8130E9F38DE892E0BCDB8111D4
:100A10000AC083E992E0B7DB811105C086E992E064
:100A2000B2DB882389F3A8958DE892E0ACDB8130B6
:100A300029F086E992E0A7DB813059F497DB2FEFAC
:100A400083ED90E3215080409040E1F700C000002A
:100A50003BC0EFEFF9EF20E0E150F0402040E1F73C
:100A600000C00000A89583E992E08DDB813011F58C
:100A70008BE992E088DB8823D9F378DB8FEF90E76E
:100A8000E2E081509040E040E1F700C00000CE017C
:100A90000196DDD286E093E076DB8823D9F38FE1FF
:100AA0009EE40197F1F700C0000078DBA6016B2DF2
:100AB0008CDE5CDB5BDB9FEFE3EDF0E39150E0402D
:100AC000F040E1F700C00000C551DF4F0FB6F894C9
:100AD000DEBF0FBECDBFDF91CF911F910F91FF9071
:100AE000EF90DF90CF90BF909F908F900895FC0182
:100AF0008181811102C0A29A01C0A29882818111D4
:100B000002C0A09A01C0A0988381811106C0ABE009
:100B1000B1E08C9180648C9305C0ABE0B1E08C9126
:100B20008F7B8C938481811106C0EBE0F1E08081A2
:100B3000806180830895EBE0F1E080818F7E808387
:100B40000895FC018181811106C0ABE0B1E08C9178
:100B500084608C9305C0ABE0B1E08C918B7F8C936B
:100B60008281811106C0ABE0B1E08C9181608C93F1
:100B700005C0ABE0B1E08C918E7F8C9383818111B5
:100B800002C02A9A01C02A988481811102C0289A41
:100B9000089528980895EAE0F1E0808184608083D8
:100BA000229A8081816080839A9A989A8081806459
:100BB0008083808180618083A29AA09AEBE0F1E03B
:100BC0008081806480838081806180838081846073
:100BD00080832A98808181608083289A0895CF93AA
:100BE000DF93CDB7DEB729970FB6F894DEBF0FBEFF
:100BF000CDBF0CD1D0DFA3D1B3D111D268D28FE158
:100C00009EE40197F1F700C00000F8949FEF23EDF8
:100C100080E3915020408040E1F700C000009FEF4A
:100C200023ED80E3915020408040E1F700C00000B8
:100C30009FEF23ED80E3915020408040E1F700C01A
:100C400000009FEF23ED80E3915020408040E1F7CA
:100C500000C000009FEF23ED80E3915020408040D2
:100C6000E1F700C0000010918403789499E288E1D4
:100C70000FB6F894A895809360000FBE9093600023
:100C8000A89581E08A831B828C831D828E831F82BC
:100C90008887198628E041E06DE073E0CE01019677
:100CA000A6DBE12CF12C00E0A8958091840381174C
:100CB000D9F310918403053019F4CED000E001C0BF
:100CC0000F5F9AE0E91203C039D1E12C01C0E3942F
:100CD00024E0F21203C00BD1F12CE6CFF394E4CF61
:100CE000FC01828190918103891709F448C08093A7
:100CF00081032181222314F5A2E0B1E08C9180626E
:100D00008C93022E000C330B33231CF43195219568
:100D1000310940E951E0249FC001259F900D112425
:100D2000909383038093820381E08093150510984C
:100D3000AEE6B0E08C9182608C9321C0A2E0B1E07D
:100D40008C918F7D8C93022E000C330B33231CF47B
:100D500031952195310940E951E0249FC001259F3B
:100D6000900D1124909383038093820381E08093FC
:100D700015051098AEE6B0E08C9182608C9384816A
:100D800090918003891709F440C080938003838188
:100D90008823F4F4749A082E000C990B99231CF400
:100DA00091958195910940E951E0849F9001859F3B
:100DB000300D1124309383032093820382E08093CB
:100DC00015051098EEE6F0E080818260808308953A
:100DD0007498082E000C990B99231CF49195819519
:100DE000910940E951E0849F9001859F300D1124C5
:100DF000309383032093820382E08093150510983B
:100E0000EEE6F0E08081826080830895E1E0F1E029
:100E10008081806280838081806480836C9A6D9AF7
:100E20009D9A6B9A808188608083808180618083B5
:100E300080818F7D808380818F7B80836C986D988B
:100E40009D986B988081877F808380818F7E80834F
:100E5000089A109A109A0895EF920F931F93CF93C8
:100E6000DF93CDB7DEB729970FB6F894DEBF0FBE7C
:100E7000CDBFFE01319689E0DF011D928A95E9F729
:100E8000A895F894EE24E39402E110E024E130E028
:100E900043E150E06EE773E08FE793E082D9811180
:100EA00006C080917F038B8380917E038C8312D157
:100EB00060937A0370937B0380937C0390937D030C
:100EC0006A837894A89523E041E06EE173E0CE0157
:100ED00001968DDAA89529960FB6F894DEBF0FBE5D
:100EE000CDBFDF91CF911F910F91EF900895A895FD
:100EF00024E04FE253E060E473E082E192E0E9DC59
:100F000082E192E0F4DDA89528E047E453E068E54B
:100F100073E089E092E0DDDC89E092E0E1DEA89513
:100F200024E04FE553E060E773E080E092E0D1DC3D
:100F300080E092E006DEA895789408950895E1E8AF
:100F4000F0E080818D608083EFE6F0E08081836057
:100F500080838DE38093890089E0809388000895E1
:100F600084B5826084BD83E085BD8DE787BD08952B
:100F70001F920F920FB60F9211248F9380918403CA
:100F80008F5F809384038F910F900FBE0F901F90FF
:100F900018951F920F920FB60F9211240BB60F9255
:100FA0008F939F93EF93FF9380911505813019F0F4
:100FB000823089F01DC0E2E0F1E0908180E4892771
:100FC00080838091820390918303019790938303A0
:100FD000809382030DC09EB180E289278EB98091F3
:100FE00082039091830301979093830380938203FC
:100FF0008091820390918303892B31F4109AEEE65D
:10100000F0E080818D7F8083FF91EF919F918F91A0
:101010000F900BBE0F900FBE0F901F90189588E990
:101020008093C10086E08093C20085E38A95F1F742
:1010300000001092C50083E08093C4000895E0ECA6
:10104000F0E0908195FFFDCF8093C60008950F9347
:101050001F93CF93FC018081882351F08F01C0E062
:10106000EEDFCF5FF801EC0FF11D80818111F8CF29
:10107000CF911F910F9108951F920F920FB60F926B
:1010800011240BB60F922F933F934F935F936F935F
:101090007F938F939F93AF93BF93EF93FF93F894B6
:1010A0008091C60058D87894FF91EF91BF91AF918D
:1010B0009F918F917F916F915F914F913F912F9170
:1010C0000F900BBE0F900FBE0F901F9018953D9A7A
:1010D000379A08958AE08A95F1F700C0459A85E32A
:1010E0008A95F1F70000459809C080E090E0DC01A6
:1010F0000196A11DB11D3799FBCF03C03799F5CFDC
:10110000FDCFBC01CD0133D027EE3AE34DE05CE3E7
:1011100094D001C0089570D088F09F5790F0B92FF7
:101120009927B751A0F0D1F0660F771F881F991F3C
:101130001AF0BA95C9F712C0B13081F077D0B1E09A
:10114000089574C0672F782F8827B85F39F0B93FAA
:10115000CCF3869577956795B395D9F73EF490953E
:101160008095709561957F4F8F4F9F4F0895E894BC
:1011700009C097FB3EF490958095709561957F4FDF
:101180008F4F9F4F9923A9F0F92F96E9BB2793958D
:10119000F695879577956795B795F111F8CFFAF49D
:1011A000BB0F11F460FF1BC06F5F7F4F8F4F9F4FCE
:1011B00016C0882311F096E911C0772321F09EE82C
:1011C000872F762F05C0662371F096E8862F70E092
:1011D00060E02AF09A95660F771F881FDAF7880F6C
:1011E0009695879597F9089557FD9058440F551F88
:1011F00059F05F3F71F04795880F97FB991F61F099
:101200009F3F79F087950895121613061406551F0F
:10121000F2CF4695F1DF08C0161617061806991F7B
:10122000F1CF86957105610508940895E894BB2770
:1012300066277727CB0197F908950BD078C069D03E
:1012400028F06ED018F0952309F05AC05FC0112421
:10125000EECFCADFA0F3959FD1F3950F50E0551F55
:10126000629FF001729FBB27F00DB11D639FAA27FB
:10127000F00DB11DAA1F649F6627B00DA11D661F4A
:10128000829F2227B00DA11D621F739FB00DA11D6B
:10129000621F839FA00D611D221F749F3327A00D25
:1012A000611D231F849F600D211D822F762F6A2FC1
:1012B00011249F5750408AF0E1F088234AF0EE0F46
:1012C000FF1FBB1F661F771F881F91505040A9F753
:1012D0009E3F510570F014C0AACF5F3FECF3983EDB
:1012E000DCF3869577956795B795F795E7959F5FBA
:1012F000C1F7FE2B880F911D9695879597F9089554
:1013000097F99F6780E870E060E008959FEF80ECB8
:10131000089500240A94161617061806090608955B
:1013200000240A9412161306140605060895092EC1
:101330000394000C11F4882352F0BB0F40F4BF2B30
:1013400011F460FF04C06F5F7F4F8F4F9F4F089570
:10135000EE0FFF1F881F8BBF0790F691E02D1994A9
:10136000FC0188279927E89421912032E9F329305C
:1013700010F02E30C8F32B3239F02D3231F468944E
:1013800003C03AD0820F911D219120532A30C8F317
:101390001EF4909581959F4F0895FB01DC010D90FF
:1013A0000020E9F7119701900D920020E1F70895D0
:1013B000FB0151915523A9F0BF01DC014D91451767
:1013C0004111E1F759F4CD010190002049F04D9110
:1013D00040154111C9F3FB014111EFCF81E090E0CD
:1013E00001970895BB274A3031F4992322F4BDE2D6
:1013F000909581959F4F09C07AE0979F902D879F88
:10140000802D910D11240895BB27FB015527AA2794
:10141000880F991FAA1FA41710F0A41B8395505181
:10142000B9F7A05DAA3308F0A95DA193009779F7F9
:10143000B111B1931192CB0100C0DC01FC01672F07
:1014400071917723E1F7329704C07C916D9370839B
:0E1450006291AE17BF07C8F30895F894FFCF5E
:10145E000101010101010101000100010001000172
:10146E00000001010101010101010041542B43491A
:10147E0050434C4F53450D0A004745542068747431
:10148E0070733A2F2F6170692E7468696E6773706E
:10149E0065616B2E636F6D2F7570646174653F614E
:1014AE0070695F6B65793D0041542B43495053453C
:1014BE004E443D0041542B43495053544152543DE8
:1014CE0022544350222C223138342E3130362E31D4
:1014DE0035332E313439222C38300D0A0045525214
:1014EE004F52004F4B004641494C003E0066696525
:1014FE006C6431006669656C6432006669656C64A3
:10150E0033006669656C64006669656C6430004919
:10151E005044004745542068747470733A2F2F61FD
:10152E0070692E7468696E67737065616B2E636F78
:10153E006D2F6368616E6E656C732F002F66656527
:10154E0064732F6C6173742E6A736F6E3F61706972
:10155E005F6B65793D00434C4F5345440044304624
:10156E005959414A323559504B555530490035502D
:10157E00585532354C33324D4A4C50534A38004848
:10158E0046434B45564A36524B37594F4D5333000F
:10159E003837323636380053584D44545553314E41
:1015AE0046474D533756470039303333373900529B
:1015BE004F4E3638514537505A374F315539530003
:0815CE003838313330360000DB
:00000001FF
