:1000000081C000009FC000009DC000009BC0000098
:1000100099C0000097C0000095C0000093C0000088
:1000200091C000008FC000008DC000008BC0000098
:1000300089C0000087C0000085C0000083C00000A8
:1000400081C00000F1C700007DC000007BC000003F
:1000500079C00000FAC7000075C0000073C000003E
:1000600071C000000C9499086DC000006BC00000C6
:1000700069C0000067C0000065C0000063C00000E8
:1000800061C000005FC000005DC000005BC00000F8
:1000900059C0000057C0000055C0000053C0000008
:1000A00051C000004FC000004DC000004BC0000018
:1000B00049C0000047C0000045C0000043C0000028
:1000C00041C000003FC000003DC000003BC0000038
:1000D00039C0000037C0000035C0000033C0000048
:1000E00031C00000630271027F028D029B02A902EF
:1000F000B702C502330437043B043F0443044704FA
:100100004B044F0411241FBECFEFD1E2DEBFCDBFA1
:1001100000E00CBF13E0A0E0B2E0EAE1F5E100E0AE
:100120000BBF02C007900D92AC35B107D9F724E0A0
:10013000ACE5B3E001C01D92A83FB207E1F751D58D
:100140000C948B0A5DCF81E020915D0390915C035C
:10015000291380E0089590915C03E92FF0E0E959BC
:10016000FC4F80839F5F90935C030895E7E6F3E084
:1001700087EF94E01192E817F907E1F710925C031A
:1001800010925D030895BC0187E693E00E94360A51
:1001900021E0892B09F420E0822F089587E693E07F
:1001A00008952F923F924F925F927F928F929F92EB
:1001B000AF92BF92CF92DF92EF92FF920F931F9375
:1001C000CF93DF9300D01F921F92CDB7DEB75C01B3
:1001D0004B01FE01319685E0DF011D928A95E9F71A
:1001E000FA0180A1E1E0F0E00E2C02C0EE0FFF1F4B
:1001F0000A94E2F78E2BDA0190968C93D9019096AF
:100200008C9190978E2B90968C93BFEF61EE74E05B
:10021000B15060407040E1F700C00000D9019096F5
:100220009C9190978E2F8095982390969C93BFEFEA
:1002300060EE70E0B15060407040E1F700C0000037
:10024000D90190969C9190979E2B90969C93DA0161
:1002500090969C919097892390968C93B5EDBA9542
:10026000F1F70000180160E2260E311CD8019096CB
:100270008C91909790E00E2C02C0959587950A94EA
:10028000E2F780FD82C08FE391E00197F1F700C0B3
:10029000000090968C9190E002C095958795EA9425
:1002A000E2F780FF74C08FE391E00197F1F700C09F
:1002B0000000DE0111966D012E01B6E04B0E511CBF
:1002C000EE24E394F12C36C06150710919F461C039
:1002D00069EC70E0D1018C9190E08E239F23892BF3
:1002E00099F3B0EABA95F1F7D1018C9190E08E23A1
:1002F0009F23892B41F0C701002E02C0880F991F50
:100300000A94E2F7782A69EC70E004C06150710940
:1003100009F441C0D1018C9190E08E239F23892B59
:10032000A9F701501109A0F6D6017D926D014A1678
:100330005B0621F007E010E0712CCACFDA0190963D
:100340008C9190978E2B90968C93D90190968C914E
:100350009097E82B9096EC93BFEFE1EEF4E0B1506C
:10036000E040F040E1F700C0000029813B818A8134
:10037000820F830F9C81890F9D8189130EC0D50147
:100380003C93F401208380E009C08FEF07C08FEF1A
:1003900005C08FEF03C08FEF01C08FEF0F900F905C
:1003A0000F900F900F90DF91CF911F910F91FF90C1
:1003B000EF90DF90CF90BF90AF909F908F907F9005
:1003C0005F904F903F902F900895D0DE80E092E0B4
:1003D0009BD6B9DE8130E9F32FEF80E792E0215020
:1003E00080409040E1F700C00000C0CE08958F9299
:1003F0009F92AF92BF92CF92DF92EF92FF920F93B4
:100400001F93CF93DF93CDB7DEB7CF54D1400FB654
:10041000F894DEBF0FBECDBF4C017B01142F022F1D
:10042000D4DF8FE2EEE0F2E0DE01119601900D9252
:100430008A95E1F7B701CE0101960E942B0A0117B8
:1004400008F4B4C0CE0101967C010F2EF6E2AF2E67
:10045000B12CF02D0F2EFDE3CF2ED12CF02DF70176
:1004600001900020E9F73197B182A082D7010D9069
:100470000020E9F7119786E0E7E9F2E001900D929C
:100480008A95E1F74AE0BE01655B7E4F812F90E0DF
:100490000E94500ABE01655B7E4FC701DCD7F701A1
:1004A00001900020E9F73197D182C082812F90E03E
:1004B000FC013197E830F10508F074C08827EE5848
:1004C000FF4F8F4FA3C7F40181814AE0BE01655BF6
:1004D0007E4F90E0E5D7BE01655B7E4FC701BBD77D
:1004E00061C0F40182814AE0BE01655B7E4F90E00D
:1004F000D7D7BE01655B7E4FC701ADD753C0F401AE
:1005000083814AE0BE01655B7E4F90E0C9D7BE01A2
:10051000655B7E4FC7019FD745C0F40184814AE0E7
:10052000BE01655B7E4F90E0BBD7BE01655B7E4F31
:10053000C70191D737C0F40185814AE0BE01655BF0
:100540007E4F90E0ADD7BE01655B7E4FC70183D77C
:1005500029C0F40186814AE0BE01655B7E4F90E0D0
:100560009FD7BE01655B7E4FC70175D71BC0F401E5
:1005700087814AE0BE01655B7E4F90E091D7BE0166
:10058000655B7E4FC70167D70DC0F40180854AE0E7
:10059000BE01655B7E4F90E083D7BE01655B7E4FF9
:1005A000C70159D71F5F011708F059CFDE01119617
:1005B000FD0101900020E9F731970F2EFDE0EF2EAD
:1005C000FAE0FF2EF02DF182E0821282FD0101900F
:1005D0000020E9F7CF0101974AE0BE01655B7E4F3D
:1005E0008A1B9B0B5DD78E01035D1E4F8CE0EDE3F4
:1005F000F2E0D80101900D928A95E1F7BE01655BAA
:100600007E4FC80128D7F80101900020E9F7319703
:10061000F182E0821282AADD89E492E075D593DD51
:100620008130E9F382E792E0AEDD811105C088E711
:1006300092E0A9DD8823B1F382E792E0A4DD813066
:1006400059F494DDFFEF23ED80E3F150204080402A
:10065000E1F700C000005AC09FEFE9EFF0E09150D1
:10066000E040F040E1F700C0000080DDCE01835D96
:100670009E4F4AD568DD8130E9F382E792E083DD61
:1006800081110AC088E792E07EDD811105C08BE709
:1006900092E079DD882389F382E792E074DD81308E
:1006A00059F464DD2FEF83ED90E3215080409040BA
:1006B000E1F700C000002AC0EFEFF9EF20E0E150C1
:1006C000F0402040E1F700C0000088E792E05BDDE9
:1006D000813091F480E892E056DD8823D9F346DD3D
:1006E0008FEF90E7E2E081509040E040E1F700C0FA
:1006F0000000CE01019608D539DDFFEF23ED80E340
:10070000F15020408040E1F700C00000C15BDE4FA7
:100710000FB6F894DEBF0FBECDBFDF91CF911F9112
:100720000F91FF90EF90DF90CF90BF90AF909F9090
:100730008F900895CF93DF9300D01F921F92CDB773
:10074000DEB7DC019E012F5F3F4F85E0F90111927A
:100750008A95E9F781E3898385E38A83BD01695F2F
:100760007F4F40E027E030E01DC0FB019191BF01C9
:1007700080ED890F8A3010F09D3281F4E1E0F0E0E5
:10078000EC0FFD1FE40FF11D90834F5FE1E0F0E0FF
:10079000EC0FFD1FE40FF11D108202C09C3261F0CE
:1007A0002F5F3F4FFD0101900020E9F73197EA1BD1
:1007B000FB0B2E173F07C8F2CE0101962FD60F90E4
:1007C0000F900F900F900F90DF91CF910895BF92EF
:1007D000CF92DF92EF92FF920F931F93CF93DF930D
:1007E000CDB7DEB72A970FB6F894DEBF0FBECDBFE8
:1007F0007C01B62E6A0187E0EDE9F2E0DE01119698
:1008000001900D928A95E1F780E38E8364EA72E0AD
:10081000C7012CD6892B09F44AC0BB2009F449C072
:1008200011E000E086E0E7E9F2E0DE0111960190D8
:100830000D928A95E1F780E3810F8E83BE016F5F91
:100840007F4FC70113D6009769F174DF282F812FDE
:1008500090E0FC013197E830F10520F58827E65853
:10086000FF4F8F4FD3C5F60121830F5F1BC0F601E9
:1008700022830F5F17C0F60123830F5F13C0F601B9
:1008800024830F5F0FC0F60125830F5F0BC0F601B5
:1008900026830F5F07C0F60127830F5F03C0F601B1
:1008A00020870F5F1F5FB11608F0BCCF03C000E0C8
:1008B00001C000E0802F2A960FB6F894DEBF0FBE6D
:1008C000CDBFDF91CF911F910F91FF90EF90DF90FF
:1008D000CF90BF9008958F929F92BF92CF92DF9258
:1008E000EF92FF920F931F93CF93DF93CDB7DEB7B5
:1008F000CB5ED1090FB6F894DEBF0FBECDBF6C0141
:100900004B017A01B22E61DDA89589E2E8EAF2E0B6
:100910008E010F5F1F4FD80101900D928A95E1F76C
:10092000B401C80198D5D8010D900020E9F71197BE
:100930008AE1E1EDF2E001900D928A95E1F7B701CD
:10094000C80189D5F80101900020E9F731970F2EF1
:10095000FDE0EF2EFAE0FF2EF02DF182E082128210
:10096000F80101900020E9F7CF0101974AE0BE01AC
:1009700069517F4F801B910B93D508531F4F8CE01B
:10098000EDE3F2E0D80101900D928A95E1F7BE0106
:1009900069517F4FC8015FD5F80101900020E9F748
:1009A0003197F182E0821282E1DB89E492E0ACD3FC
:1009B000CADB8130E9F382E792E0E5DB811105C013
:1009C00088E792E0E0DB8823B1F382E792E0DBDBAB
:1009D000813059F4CBDBFFEF23ED80E3F150204071
:1009E0008040E1F700C0000071C09FEFE9EFF0E048
:1009F0009150E040F040E1F700C00000B7DBCE01CD
:100A000087539F4F81D39FDB8130E9F382E792E0E8
:100A1000BADB81110AC088E792E0B5DB811105C01D
:100A20008BE792E0B0DB882389F3A89582E792E018
:100A3000AADB813029F08BE792E0A5DB813059F405
:100A400095DB2FEF83ED90E3215080409040E1F75C
:100A500000C000003BC0EFEFF9EF20E0E150F040B4
:100A60002040E1F700C00000A89588E792E08BDB0A
:100A7000813011F580E892E086DB8823D9F376DBBC
:100A80008FEF90E7E2E081509040E040E1F700C056
:100A90000000CE01019638D38BEE92E074DB882300
:100AA000D9F38FE19EE40197F1F700C0000076DBF7
:100AB000A6016B2D8CDE5ADB59DB9FEFE3EDF0E3F3
:100AC0009150E040F040E1F700C00000C551DF4F19
:100AD0000FB6F894DEBF0FBECDBFDF91CF911F914F
:100AE0000F91FF90EF90DF90CF90BF909F908F90ED
:100AF0000895FC018181811102C0A29801C0A29ACF
:100B00008281811102C0A09801C0A09A83818111C5
:100B100006C0ABE0B1E08C918F7B8C9305C0ABE05D
:100B2000B1E08C9180648C938481811106C0EBE0EC
:100B3000F1E080818F7E80830895EBE0F1E0808199
:100B4000806180830895FC018181811106C0ABE042
:100B5000B1E08C9184608C9305C0ABE0B1E08C91E6
:100B60008B7F8C938281811106C0ABE0B1E08C91C8
:100B700081608C9305C0ABE0B1E08C918E7F8C934B
:100B80008381811102C02A9A01C02A98848181112F
:100B900002C0289A089528980895EAE0F1E080813B
:100BA00084608083229A8081816080839A9A989A57
:100BB000808180648083808180618083A298A098F6
:100BC000EBE0F1E080818F7B808380818F7E80836A
:100BD0008081846080832A98808181608083289AC4
:100BE0000895CF93DF93CDB7DEB729970FB6F8946A
:100BF000DEBF0FBECDBFCE0101967C0189E0F701BB
:100C000011928A95E9F72CD1C8DFF5D105D264D2CB
:100C1000BCD28FE19EE40197F1F700C00000F89488
:100C20009FEFE3EDF0E39150E040F040E1F700C0CA
:100C300000002FEF83ED90E3215080409040E1F7DA
:100C400000C00000EFEFF3ED20E3E150F040204062
:100C5000E1F700C000008FEF93EDE0E3815090409A
:100C6000E040E1F700C00000FFEF23ED80E3F1502A
:100C700020408040E1F700C00000109166037894A6
:100C800099E288E10FB6F894A895809360000FBEB2
:100C900090936000A89528E041E062EF72E0C70100
:100CA000A6DBE12CF12C00E0A8958091660381176A
:100CB000D9F310916603053019F4F8D000E001C0B3
:100CC0000F5F9AE0E91203C095D1E12C01C0E394D3
:100CD000E4E0FE1203C035D1F12CE6CFF394E4CF6B
:100CE000FF920F931F93CF93DF93CDB7DEB7299772
:100CF0000FB6F894DEBF0FBECDBF8C01FE0131965A
:100D000089E0DF011D928A95E9F7F8018281882345
:100D100009F44DC0F18028E041E062EF72E0CE01BD
:100D2000019665DBFF2014F5E2E0F1E0808180624E
:100D300080838F2DFF0C990B99231CF4919581953D
:100D4000910940E951E0849F9001859F300D112465
:100D5000309365032093640381E08093F704109837
:100D6000EEE6F0E080818260808321C0E2E0F1E085
:100D700080818F7D80838F2DFF0C990B99231CF42C
:100D800091958195910940E951E0849F9001859F5B
:100D9000300D1124309365032093640381E0809328
:100DA000F7041098EEE6F0E0808182608083D8013D
:100DB00014968C911497882309F446C013961C91BD
:100DC00028E041E062EF72E0CE01019610DB1123D2
:100DD000F4F4749A812F110F990B99231CF49195B7
:100DE0008195910940E951E0849F9001859F300DE4
:100DF0001124309365032093640382E08093F70409
:100E00001098EEE6F0E08081826080831DC07498C7
:100E1000812F110F990B99231CF4919581959109BC
:100E200040E951E0849F9001859F300D112430935B
:100E300065032093640382E08093F7041098EEE644
:100E4000F0E080818260808329960FB6F894DEBF3F
:100E50000FBECDBFDF91CF911F910F91FF900895ED
:100E6000E1E0F1E080818062808380818064808322
:100E70006C9A6D9A9D9A6B9A80818860808380813C
:100E80008061808380818F7D808380818F7B808360
:100E90006C986D989D986B988081877F8083808106
:100EA0008F7E8083089A109A109A0895EF920F937C
:100EB0001F93CF93DF93CDB7DEB729970FB6F89482
:100EC000DEBF0FBECDBFFE01319689E0DF011D926E
:100ED0008A95E9F7A895F894EE24E39402E110E0EE
:100EE00024E130E043E150E062E673E083E693E022
:100EF00058D9811106C0809163038B83809162036E
:100F00008C8346D160935E0370935F03809360038C
:100F1000909361036A837894A89523E041E063E0AD
:100F200073E0CE01019663DAA89529960FB6F8947E
:100F3000DEBF0FBECDBFDF91CF911F910F91EF901C
:100F40000895CF92DF92EF92FF920F931F93CF936A
:100F5000DF93CDB7DEB76B970FB6F894DEBF0FBE49
:100F6000CDBF89E09E012F5F3F4F7901F901282F06
:100F700011922A95E9F76E013AE0C30ED11CF601F1
:100F8000282F11922A95E9F78E010D5E1F4FF80167
:100F900011928A95E9F7A89524E044E153E065E2CF
:100FA00073E0C60198DCC601A4DDA89528E04CE2F8
:100FB00053E06DE373E0C7018EDCC70191DEA895B5
:100FC00024E044E453E065E573E0C80184DCC80133
:100FD000BADDA89578946B960FB6F894DEBF0FBE75
:100FE000CDBFDF91CF911F910F91FF90EF90DF90D8
:100FF000CF9008950895E1E8F0E080818D608083CE
:10100000EFE6F0E08081836080838DE38093890048
:1010100089E080938800089584B5826084BD83E070
:1010200085BD8DE787BD08951F920F920FB60F9271
:1010300011248F93809166038F5F809366038F9155
:101040000F900FBE0F901F9018951F920F920FB622
:101050000F9211240BB60F928F939F93EF93FF93F0
:101060008091640390916503892B39F4109AEEE620
:10107000F0E080818D7F808324C08091F7048130EF
:1010800019F0823089F01DC0E2E0F1E0908180E447
:1010900089278083809164039091650301979093E1
:1010A0006503809364030DC09EB180E289278EB9E9
:1010B00080916403909165030197909365038093F9
:1010C0006403FF91EF919F918F910F900BBE0F9052
:1010D0000FBE0F901F90189588E98093C10086E09D
:1010E0008093C20085E38A95F1F700001092C50055
:1010F00083E08093C4000895E0ECF0E0908195FFD8
:10110000FDCF8093C60008950F931F93CF93FC01EA
:101110008081882351F08F01C0E0EEDFCF5FF801BE
:10112000EC0FF11D80818111F8CFCF911F910F91AC
:1011300008951F920F920FB60F9211240BB60F92C3
:101140002F933F934F935F936F937F938F939F93CF
:10115000AF93BF93EF93FF93F8948091C6000E94E2
:10116000AB007894FF91EF91BF91AF919F918F91D8
:101170007F916F915F914F913F912F910F900BBE97
:101180000F900FBE0F901F9018953D9A379A0895B3
:101190008AE08A95F1F700C0459A85E38A95F1F7D0
:1011A0000000459809C080E090E0DC010196A11D97
:1011B000B11D3799FBCF03C03799F5CFFDCFBC01E7
:1011C000CD0133D027EE3AE34DE05CE394D001C08B
:1011D000089570D088F09F5790F0B92F9927B75194
:1011E000A0F0D1F0660F771F881F991F1AF0BA95EB
:1011F000C9F712C0B13081F077D0B1E0089574C062
:10120000672F782F8827B85F39F0B93FCCF38695E0
:1012100077956795B395D9F73EF49095809570953D
:1012200061957F4F8F4F9F4F0895E89409C097FBBA
:101230003EF490958095709561957F4F8F4F9F4FAD
:101240009923A9F0F92F96E9BB279395F6958795F1
:1012500077956795B795F111F8CFFAF4BB0F11F4B4
:1012600060FF1BC06F5F7F4F8F4F9F4F16C088235B
:1012700011F096E911C0772321F09EE8872F762F91
:1012800005C0662371F096E8862F70E060E02AF0D2
:101290009A95660F771F881FDAF7880F96958795BE
:1012A00097F9089557FD9058440F551F59F05F3F27
:1012B00071F04795880F97FB991F61F09F3F79F078
:1012C00087950895121613061406551FF2CF4695FA
:1012D000F1DF08C0161617061806991FF1CF86957C
:1012E0007105610508940895E894BB276627772760
:1012F000CB0197F908950BD078C069D028F06ED053
:1013000018F0952309F05AC05FC01124EECFCADF50
:10131000A0F3959FD1F3950F50E0551F629FF00108
:10132000729FBB27F00DB11D639FAA27F00DB11D61
:10133000AA1F649F6627B00DA11D661F829F2227EA
:10134000B00DA11D621F739FB00DA11D621F839F71
:10135000A00D611D221F749F3327A00D611D231F47
:10136000849F600D211D822F762F6A2F11249F5795
:1013700050408AF0E1F088234AF0EE0FFF1FBB1FB8
:10138000661F771F881F91505040A9F79E3F510557
:1013900070F014C0AACF5F3FECF3983EDCF3869563
:1013A00077956795B795F795E7959F5FC1F7FE2B02
:1013B000880F911D9695879597F9089597F99F67DE
:1013C00080E870E060E008959FEF80EC08950024CD
:1013D0000A941616170618060906089500240A949A
:1013E00012161306140605060895092E0394000C20
:1013F00011F4882352F0BB0F40F4BF2B11F460FFAF
:1014000004C06F5F7F4F8F4F9F4F0895EE0FFF1FF8
:10141000881F8BBF0790F691E02D1994FC01882757
:101420009927E89421912032E9F3293010F02E30E9
:10143000C8F32B3239F02D3231F4689403C03AD01E
:10144000820F911D219120532A30C8F31EF49095EC
:1014500081959F4F0895FB01DC010D900020E9F775
:10146000119701900D920020E1F70895FB01519131
:101470005523A9F0BF01DC014D9145174111E1F75A
:1014800059F4CD010190002049F04D9140154111D2
:10149000C9F3FB014111EFCF81E090E0019708957E
:1014A000BB274A3031F4992322F4BDE2909581950F
:1014B0009F4F09C07AE0979F902D879F802D910DB7
:1014C00011240895BB27FB015527AA27880F991FD0
:1014D000AA1FA41710F0A41B83955051B9F7A05D63
:1014E000AA3308F0A95DA193009779F7B111B193E0
:1014F0001192CB0100C0DC01FC01672F71917723B1
:10150000E1F7329704C07C916D9370836291AE17BE
:0A151000BF07C8F30895F894FFCF59
:10151A0041542B434950434C4F53450D0A0047450C
:10152A00542068747470733A2F2F6170692E74682E
:10153A00696E67737065616B2E636F6D2F7570646A
:10154A006174653F6170695F6B65793D0041542B39
:10155A0043495053454E443D0041542B434950534F
:10156A00544152543D22544350222C223138342EB5
:10157A003130362E3135332E313439222C38300D74
:10158A000A004552524F52004F4B004641494C0007
:10159A003E006669656C6431006669656C64320098
:1015AA006669656C6433006669656C6400666965C2
:1015BA006C64300049504400474554206874747084
:1015CA00733A2F2F6170692E7468696E677370653C
:1015DA00616B2E636F6D2F6368616E6E656C732F1E
:1015EA00002F66656564732F6C6173742E6A736F5E
:1015FA006E3F6170695F6B65793D00434C4F53459F
:10160A0044004430465959414A323559504B555590
:10161A003049003550585532354C33324D4A4C50CA
:10162A00534A38004846434B45564A36524B375977
:10163A004F4D5333003837323636380053584D44FD
:10164A00545553314E46474D533756470039303378
:10165A0033373900524F4E3638514537505A374F83
:0C166A0031553953003838313330360028
:00000001FF
