:1000000071C000008EC000008CC000008AC00000DB
:1000100088C0000086C0000084C0000082C00000CC
:1000200080C000007EC000007CC000007AC00000DC
:1000300078C0000076C0000074C0000072C00000EC
:1000400070C0000094C300006CC000006AC00000D3
:1000500068C0000066C0000064C0000062C000000C
:1000600060C00000BEC300005CC000005AC00000B9
:1000700058C0000056C0000054C0000052C000002C
:1000800050C000004EC000004CC000004AC000003C
:1000900048C0000046C0000044C0000042C000004C
:1000A00040C000003EC000003CC000003AC000005C
:1000B00038C0000036C0000034C0000032C000006C
:1000C00030C000002EC000002CC000002AC000007C
:1000D00028C0000026C0000024C0000022C000008C
:1000E00020C0000011241FBECFEFD1E2DEBFCDBF84
:1000F00000E00CBF13E0A0E0B2E0ECE4FCE000E0C4
:100100000BBF02C007900D92AE31B107D9F723E0C3
:10011000AEE1B3E001C01D92A83FB207E1F724D2DF
:1001200093C56ECF81E020911F0390911E03291388
:1001300080E0089590911E03983C11F410921E03E4
:1001400090911E03E92FF0E0E05DFC4F80839F5FFC
:1001500090931E030895E0E3F3E083E0E83FF8079F
:1001600011F01192FACF10921E0310921F030895FE
:10017000BC0180E393E01BD521E0892B09F420E04A
:10018000822F0895BF92CF92DF92EF92FF920F934A
:100190001F93CF93DF9300D01F921F92CDB7DEB78E
:1001A0008C01FE01319685E0DF011D928A95E9F709
:1001B00081B121E030E0042E02C0220F331F0A94E7
:1001C000E2F7822B81B982B1822B82B9BFEF51EE67
:1001D00084E0B15050408040E1F700C0000092B18F
:1001E000822F8095982392B99FEFA0EEB0E09150B6
:1001F000A040B040E1F700C0000092B1922B92B94C
:1002000091B1892381B955ED5A95F1F7000080B17C
:1002100090E0042E02C0959587950A94E2F780FF3E
:1002200002C08FEF6AC08FE391E00197F1F700C041
:10023000000080B190E002C0959587954A95E2F75D
:1002400080FFEFCFAFE3B1E01197F1F700C00000FE
:100250007E01B6E0EB0EF11CCC24C394D12CA7E0B8
:10026000B0E0B12C49EC50E080B190E082239323C0
:10027000892B21F441505109B9F7D3CF50EA5A954F
:10028000F1F780B190E082239323892B39F0C601E6
:100290000A2E01C0880F0A94EAF7B82A89EC90E088
:1002A00040B150E042235323452B19F00197C1F789
:1002B000B8CF1197B8F6B192EE16FF0681F681B16C
:1002C000822B81B982B1282B22B99FEFA1EEB4E035
:1002D0009150A040B040E1F700C0000029813B816F
:1002E0009A81920F930F8C81980F8D81981399CFDB
:1002F000F8013083DB012C9380E00F900F900F907A
:100300000F900F90DF91CF911F910F91FF90EF9081
:10031000DF90CF90BF9008951EDF80E092E04FD233
:1003200001DF8130E9F32FEF80E792E02150804038
:100330009040E1F700C000000ECFEF92FF920F93C4
:100340001F93CF93DF93CDB7DEB7C15FD1090FB64F
:10035000F894DEBF0FBECDBFC451DF4F4883CC5EE3
:10036000D040C351DF4F5883CD5ED040C251DF4FE4
:100370006883CE5ED040C151DF4F7883CF5ED040DE
:10038000C051DF4F8883C05FD040CF50DF4F98838C
:10039000C15FD0407901C0DF6EE072E08E010F5F77
:1003A0001F4FC801FDD3B701C801EFD36DE372E061
:1003B000C801EBD364E872E0C801E7D369E472E0F6
:1003C000C801E3D3C451DF4F68817981CC5ED0404E
:1003D000C801DBD36DE372E0C801D7D36BE872E0EC
:1003E000C801D3D369E472E0C801CFD3C251DF4F53
:1003F00068817981CE5ED040C801C7D36DE372E0D9
:10040000C801C3D362E972E0C801BFD369E472E0F6
:10041000C801BBD3C051DF4F68817981C05FD04034
:10042000C801B3D361E772E0C801AFD3F80101900E
:100430000020E9F7CF0101974AE0BE0169517F4FE3
:10044000801B910BCED36FE372E0CE0187539F4F99
:10045000A7D3BE0169517F4FCE0187539F4F95D3DC
:1004600061E772E0CE0187539F4F8FD374DE8BE438
:1004700092E0A5D157DE8130E9F384E792E078DE9F
:10048000882331F084E792E073DE813039F421C0B3
:100490008AE792E06DDE882381F3F4CF9FEFE9EFE6
:1004A000F0E09150E040F040E1F700C0000053DE82
:1004B000CE0187539F4F83D135DE8130E9F384E746
:1004C00092E056DE882371F084E792E051DE8130BD
:1004D000A1F441DEFFEF23ED80E3F15020408040A6
:1004E000E1F732C08AE792E043DE8111EDCF8DE77C
:1004F00092E03EDE882319F3E7CF2FEF89EF90E0FB
:10050000215080409040E1F700C000008AE792E06F
:100510002FDE813089F482E892E02ADE8823D9F345
:100520001ADEEFEFF0E722E0E150F0402040E1F783
:1005300000C00000C80143D10EDE8FEF93EDE0E371
:1005400081509040E040E1F700C00000CF50DF4F05
:100550000FB6F894DEBF0FBECDBFDF91CF911F91D4
:100560000F91FF90EF9008958FE184B915B88FEF48
:1005700087B918B8EBD00CD18FE19EE40197F1F761
:1005800000C00000F89415B857D19FEF23ED80E329
:10059000915020408040E1F700C000009FEF23ED24
:1005A00080E3915020408040E1F700C000009FEFC1
:1005B00023ED80E3915020408040E1F700C000002F
:1005C0009FEF23ED80E3915020408040E1F700C091
:1005D00000009FEF23ED80E3915020408040E1F741
:1005E00000C0000010912F037894C0E0D0E080910B
:1005F0002F038117E1F310912F03D53019F40AD09E
:10060000D0E001C0DF5FC33019F457D0C0E0EFCFB6
:10061000CF5FEDCF0F931F93CF93DF93CDB7DEB7AF
:1006200062970FB6F894DEBF0FBECDBFF89441E0DD
:1006300064E273E085E293E0A5DD8E01015F1F4F68
:10064000809125034AE0B801082E000C990BC9D20D
:100650001A83098304501109809124034AE0B801E8
:10066000082E000C990BBDD21C830B83E8D0DC0153
:10067000CB018093200390932103A0932203B09396
:100680002303045011094AE0B801ABD21E830D8345
:10069000789424EF32E049815A816B817C818D818D
:1006A0009E814BDE62960FB6F894DEBF0FBECDBFC3
:1006B000DF91CF911F910F910895F89441E064E28A
:1006C00073E085E293E05EDD81113CC0609125031B
:1006D000062E000C770B880B990B68D120912A030A
:1006E00030912B0340912C0350912D03C8D020E072
:1006F00030E040E05FE3E6D126D16F31CCF4609189
:100700002403062E000C770B880B990B4FD12091F8
:100710002603309127034091280350912903AFD03D
:1007200020E030E040E05FE3CDD10DD164341CF037
:1007300029982C9809C080912E03811105C0299A0F
:100740002C9A02C02C98299878940895E1E8F0E05A
:1007500080818D608083EFE6F0E08081836080831C
:100760008DE38093890089E08093880008951F922B
:100770000F920FB60F9211248F9380912F038F5FEA
:1007800080932F038F910F900FBE0F901F9018959D
:1007900088E98093C10086E08093C20085E38A9552
:1007A000F1F700001092C50083E08093C400089523
:1007B0009091C00095FFFCCF8093C60008950F93E1
:1007C0001F93CF938C01C0E0F801EC0FF11D8081E5
:1007D000882319F0EDDFCF5FF7CFCF911F910F91F5
:1007E00008951F920F920FB60F9211240BB60F921D
:1007F0002F933F934F935F936F937F938F939F9329
:10080000AF93BF93EF93FF93F8948091C60092DC6F
:100810007894FF91EF91BF91AF919F918F917F91CC
:100820006F915F914F913F912F910F900BBE0F9061
:100830000FBE0F901F9018950C9A059A08958AE0A4
:100840008A95F1F700C0149A85E38A95F1F70000C4
:10085000149860E070E0CB0120E0059B06C06F5F5C
:100860007F4F8F4F9F4F21E0F8CF2223A9F39CD0D9
:1008700027EE3AE34DE05CE325D16AC05058BB2730
:10088000AA270ED0E5C0D6D030F0DBD020F031F46E
:100890009F3F11F41EF4CBC00EF4E095E7FBC1C0FE
:1008A000E92FE7D080F3BA1762077307840795072B
:1008B00018F071F49EF5FFC00EF4E0950B2EBA2FE0
:1008C000A02D0B01B90190010C01CA01A001112456
:1008D000FF27591B99F0593F50F4503E68F11A1602
:1008E000F040A22F232F342F4427585FF3CF469593
:1008F00037952795A795F0405395C9F77EF41F16B5
:10090000BA0B620B730B840BBAF09150A1F0FF0F7E
:10091000BB1F661F771F881FC2F70EC0BA0F621F6A
:10092000731F841F48F4879577956795B795F7955A
:100930009E3F08F0B3CF9395880F08F09927EE0FEC
:1009400097958795089504D06894B111B5C008951E
:1009500098D088F09F5790F0B92F9927B751A0F001
:10096000D1F0660F771F881F991F1AF0BA95C9F743
:1009700012C0B13081F09FD0B1E008959CC0672FC4
:10098000782F8827B85F39F0B93FCCF386957795F3
:100990006795B395D9F73EF49095809570956195DC
:1009A0007F4F8F4F9F4F0895E89409C097FB3EF407
:1009B00090958095709561957F4F8F4F9F4F9923AC
:1009C000A9F0F92F96E9BB279395F695879577952A
:1009D0006795B795F111F8CFFAF4BB0F11F460FFEA
:1009E0001BC06F5F7F4F8F4F9F4F16C0882311F042
:1009F00096E911C0772321F09EE8872F762F05C056
:100A0000662371F096E8862F70E060E02AF09A95F0
:100A1000660F771F881FDAF7880F9695879597F9E5
:100A2000089597F99F6780E870E060E008959FEF70
:100A300080EC089500240A94161617061806090675
:100A4000089500240A941216130614060506089544
:100A5000092E0394000C11F4882352F0BB0F40F4CC
:100A6000BF2B11F460FF04C06F5F7F4F8F4F9F4F0C
:100A7000089557FD9058440F551F59F05F3F71F08E
:100A80004795880F97FB991F61F09F3F79F08795F5
:100A90000895121613061406551FF2CF4695F1DF7E
:100AA00008C0161617061806991FF1CF869571050E
:100AB000610508940895E894BB2766277727CB0142
:100AC00097F908950BD0C4CFB5DF28F0BADF18F03E
:100AD000952309F0A6CFABCF1124EECFCADFA0F348
:100AE000959FD1F3950F50E0551F629FF001729FC3
:100AF000BB27F00DB11D639FAA27F00DB11DAA1FE2
:100B0000649F6627B00DA11D661F829F2227B00D2E
:100B1000A11D621F739FB00DA11D621F839FA00DB9
:100B2000611D221F749F3327A00D611D231F849F09
:100B3000600D211D822F762F6A2F11249F57504060
:100B40008AF0E1F088234AF0EE0FFF1FBB1F661FFB
:100B5000771F881F91505040A9F79E3F510570F0B4
:100B600060CFAACF5F3FECF3983EDCF38695779594
:100B70006795B795F795E7959F5FC1F7FE2B880FAF
:100B8000911D9695879597F90895FB01DC010D90CD
:100B90000020E9F7119701900D920020E1F70895E8
:100BA000FB01DC0101900D920020E1F70895FB01AB
:100BB00051915523A9F0BF01DC014D914517411119
:100BC000E1F759F4CD010190002049F04D91401515
:100BD0004111C9F3FB014111EFCF81E090E0019792
:100BE0000895BB274A3031F4992322F4BDE2909551
:100BF00081959F4F01C0BB27FB015527AA27880F6E
:100C0000991FAA1FA41710F0A41B83955051B9F780
:100C1000A05DAA3308F0A95DA193009779F7B111FF
:100C2000B1931192CB0100C0DC01FC01672F7191DF
:100C30007723E1F7329704C07C916D9370836291C2
:0C0C4000AE17BF07C8F30895F894FFCF6B
:100C4C0041542B434950434C4F53450D0A004745E3
:100C5C00542068747470733A2F2F6170692E746805
:100C6C00696E67737065616B2E636F6D2F75706441
:100C7C006174653F6170695F6B65793D0026004169
:100C8C00542B43495053454E443D0041542B43494A
:100C9C005053544152543D22544350222C2231384B
:100CAC00342E3130362E3135332E313439222C3826
:100CBC00300D0A004552524F52004F4B00464149ED
:100CCC004C003E006669656C6431006669656C6455
:100CDC0032006669656C6433006669656C6430006B
:100CEC00495044006669656C64004745542068743B
:100CFC007470733A2F2F6170692E7468696E677304
:100D0C007065616B2E636F6D2F6368616E6E656CC1
:100D1C00732F002F66656564732F6C6173742E6A74
:100D2C00736F6E3F6170695F6B65793D00434C4F2B
:100D3C00534544003550585532354C33324D4A4C9E
:100D4C0050534A38004846434B45564A36524B3767
:0E0D5C00594F4D5333003837323636380000C9
:00000001FF
