S01A00004661726D5F30313036323031395F76302E312E737265632E
S113000071C000008EC000008CC000008AC00000D7
S113001088C0000086C0000084C0000082C00000C8
S113002080C000007EC000007CC000007AC00000D8
S113003078C0000076C0000074C0000072C00000E8
S113004070C00000A9C200006CC000006AC00000BB
S113005068C0000066C0000064C0000062C0000008
S113006060C00000D7C200005CC000005AC000009D
S113007058C0000056C0000054C0000052C0000028
S113008050C000004EC000004CC000004AC0000038
S113009048C0000046C0000044C0000042C0000048
S11300A040C000003EC000003CC000003AC0000058
S11300B038C0000036C0000034C0000032C0000068
S11300C030C000002EC000002CC000002AC0000078
S11300D028C0000026C0000024C0000022C0000088
S11300E020C0000011241FBECFEFD1E2DEBFCDBF80
S11300F000E00CBF12E0A0E0B2E0E2EBF9E000E0C7
S11301000BBF02C007900D92A431B107D9F722E0CA
S1130110A4E1B2E001C01D92A831B207E1F7DCD03E
S113012046C46ECFBF92CF92DF92EF92FF920F93AD
S11301301F93CF93DF9300D01F921F92CDB7DEB7EA
S1130140FE01319625E0DF011D922A95E9F721B1E0
S1130150E1E0F0E0042E02C0EE0FFF1F0A94E2F784
S11301602E2B21B922B12E2B22B9BFEF21EE34E080
S1130170B15020403040E1F700C0000032B12E2FD2
S11301802095322332B95FEFA0EEB0E05150A04089
S1130190B040E1F700C0000032B13E2B32B931B1BA
S11301A0232321B925ED2A95F1F7000020B130E091
S11301B0042E02C0359527950A94E2F720FD74C0F9
S11301C0AFE3B1E01197F1F700C0000020B130E0D7
S11301D002C0359527954A95E2F720FF67C0AFE343
S11301E0B1E01197F1F700C000009E012F5F3F4F6F
S11301F079016E0136E0C30ED11C01E010E031C07C
S11302004150510919F454C049EC50E020B130E098
S11302102E233F23232BA1F340EA4A95F1F720B183
S113022030E02E233F23232B41F098010A2E02C0F5
S1130230220F331F0A94E2F7B22A49EC50E003C0BC
S113024041505109B9F120B130E02E233F23232B33
S1130250B9F71197C8F6D701BD927D01CA16DB061E
S113026021F0A7E0B0E0B12CCFCF21B12E2B21B9E2
S113027022B1E22BE2B9BFEFE1EEF4E0B150E0408D
S1130280F040E1F700C0000049815B812A81240F1E
S1130290250F3C81230F3D8123130EC0DC015C93A9
S11302A0FB01408380E009C08FEF07C08FEF05C0DA
S11302B08FEF03C08FEF01C08FEF0F900F900F905F
S11302C00F900F90DF91CF911F910F91FF90EF90BE
S11302D0DF90CF90BF900895CF93DF93CDB7DEB773
S11302E069970FB6F894DEBF0FBECDBF8FE184B916
S11302F015B88FEF87B918B83ED15FD18FE19EE46E
S11303000197F1F700C0000019821A8286E0E0E04C
S1130310F2E0DE01139601900D928A95E1F786E0F2
S1130320E6E0F2E0DE01199601900D928A95E1F77C
S113033088E0ECE0F2E0DE011F9601900D928A95D0
S1130340E1F7F89415B89FEF23ED80E39150204036
S11303508040E1F700C000009FEF23ED80E391505F
S113036020408040E1F700C000009FEF23ED80E3D0
S1130370915020408040E1F700C000009FEF23ED42
S113038080E3915020408040E1F700C000009FEFDF
S113039023ED80E3915020408040E1F700C000004D
S11303A0F0901702789400E010E080911702F8169C
S11303B009F48BC0F0901702153009F041C0F8948D
S11303C041E0BE016E5F7F4FCE010196ABDE8981B5
S11303D04AE0BE01695E7F4F082E000C990BB4D22F
S11303E08BE5FBD0CE010F9600D1CE010396FDD054
S11303F0CE014796FAD08DE5F0D08AE0EED08FE3B7
S11304009CE90197F1F700C000008A814AE0BE012F
S1130410695E7F4F082E000C990B96D28BE5DDD0D8
S1130420CE010F96E2D0CE010996DFD0CE014796D9
S1130430DCD08DE5D2D08AE0D0D0789410E001C031
S11304401F5F033009F03FC0F89441E0BE016E5FC6
S11304507F4FCE01019666DE811130C06981062E80
S1130460000C770B880B990B80D120E030E0A901B8
S1130470E5D020E030E040E05FE303D243D16F31C8
S11304809CF46A81062E000C770B880B990B6DD1B6
S113049020E030E0A901D2D020E030E040E05FE38A
S11304A0F0D130D164341CF029982C9809C0809183
S11304B01402811105C0299A2C9A02C02C982998FB
S11304C0789400E003C00F5F01C0F82E80911602FB
S11304D0813009F06ACFF894809115027ED0809122
S11304E01502823379F1833391F18133A1F541E02F
S11304F0BE016E5F7F4FCE01019614DE89814AE012
S1130500BE01695E7F4F082E000C990B1DD2CE01EF
S11305100F966BD0CE01039668D0CE01479665D076
S11305208A814AE0BE01695E7F4F082E000C990B58
S11305300BD2CE01099659D0CE01479656D08AE007
S11305404CD00CC02C9881E08093140207C02C9AE4
S11305501092140203C0809115023FD0109216022B
S11305609FEF23ED80E3915020408040E1F700C0ED
S1130570000078941ACFE1E8F0E080818D608083F8
S1130580EFE6F0E08081836080838DE380938900CF
S113059089E08093880008951F920F920FB60F92FE
S11305A011248F93809117028F5F809317028F918C
S11305B00F900FBE0F901F90189588E98093C1008B
S11305C086E08093C20085E38A95F1F700001092DB
S11305D0C50087E68093C4000895E0ECF0E09081C4
S11305E095FFFDCF8093C60008950F931F93CF937B
S11305F0FC018081882351F08F01C0E0EEDFCF5FE2
S1130600F801EC0FF11D80818111F8CFCF911F917A
S11306100F9108951F920F920FB60F9211248F938A
S11306208091C6008093150281E0809316028F9119
S11306300F900FBE0F901F9018955058BB27AA27F4
S11306400ED0E5C0D6D030F0DBD020F031F49F3F9F
S113065011F41EF4CBC00EF4E095E7FBC1C0E92F02
S1130660E7D080F3BA17620773078407950718F079
S113067071F49EF5FFC00EF4E0950B2EBA2FA02D59
S11306800B01B90190010C01CA01A0011124FF273B
S1130690591B99F0593F50F4503E68F11A16F04036
S11306A0A22F232F342F4427585FF3CF4695379535
S11306B02795A795F0405395C9F77EF41F16BA0BFA
S11306C0620B730B840BBAF09150A1F0FF0FBB1FA8
S11306D0661F771F881FC2F70EC0BA0F621F731FF1
S11306E0841F48F4879577956795B795F7959E3F4E
S11306F008F0B3CF9395880F08F09927EE0F9795DC
S11307008795089504D06894B111B5C0089598D020
S113071088F09F5790F0B92F9927B751A0F0D1F0E6
S1130720660F771F881F991F1AF0BA95C9F712C070
S1130730B13081F09FD0B1E008959CC0672F782F2D
S11307408827B85F39F0B93FCCF3869577956795DC
S1130750B395D9F73EF490958095709561957F4F48
S11307608F4F9F4F0895E89409C097FB3EF49095EE
S11307708095709561957F4F8F4F9F4F9923A9F076
S1130780F92F96E9BB279395F69587957795679505
S1130790B795F111F8CFFAF4BB0F11F460FF1BC049
S11307A06F5F7F4F8F4F9F4F16C0882311F096E9DC
S11307B011C0772321F09EE8872F762F05C066238A
S11307C071F096E8862F70E060E02AF09A95660F43
S11307D0771F881FDAF7880F9695879597F90895FC
S11307E097F99F6780E870E060E008959FEF80ECE0
S11307F0089500240A941616170618060906089583
S113080000240A9412161306140605060895092EE8
S11308100394000C11F4882352F0BB0F40F4BF2B57
S113082011F460FF04C06F5F7F4F8F4F9F4F089597
S113083057FD9058440F551F59F05F3F71F047958D
S1130840880F97FB991F61F09F3F79F08795089572
S1130850121613061406551FF2CF4695F1DF08C091
S1130860161617061806991FF1CF869571056105AE
S113087008940895E894BB2766277727CB0197F956
S113088008950BD0C4CFB5DF28F0BADF18F0952354
S113089009F0A6CFABCF1124EECFCADFA0F3959F0A
S11308A0D1F3950F50E0551F629FF001729FBB2753
S11308B0F00DB11D639FAA27F00DB11DAA1F649FFF
S11308C06627B00DA11D661F829F2227B00DA11DB2
S11308D0621F739FB00DA11D621F839FA00D611D38
S11308E0221F749F3327A00D611D231F849F600D59
S11308F0211D822F762F6A2F11249F5750408AF092
S1130900E1F088234AF0EE0FFF1FBB1F661F771F1D
S1130910881F91505040A9F79E3F510570F060CF59
S1130920AACF5F3FECF3983EDCF386957795679505
S1130930B795F795E7959F5FC1F7FE2B880F911D3B
S11309409695879597F90895BB274A3031F49923F2
S113095022F4BDE2909581959F4F01C0BB27FB0116
S11309605527AA27880F991FAA1FA41710F0A41BA4
S113097083955051B9F7A05DAA3308F0A95DA193FE
S1130980009779F7B111B1931192CB0100C0DC014A
S1130990FC01672F71917723E1F7329704C07C91B2
S11309A06D9370836291AE17BF07C8F30895F894EE
S10509B0FFCF73
S11309B254656D703A0048756D643A0053656E7300
S10709C26F7232001A
S9030000FC
