:1000000071C000008EC000008CC000008AC00000DB
:1000100088C0000086C0000084C0000082C00000CC
:1000200080C000007EC000007CC000007AC00000DC
:1000300078C0000076C0000074C0000072C00000EC
:1000400070C0000086C000006CC000006AC00000E4
:1000500068C0000066C0000064C0000062C000000C
:1000600060C000005EC000005CC000005AC000001C
:1000700058C0000056C0000054C0000052C000002C
:1000800050C000004EC000004CC000004AC000003C
:1000900048C0000046C0000044C0000042C000004C
:1000A00040C000003EC000003CC000003AC000005C
:1000B00038C0000036C0000034C0000032C000006C
:1000C00030C000002EC000002CC000002AC000007C
:1000D00028C0000026C0000024C0000022C000008C
:1000E00020C0000011241FBECFEFD1E2DEBFCDBF84
:1000F00000E00CBF12E0A0E0B2E0E4E7F1E000E0D5
:100100000BBF02C007900D92A030B107D9F722E0D3
:10011000A0E0B2E001C01D92A030B207E1F702D02A
:1001200027C06ECF80EF84B92F9802D07894FFCF8C
:10013000E1E8F0E080818D608083EFE6F0E080818F
:10014000836080838DE38093890089E080938800B9
:1001500008951F920F920FB60F9211248F9385B1BD
:10016000805885B98F910F900FBE0F901F901895F2
:04017000F894FFCF31
:00000001FF
