:1000000071C000008EC000008CC000008AC00000DB
:1000100088C0000086C0000084C0000082C00000CC
:1000200080C000007EC000007CC000007AC00000DC
:1000300078C0000076C0000074C0000072C00000EC
:1000400070C00000AEC200006CC000006AC00000BA
:1000500068C0000066C0000064C0000062C000000C
:1000600060C0000003C300005CC000005AC0000074
:1000700058C0000056C0000054C0000052C000002C
:1000800050C000004EC000004CC000004AC000003C
:1000900048C0000046C0000044C0000042C000004C
:1000A00040C000003EC000003CC000003AC000005C
:1000B00038C0000036C0000034C0000032C000006C
:1000C00030C000002EC000002CC000002AC000007C
:1000D00028C0000026C0000024C0000022C000008C
:1000E00020C0000011241FBECFEFD1E2DEBFCDBF84
:1000F00000E00CBF12E0A0E0B2E0E2E8FAE000E0CD
:100100000BBF02C007900D92A03AB107D9F722E0C9
:10011000A0EAB2E001C01D92A53DB207E1F722D1ED
:10012000AEC46ECFBF92CF92DF92EF92FF920F9349
:100130001F93CF93DF9300D01F921F92CDB7DEB7EE
:10014000FE01319625E0DF011D922A95E9F721B1E4
:10015000E1E0F0E0042E02C0EE0FFF1F0A94E2F788
:100160002E2B21B922B12E2B22B9BFEF21EE34E084
:10017000B15020403040E1F700C0000032B12E2FD6
:100180002095322332B95FEFA0EEB0E05150A0408D
:10019000B040E1F700C0000032B13E2B32B931B1BE
:1001A000232321B925ED2A95F1F7000020B130E095
:1001B000042E02C0359527950A94E2F720FD74C0FD
:1001C000AFE3B1E01197F1F700C0000020B130E0DB
:1001D00002C0359527954A95E2F720FF67C0AFE347
:1001E000B1E01197F1F700C000009E012F5F3F4F73
:1001F00079016E0136E0C30ED11C01E010E031C080
:100200004150510919F454C049EC50E020B130E09C
:100210002E233F23232BA1F340EA4A95F1F720B187
:1002200030E02E233F23232B41F098010A2E02C0F9
:10023000220F331F0A94E2F7B22A49EC50E003C0C0
:1002400041505109B9F120B130E02E233F23232B37
:10025000B9F71197C8F6D701BD927D01CA16DB0622
:1002600021F0A7E0B0E0B12CCFCF21B12E2B21B9E6
:1002700022B1E22BE2B9BFEFE1EEF4E0B150E04091
:10028000F040E1F700C0000049815B812A81240F22
:10029000250F3C81230F3D8123130EC0DC015C93AD
:1002A000FB01408380E009C08FEF07C08FEF05C0DE
:1002B0008FEF03C08FEF01C08FEF0F900F900F9063
:1002C0000F900F90DF91CF911F910F91FF90EF90C2
:1002D000DF90CF90BF900895CF93DF931F921F922E
:1002E000CDB7DEB7BE016F5F7F4F41D189818233C9
:1002F00099F018F4813331F02DC08333B9F0843391
:10030000F9F028C08A81813311F4409801C0409AE5
:1003100084E192E06FD121C08A81813311F4419848
:1003200001C0419A8EE292E065D117C08A81813383
:1003300011F4429801C0429A88E492E05BD10DC06A
:100340008A81813311F4439801C0439A82E692E096
:1003500051D103C08CE792E04DD10F900F90DF9107
:10036000CF9108958FE184B915B88FEF87B918B888
:1003700007D128D18FE19EE40197F1F700C000007A
:10038000F89415B89ED19FEF23ED80E39150204063
:100390008040E1F700C000009FEF23ED80E3915023
:1003A00020408040E1F700C000009FEF23ED80E394
:1003B000915020408040E1F700C000009FEF23ED06
:1003C00080E3915020408040E1F700C000009FEFA3
:1003D00023ED80E3915020408040E1F700C0000011
:1003E000C091B0027894D0E010E06CD08091B0025F
:1003F0008C17D9F3C091B002153011F409D001C0A7
:100400001F5FD33019F46AD0D0E0EFCFDF5FEDCFBC
:10041000F89441E065EA72E086EA92E083DE80913A
:10042000A6024AE063EB72E0082E000C990BF4D2AE
:100430008BE5D8D080E092E0DDD08EE092E0DAD09B
:1004400083EB92E0D7D08DE5CDD08AE0CBD08FE39F
:100450009CE90197F1F700C000008091A5024AE0F5
:1004600063EB72E0082E000C990BD6D28BE5BAD064
:1004700080E092E0BFD088E092E0BCD083EB92E0D5
:10048000B9D08DE5AFD08AE0ADD01ED1DC01CB0173
:100490008093A1029093A202A093A302B093A4021E
:1004A0004AE063EB72E0B8D28BE59CD082E992E03F
:1004B000A1D083EB92E09ED08DE594D08AE092D0DB
:1004C000789408958091A002813039F4F89486EBF5
:1004D00092E002DF1092A00278940895F89441E02F
:1004E00065EA72E086EA92E01DDE81113CC060910F
:1004F000A602062E000C770B880B990B9ED120913B
:10050000AB023091AC024091AD025091AE02FED0F0
:1005100020E030E040E05FE31CD25CD16F31CCF4EE
:100520006091A502062E000C770B880B990B85D1E4
:100530002091A7023091A8024091A9025091AA02ED
:10054000E5D020E030E040E05FE303D243D1643403
:100550001CF029982C9809C08091AF02811105C028
:10056000299A2C9A02C02C98299878940895FC0115
:100570002081FB012083FC018181FB01818308959F
:10058000E1E8F0E080818D608083EFE6F0E080813B
:10059000836080838DE38093890089E08093880065
:1005A00008951F920F920FB60F9211248F9380918E
:1005B000B0028F5F8093B0028F910F900FBE0F90AB
:1005C0001F90189588E98093C10086E08093C2004F
:1005D00085E38A95F1F700001092C50083E08093CF
:1005E000C4000895E0ECF0E0908195FFFDCF80938A
:1005F000C60008950F931F93CF93FC018081882339
:1006000051F08F01C0E0EEDFCF5FF801EC0FF11D7C
:1006100080818111F8CFCF911F910F910895909112
:10062000B2029130E9F48D3569F09091B1029E31BA
:10063000E0F4E92FF0E0EA54FD4F80839F5F909350
:10064000B1020895E091B102F0E0EA54FD4F10824A
:100650001092B2021092B10281E08093A00208953C
:100660008B3519F481E08093B20208951F920F92A6
:100670000FB60F9211240BB60F922F933F934F9307
:100680005F936F937F938F939F93AF93BF93EF93FA
:10069000FF93F8948091C600C2DF7894FF91EF91A8
:1006A000BF91AF919F918F917F916F915F914F918A
:1006B0003F912F910F900BBE0F900FBE0F901F9088
:1006C00018950C9A059A08958AE08A95F1F700C06A
:1006D000149A85E38A95F1F70000149809C080E028
:1006E00090E0DC010196A11DB11D0599FBCF03C06F
:1006F0000599F5CFFDCFBC01CD019DD027EE3AE3A2
:100700004DE05CE326D16BC008955058BB27AA2763
:100710000ED0E5C0D6D030F0DBD020F031F49F3FD2
:1007200011F41EF4CBC00EF4E095E7FBC1C0E92F35
:10073000E7D080F3BA17620773078407950718F0AC
:1007400071F49EF5FFC00EF4E0950B2EBA2FA02D8C
:100750000B01B90190010C01CA01A0011124FF276E
:10076000591B99F0593F50F4503E68F11A16F04069
:10077000A22F232F342F4427585FF3CF4695379568
:100780002795A795F0405395C9F77EF41F16BA0B2D
:10079000620B730B840BBAF09150A1F0FF0FBB1FDB
:1007A000661F771F881FC2F70EC0BA0F621F731F24
:1007B000841F48F4879577956795B795F7959E3F81
:1007C00008F0B3CF9395880F08F09927EE0F97950F
:1007D0008795089504D06894B111B5C0089598D054
:1007E00088F09F5790F0B92F9927B751A0F0D1F01A
:1007F000660F771F881F991F1AF0BA95C9F712C0A4
:10080000B13081F09FD0B1E008959CC0672F782F60
:100810008827B85F39F0B93FCCF38695779567950F
:10082000B395D9F73EF490958095709561957F4F7B
:100830008F4F9F4F0895E89409C097FB3EF4909521
:100840008095709561957F4F8F4F9F4F9923A9F0A9
:10085000F92F96E9BB279395F69587957795679538
:10086000B795F111F8CFFAF4BB0F11F460FF1BC07C
:100870006F5F7F4F8F4F9F4F16C0882311F096E90F
:1008800011C0772321F09EE8872F762F05C06623BD
:1008900071F096E8862F70E060E02AF09A95660F76
:1008A000771F881FDAF7880F9695879597F908952F
:1008B00097F99F6780E870E060E008959FEF80EC13
:1008C000089500240A9416161706180609060895B6
:1008D00000240A9412161306140605060895092E1C
:1008E0000394000C11F4882352F0BB0F40F4BF2B8B
:1008F00011F460FF04C06F5F7F4F8F4F9F4F0895CB
:1009000057FD9058440F551F59F05F3F71F04795C0
:10091000880F97FB991F61F09F3F79F087950895A5
:10092000121613061406551FF2CF4695F1DF08C0C4
:10093000161617061806991FF1CF869571056105E1
:1009400008940895E894BB2766277727CB0197F989
:1009500008950BD0C4CFB5DF28F0BADF18F0952387
:1009600009F0A6CFABCF1124EECFCADFA0F3959F3D
:10097000D1F3950F50E0551F629FF001729FBB2786
:10098000F00DB11D639FAA27F00DB11DAA1F649F32
:100990006627B00DA11D661F829F2227B00DA11DE5
:1009A000621F739FB00DA11D621F839FA00D611D6B
:1009B000221F749F3327A00D611D231F849F600D8C
:1009C000211D822F762F6A2F11249F5750408AF0C5
:1009D000E1F088234AF0EE0FFF1FBB1F661F771F51
:1009E000881F91505040A9F79E3F510570F060CF8D
:1009F000AACF5F3FECF3983EDCF386957795679539
:100A0000B795F795E7959F5FC1F7FE2B880F911D6E
:100A10009695879597F90895BB274A3031F4992325
:100A200022F4BDE2909581959F4F01C0BB27FB0149
:100A30005527AA27880F991FAA1FA41710F0A41BD7
:100A400083955051B9F7A05DAA3308F0A95DA19331
:100A5000009779F7B111B1931192CB0100C0DC017D
:100A6000FC01672F71917723E1F7329704C07C91E5
:100A70006D9370836291AE17BF07C8F30895F89421
:020A8000FFCFA6
:100A820053656E736F72320048756D643A00546537
:100A92006D703A005B4552524F5220526563656950
:100AA20076696E673A4D454431204F6B5D005B4578
:100AB20052524F5220526563656976696E673A4DAC
:100AC200454432204F6B5D005B4552524F522052DB
:100AD2006563656976696E673A4D454433204F6BAD
:100AE2005D005B4552524F522052656365697669DB
:100AF2006E673A4D454434204F6B5D005B45525260
:100B02004F5220526563656976696E673A5945535B
:100B12005D007761746572206C6576656C3A2000C1
:00000001FF
