S01600004E6577537461636B5F315F335F302E737265633D
S11300000C94320F0C944F0F0C944F0F0C94CF1E82
S11300100C944F0F0C944F0F0C944F0F0C94592ABF
S11300200C944F0F0C944F0F0C944F0F0C944F0FD4
S11300300C944F0F0C94F42B0C944F0F0C944F0F03
S11300400C944F0F0C944F0F0C944F0F0C944F0FB4
S11300500C944F0F4142434445464748494A4B4C50
S11300604D4E4F505152535455565758595A616238
S1130070636465666768696A6B6C6D6E6F707172D4
S1130080737475767778797A30313233343536371C
S113009038392B2F3D002563000A0D54494D453A4C
S11300A0202532693A2532693A2532690D0A004918
S11300B06E68616C74206465722056617269616255
S11300C06C655B2532695D203D202532690D0A008F
S11300D0202054696D653A2534690D0A00202050AA
S11300E04F52543A253469002E253369002E2533A6
S11300F069002E25336900202049503A25336900D0
S113010025326900202054696D653A2534690D0A49
S1130110002E253369002E253369002E253369000E
S1130120202049503A253369002E253278002E25A7
S11301303278002E253278002E253278002E253292
S1130140780025326920204D41433A253278004514
S11301504E4332384A36302D56657273696F6E3AA3
S1130160202531780D0A004D79204D41433A202550
S113017032783A2532783A2532783A2532783A2557
S113018032783A2532780D0A00526F757465722000
S113019049503A202531692E2531692E2531692EA1
S11301A02531690D0A004E45544D41534B3A2025E3
S11301B031692E2531692E2531692E2531690D0AC3
S11301C0004D792049503A202531692E2531692E78
S11301D02531692E2531690D0A00524553455420B5
S11301E0202D207265736574207468652041565211
S11301F0202D20436F6E74726F6C6C65720D0A4112
S11302005250202020202D206C697374207468655E
S113021020415250207461626C650D0A5443502091
S11302202020202D206C6973742074686520746309
S113023070207461626C650D0A49502020202020D2
S11302402D206C6973742F6368616E676520697013
S11302500D0A4E4554202020202D206C6973742FE4
S11302606368616E6765206E65746D61736B0D0AFA
S1130270524F55544552202D206C6973742F636876
S1130280616E676520726F757465722069700D0AFE
S11302904E5450202020202D206C6973742F6368E5
S11302A0616E6765204E54500D0A4E545052202002
S11302B0202D204E545020526566726573680D0AD5
S11302C04D4143202020202D206C697374204D4122
S11302D0432D616464726573730D0A564552202080
S11302E020202D206C69737420656E6320766572FE
S11302F073696F6E206E756D6265720D0A535620B8
S1130300202020202D20736574207661726961623B
S11303106C650D0A50494E472020202D2073656ED0
S1130320642050696E670D0A54494D452020202DE4
S1130330206765742074696D650D0A48454C50202A
S113034020202D207072696E742048656C7074656D
S113035078740D0A3F2020202020202D20707269FF
S11303606E742048656C70746578740D0A006C6551
S1130370646F66662E676966006C65646F6E2E67CF
S11303806966000000636865636B656400504F53E1
S1130390540034303120556E617574686F72697A17
S11303A0656425454E4400485454502F312E302066
S11303B032303020446F63756D656E7420666F6CE7
S11303C06C6F77730D0A5365727665723A204156E5
S11303D0525F536D616C6C5F5765627365727665CD
S11303E0720D0A43616368652D436F6E74726F6C9E
S11303F03A206D61782D6167653D3630303030309C
S1130400300D0A436F6E74656E742D547970653ABD
S113041020746578742F6373730D0A0D0A004854B1
S113042054502F312E302032303020446F63756D9C
S1130430656E7420666F6C6C6F77730D0A5365720A
S11304407665723A204156525F536D616C6C5F570A
S113045065627365727665720D0A43616368652D22
S1130460436F6E74726F6C3A206D61782D616765AD
S11304703D363030303030300D0A436F6E74656E67
S1130480742D547970653A20696D6167652F6769C9
S1130490660D0A0D0A00485454502F312E30203274
S11304A0303020446F63756D656E7420666F6C6CBC
S11304B06F77730D0A5365727665723A204156520E
S11304C05F536D616C6C5F576562736572766572BC
S11304D00D0A436F6E74656E742D547970653A20FD
S11304E0696D6167652F6A7065670D0A0D0A0048BA
S11304F05454502F312E302034303120556E6175D4
S113050074686F72697A65640D0A536572766572F0
S11305103A204156525F536D616C6C5F576562734C
S113052065727665720D0A5757572D417574686563
S11305306E7469636174653A204261736963207201
S113054065616C6D3D224E65656450617373776FB0
S11305507264220D0A436F6E74656E742D54797043
S1130560653A20746578742F68746D6C0D0A0D0AF1
S113057000485454502F312E302032303020446FF4
S113058063756D656E7420666F6C6C6F77730D0A9E
S11305905365727665723A204156525F536D616CB1
S11305A06C5F5765627365727665720D0A436F6E90
S11305B074656E742D547970653A20746578742F5F
S11305C068746D6C0D0A0D0A00485454502F312E76
S11305D0302032303020446F63756D656E74206650
S11305E06F6C6C6F77730D0A5365727665723A207F
S11305F04156525F536D616C6C5F576562736572EF
S11306007665720D0A436F6E74656E742D5479703D
S1130610653A20746578742F706C61696E0D0A0DEB
S11306200A004749463839615A005C00A20400793F
S113063079D8F6F4E1C9C9E09C98D8FFFFFFF4F635
S1130640B0F9FD7CA6A48E21F90401000004002C5D
S1130650000000005A005C000003FF48BADCFE2ED4
S11306602C4982A5B35A21B49618068D64697A8DF3
S113067085A65CA5A88F78CEB429BF99300C541FE9
S1130680D7C0E00B36C4650803C0C018E84C6EC27E
S113069028E9C22C1061802C2EB0937A69A04B58A3
S11306A0614D55B2CB854009837EDF9FDE6E2708FE
S11306B05FD6EC57B2FE72C2836E165620493B5980
S11306C07C61783C1549794D7C7F80442F05655CBD
S11306D04A0B7B4F8A9968126B7E9133622E139575
S11306E09F8E4D59228A1B9E4D7B6E66A2712201FC
S11306F095056775033AAF139A04781D9769A5B4F5
S11307005362B6B81600BB599E4F3B206B3CAABC43
S1130710C647C70C17832015CB01ABC1070790DF71
S1130720052D153A2087A3B25282A7210506A78575
S1130730F176B7DD1A75E8E5B693B0450A03CE1431
S1130740BD41B1E4A90860A05E087C4364F8785711
S113075063E2B96594E8D53BD30CFF1C8886959E6B
S1130760DCF2A1A00EAC39739C488C716524A145C0
S1130770FA1C6AA8041215008FB740E6A260A59B74
S11307800E434A9E3DE345D1863E668E3426D3B859
S1130790F1D28153DF1ACABC50AE97D0431C1A352C
S11307A00B18459F95A1FD6A4E90BA33CB017D513C
S11307B01D3ED22A94688F4B5B6D40007850119B8C
S11307C09C213F8A4D380897D5ABBC4C4EE840CDB0
S11307D0DC082ADB20E06A648817CD4115C85AD8A2
S11307E0034EC001B687DA20A9C38183129546BEA1
S11307F0E8632C5480C6534CCB911340D60A1E3464
S11308009030F0A016B85D9C6C5304FE6A86F9A97A
S1130810CED4E568D63B35D41B150985B0668EE089
S11308204256B2E35B9270E9DDFAF76372955EA714
S113083021D54495A77B22B92373C91D390058CD0E
S1130840D0300529B53DF6ECCF86254EFEB9D173DF
S1130850852BE6C6537861556061FFEBB5D75E0121
S1130860C15572407C0F5503562F1BE08213185E4E
S11308706124CC1C43AD67A1813D3DA59D1C48F07E
S11308803214019971E0A03C15CD34A277577972E6
S1130890DA7A6779155C38F1BD70DE6B5B0913C0D9
S11308A059273AF7033723FE445F85023674A0695B
S11308B0FE3CF5D587C87986206CEFED03CF7E1218
S11308C0D687C67941D6438E95375971A0501450B6
S11308D083203516F806996E42C454532CAEB05694
S11308E0E56300B4A81563EAB4E5DD2DEF8D51D4BA
S11308F02C89E544965D4205285C439C3156078269
S1130900483C33D9564D3257620AF19055085BA6DC
S113091091859D90E830E6CA2B9C3068594FC655A6
S1130920F4DC0D661A306456663145A0985AC60840
S1130930171A25119584862671F59C1950E6F8C47A
S1130940410560B6CA80A6B245C1A399750763760E
S11309506DF038A293DB1C7BAC18FF8FF90854A40C
S1130960411278950BB114320C1E46DAE120AF2403
S1130970EA37A280CAC2D899B57E0AE38B74C13C17
S11309806A15913D05D8DA984FB0F4A74E96B1ABED
S11309908856BEED69DF67BF02104C8A866EBB269F
S11309A0B2C5CAEA154834667BD9B8879CF69A352D
S11309B054EC0170A9550E470A9E571401258D6DFC
S11309C01A59188DCBC009A60B1C6FD5C4A4D19697
S11309D0815B62CCD9525285A756A26B96D2F24B58
S11309E04D29343AE62EAFC9CC45E60F71B201D297
S11309F001F5E86AE496E2C4F27271A755DCCDC54C
S1130A009E7ECACE56B8106D40CE05BEF9B21334E0
S1130A10B2EB1A394D3E8D4FCF2DD79A239AB80C8D
S1130A20FD2ABB48C7050A4766DD62D99655851D70
S1130A3061B80B35D7E8C01E1FF8CF85B8E63A2554
S1130A40D7E7AD1AA96B6E556DF58003F3C76CDA61
S1130A50551A5929D857AED9C84FFFBFFC952FE571
S1130A6094435E317B39CE1AD1B1553DF2C8DCE0F6
S1130A70A2E309262A681EA088A7FE9DB2E352BB02
S1130A807CEB2073736E64B45B32131B5C4446DBF3
S1130A90D0A1F9E25D828E796744D3E2038AABCEBA
S1130AA0220A5C6EAAE7C3C7E7A0E8DE00B1D0E380
S1130AB06B0E783972D0C3C8C38A93120D5FC30F0B
S1130AC0DE898D320237EEF133242F819498EFD5ED
S1130AD05F9556D00E47B07E2C5FF4B9901AAA1FCA
S1130AE0ABD4609E7CE9EF46476B5B9BF2671DA924
S1130AF0F9CC7FFF930A76E686A2D8F0E255015A34
S1130B008DA97437AFD989ED2DA3EBE0FFD0911DEA
S1130B1067D08101ADE0DDBC8E558F08864E6FCA6B
S1130B208AE1633628B90985427A1174A10CF1B6B9
S1130B30BDBBD10E4A8C1B1A1B38108686E5508724
S1130B40A8B9CFA722203ABD852A48306ADDD476D9
S1130B5077441DE6AD76EA63949EFF2A7689D6A58E
S1130B60EB333B634F156B923DA8E1C904D4AB92C0
S1130B70304A02170302507F221CA1CA7E16AFC35B
S1130B80EC2D759261157AD86021C9516E8C3AE1C9
S1130B908AF60E96BAB411CB50872A5C0C75F7B955
S1130BA06FB5267B92E8A0B284F89314D54177C13F
S1130BB0D9541AB9B5378F94088818E9A4222AF9A8
S1130BC08C002E905403108E6BE208995A91D11D1B
S1130BD03EB4C44CC8D216544A4E756E425FEC8281
S1130BE0172DF63105313EC36206B668005D718685
S1130BF098AA4B6501866296DCB19224FB211B4BBB
S1130C007AE632644EE92A6E04494796591A7DCC35
S1130C10ED994770A01DA1D380158202338EE11D8A
S1130C206B6A36000362C8913A99263073131064D4
S1130C30DE880780B14CE48A470E625A898C2B7C8B
S1130C404844446321DFD1C63F37999D75B8F548C0
S1130C5041F00A68803091645471FF23255CAE9D95
S1130C603B0BE3BB4C350455CE110E66BB030F861C
S1130C7064ADDDC5B13A1335D53C66F8D1AE18ABD9
S1130C80585B39447CBCE627860254A55B98A120B6
S1130C90077994B7B493183662214A6B525033855E
S1130CA0A414119AA724667512EF0CAA4D2B5A614D
S1130CB041FFD40D4342B3204F229BE9D0A320A887
S1130CC00234A56025632703914579027321DFA3CC
S1130CD0862A1DFA55B14AC614810C8D5CFF100298
S1130CE01BFD444F550DAB5AB6988B8C582C04DA27
S1130CF088C01A61111685AC68ACB39489F2A0124D
S1130D0058A41222582DC02BB3C42AD9C4CEF1A59D
S1130D102B39067A0473BBBD4A961B62010146B6A1
S1130D2070144595691B5DB2D627221BA15BEDF5B6
S1130D301C8ABD882C6B51D6131CE724A0E98E892C
S1130D4064E9D0CBE2E5B6587562637BE196FE8D2B
S1130D50CDB51FFD6DB2BAE5C4DA5BE6461D88E881
S1130D605F0879EB155F22E6B82B13453541F896F9
S1130D709EC290B1CAA34B4B032B50634041109ABF
S1130D80B98875496BC6C69A964CE8156F5F6F753E
S1130D90D6F6BA77A9A0026F47EBA9D4FB9E968931
S1130DA0060BB073FD6B94F3F697C08DDDA97D112E
S1130DB04C5EE4213801003B25454E444749463802
S1130DC0396102000A00A20000A2A5ED848FE56645
S1130DD07CDD4960D62144DAFE01020000000000F7
S1130DE00021F90405140005002C00000000020095
S1130DF00A0000030A483423120148001D53090065
S1130E003B25454E4447494638396111001100A23B
S1130E1007005756576969697E7E7E909191B0B0FC
S1130E20B0C8C8C8E7E7E7FFFFFF21F904010000E5
S1130E3007002C000000001100110000036F78AAC5
S1130E405645B0AC794C73706839AD19012006422F
S1130E50492C56416A431990016705034468A5F07B
S1130E600A55D1128E47CBA503AA6A85C62DA7A31E
S1130E70390048CCB03482406B99A94004B00A5878
S1130E80386615C42CBB00029FCE9C23750F2D120F
S1130E905B0708280A2E793BF45610767C757C276C
S1130EA013782F5C55140B372124840B09003B2540
S1130EB0454E4447494638396111001100A20700E4
S1130EC062626219AD2121E22CA5A5A564E66BA599
S1130ED0F3A9D5D5D5FFFFFF21F9040100000700D0
S1130EE02C000000001100110000036078AAD6F362
S1130EF066C9D3EABB5156127A1700302C4DF1095A
S1130F00A8D085591308444CA46A48192A51EC7393
S1130F10BA0E2ED8AE10A30544411D8F56130D5E94
S1130F20B2A231F478A17ACCA3D3CA9C020C4F6E3E
S1130F30F777A8767D364AE8E4D38E1483B5C743A1
S1130F409D1842F8FC7B528EE3F70A09003B2545C5
S1130F504E44626F64797B6D617267696E3A2034C6
S1130F603070783B7D20626F64792C702C646976D4
S1130F702C68312C68322C74642C74687B666F6E18
S1130F80742D66616D696C793A73616E732D736546
S1130F907269663B666F6E742D73697A653A313196
S1130FA070787D68317B666F6E742D73697A653AEB
S1130FB0323070783B636F6C6F723A77686974652E
S1130FC03B206261636B67726F756E642D636F6C37
S1130FD06F723A233936423131433B6D617267692E
S1130FE06E3A3170783B70616464696E673A35704B
S1130FF0783B746578742D616C69676E3A63656ECD
S11310007465723B7D68327B666F6E742D73697A8A
S1131010653A313870783B636F6C6F723A233936B6
S1131020423131437D702C68327B6D617267696E29
S11310303A3070783070783570783070787D696DBA
S1131040677B626F726465723A307D68727B636F2E
S11310506C6F723A73696C7665723B206261636B84
S113106067726F756E642D636F6C6F723A73696C1F
S11310707665723B626F726465723A303B6865698B
S11310806768743A3170787D236E61767B666F6E23
S1131090742D73697A653A20313670783B20626129
S11310A0636B67726F756E642D636F6C6F723A73E6
S11310B0696C7665723B6D617267696E3A317078FE
S11310C03B70616464696E673A3570783B666F6E35
S11310D0742D7765696768743A626F6C647D236EFA
S11310E0617620612C20237461696C20617B636FBD
S11310F06C6F723A77686974653B207061646469E7
S11311006E673A313070783B746578742D6465632A
S11311106F726174696F6E3A6E6F6E657D236E6176
S11311207620613A686F7665722C237461696C204D
S1131130613A686F7665727B746578742D64656353
S11311406F726174696F6E3A756E6465726C696E04
S1131150657D237461696C7B20636F6C6F723A7771
S1131160686974653B206261636B67726F756E6456
S11311702D636F6C6F723A73696C7665723B74653C
S113118078742D616C69676E3A63656E7465723B41
S113119070616464696E673A3570787D236D616946
S11311A06E7B746578742D616C69676E3A63656EE5
S11311B07465723B6D617267696E3A323070787D26
S11311C02E636C6561727B636C6561723A6C6566F3
S11311D0747D2E74656D7054626C207B7461626CD6
S11311E0652D6C61796F75743A6175746F3B626FCC
S11311F0726465722D73706163696E673A307D2E17
S113120074656D7054626C2074647B746578742D9D
S1131210616C69676E3A63656E7465723B70616494
S113122064696E673A3770787D2E74656D705462A8
S11312306C2074687B6261636B67726F756E642D7A
S1131240636F6C6F723A73696C7665727D25454E77
S113125044003C21444F43545950452068746D6CFC
S1131260205055424C494320222D2F2F5733432FD2
S11312702F4454442048544D4C20342E30312054B3
S113128072616E736974696F6E616C2F2F454E22A3
S11312902022687474703A2F2F7777772E77332E45
S11312A06F72672F54522F68746D6C342F6C6F6F8C
S11312B073652E647464223E0D0A3C68746D6C3E42
S11312C03C686561643E0D0A3C6D65746120687418
S11312D074702D65717569763D22636F6E74656EE9
S11312E0742D747970652220636F6E74656E743D1D
S11312F022746578742F68746D6C3B206368617226
S11313007365743D49534F2D383835392D31223E9C
S11313100D0A3C7469746C653E415652206D696EC9
S11313206920576562736572766572203A2053743A
S1131330617475733C2F7469746C653E0D0A3C6C62
S1131340696E6B2072656C3D227374796C65736889
S11313506565742220747970653D22746578742FF4
S1131360637373222020687265663D227374796CFE
S113137065732E637373223E3C2F686561643E3C43
S1131380626F64793E3C68313E415652206D696E0D
S11313906920576562736572766572203A205374CA
S11313A0617475733C2F68313E0D0A3C6469762084
S11313B069643D226E6176223E3C612068726566F6
S11313C03D22696E6465782E68746D223E486F6DA7
S11313D0653C2F613E3C6120687265663D227374F2
S11313E0617475732E68746D223E537461747573E1
S11313F03C2F613E3C2F6469763E0D0A3C6469765D
S11314002069643D226D61696E223E0D0A436F6D51
S113141070696C6965727420616D204A756E203242
S113142032203230313920756D2031343A34393A32
S113143033323C62723E3C62723E0D0A436F6D7001
S1131440696C69657274206D697420474343205642
S1131450657273696F6E20352E342E303C62723E95
S11314603C62723E0D0A426573756368657220734F
S113147065697420537461727420646573205765C0
S1131480627365727665727320282556414030393F
S1131490293C62723E3C62723E0D0A3C2F646976BE
S11314A03E3C6469762069643D227461696C223E25
S11314B03C6120687265663D22687474703A2F2F0F
S11314C07777772E756C7269636872616469672EC9
S11314D06465223E7777772E756C726963687261F2
S11314E06469672E64653C2F613E20556C726963A4
S11314F06820526164696720323030383C2F646957
S1131500763E0D0A3C2F626F64793E3C2F68746D01
S11315106C3E0D0A25454E44003C21444F4354592A
S113152050452068746D6C205055424C494320222C
S11315302D2F2F5733432F2F4454442048544D4CC0
S113154020342E3031205472616E736974696F6E69
S1131550616C2F2F454E222022687474703A2F2F0D
S11315607777772E77332E6F72672F54522F6874E4
S11315706D6C342F6C6F6F73652E647464223E0D32
S11315800A3C68746D6C3E3C686561643E0D0A3CBF
S11315906D65746120687474702D65717569763D2C
S11315A022636F6E74656E742D7479706522206386
S11315B06F6E74656E743D22746578742F68746DF3
S11315C06C3B20636861727365743D49534F2D38D9
S11315D03835392D31223E0D0A3C7469746C653EF0
S11315E0415652206D696E69205765627365727643
S11315F06572203A20486F6D653C2F7469746C6580
S11316003E0D0A3C6C696E6B2072656C3D227374EE
S1131610796C6573686565742220747970653D2200
S1131620746578742F637373222020687265663D35
S1131630227374796C65732E637373223E3C2F6836
S11316406561643E3C626F64793E0D0A3C68313EDC
S1131650415652206D696E692057656273657276D2
S11316606572203A20486F6D653C2F68313E0D0A43
S11316703C6469762069643D226E6176223E3C6159
S113168020687265663D22696E6465782E68746DA3
S1131690223E486F6D653C2F613E3C612068726557
S11316A0663D227374617475732E68746D223E53A3
S11316B074617475733C2F613E3C2F6469763E0DF2
S11316C00A3C6469762069643D226D61696E223E3C
S11316D03C68323E476CFC636B77756E73636821BC
S11316E03C2F68323E3C62723E0D0A3C696D6720B5
S11316F07372633D2272616B65742E676966222082
S113170077696474683D22393022206865696768A6
S1131710743D2239322220616C743D22223E3C62A7
S1131720723E3C62723E0D0A3C703E447520686114
S11317307374206573206765736368616666743AC1
S11317402044657220576562736572766572206CF9
S1131750E4756674213C2F703E3C62723E3C6872B4
S11317603E3C62723E0D0A3C646976207374796C67
S1131770653D2277696474683A32303070783B6D25
S1131780617267696E3A2030206175746F3B223E46
S11317900D0A3C646976207374796C653D22666C2D
S11317A06F61743A6C6566743B77696474683A3146
S11317B030307078223E0D0A3C666F726D206D6584
S11317C074686F643D22706F73742220616374695E
S11317D06F6E3D22696E6465782E68746D223E0DCD
S11317E00A3C696E707574206E616D653D224F55BB
S11317F0542220747970653D22636865636B626F5F
S113180078222076616C75653D2241222025504F57
S1131810525441303E506F727420412050696E2002
S1131820303C62723E0D0A3C696E707574206E61C4
S11318306D653D224F55542220747970653D2263B5
S11318406865636B626F78222076616C75653D22F2
S113185042222025504F525441313E506F72742021
S1131860412050696E20313C62723E0D0A3C696E23
S1131870707574206E616D653D224F55542220743D
S11318807970653D22636865636B626F78222076A8
S1131890616C75653D2243222025504F52544132DC
S11318A03E506F727420412050696E20323C627247
S11318B03E3C62723E0D0A3C696E707574206E6126
S11318C06D653D22535542222076616C75653D223B
S11318D053656E64656E2220747970653D2273755C
S11318E0626D6974223E0D0A3C2F666F726D3E3C38
S11318F02F6469763E0D0A3C646976207374796CB2
S1131900653D22666C6F61743A6C6566743B207742
S1131910696474683A3130307078223E0D0A3C694B
S11319206D67207372633D222550494E443722204F
S1131930616C743D22223E20506F7274204420500A
S1131940696E20373C62723E3C696D672073726336
S11319503D222550494E44362220616C743D22229A
S11319603E20506F727420442050696E20363C62D1
S1131970723E3C696D67207372633D222550494E67
S113198044352220616C743D22223E20506F7274D3
S113199020442050696E20353C62723E3C2F6469BD
S11319A0763E3C2F6469763E0D0A3C64697620637A
S11319B06C6173733D22636C656172223E3C2F64DB
S11319C069763E0D0A3C62723E3C68723E3C62722D
S11319D03E0D0A3C7461626C6520626F72646572CC
S11319E03D22302220636C6173733D2274656D70F7
S11319F054626C2220616C69676E3D2263656E746B
S1131A006572222077696474683D223430307078BE
S1131A103B223E0D0A3C74723E0D0A3C74683E45FE
S1131A20696E67616E673C2F74683E0D0A3C74688A
S1131A303E42616C6B656E3C2F74683E0D0A3C74CB
S1131A40683E54656D70657261747572205BB04355
S1131A505D3C2F74683E0D0A3C2F74723E3C7472D8
S1131A603E0D0A3C74643E41442D4B616E616C3002
S1131A703C2F74643E0D0A3C7464207374796C6565
S1131A803D22746578742D616C69676E3A6C656685
S1131A9074223E3C696D67207372633D22696E64F3
S1131AA065782D4461746569656E2F62616C6B6540
S1131AB02E6769662220616C743D22222068656964
S1131AC06768743D223130222077696474683D224E
S1131AD0255641403030223E3C2F74643E0D0A3C72
S1131AE074643E2556414030303C2F74643E0D0AE8
S1131AF03C2F74723E3C74723E0D0A3C74643E4149
S1131B00442D4B616E616C313C2F74643E0D0A3C74
S1131B107464207374796C653D22746578742D61E6
S1131B206C69676E3A6C656674223E3C696D672029
S1131B307372633D22696E6465782D4461746569CE
S1131B40656E2F62616C6B652E6769662220616C1D
S1131B50743D2222206865696768743D2231302211
S1131B602077696474683D22255641403031223E15
S1131B703C2F74643E0D0A3C74643E25564140304B
S1131B80313C2F74643E0D0A3C2F74723E3C7472D7
S1131B903E0D0A3C74643E41442D4B616E616C32CF
S1131BA03C2F74643E0D0A3C7464207374796C6534
S1131BB03D22746578742D616C69676E3A6C656654
S1131BC074223E3C696D67207372633D22696E64C2
S1131BD065782D4461746569656E2F62616C6B650F
S1131BE02E6769662220616C743D22222068656933
S1131BF06768743D223130222077696474683D221D
S1131C00255641403032223E3C2F74643E0D0A3C3E
S1131C1074643E2556414030323C2F74643E0D0AB4
S1131C203C2F74723E3C74723E0D0A3C74643E4117
S1131C30442D4B616E616C333C2F74643E0D0A3C41
S1131C407464207374796C653D22746578742D61B5
S1131C506C69676E3A6C656674223E3C696D6720F8
S1131C607372633D22696E6465782D44617465699D
S1131C70656E2F62616C6B652E6769662220616CEC
S1131C80743D2222206865696768743D22313022E0
S1131C902077696474683D22255641403033223EE2
S1131CA03C2F74643E0D0A3C74643E25564140301A
S1131CB0333C2F74643E0D0A3C2F74723E0D0A3C73
S1131CC02F7461626C653E0D0A3C2F6469763E3C5C
S1131CD06469762069643D227461696C223E3C61CA
S1131CE020687265663D22687474703A2F2F777786
S1131CF0772E756C7269636872616469672E6465B6
S1131D00223E7777772E756C7269636872616469B5
S1131D10672E64653C2F613E20556C7269636820B0
S1131D20526164696720323030383C2F6469763EF2
S1131D300D0A3C2F626F64793E3C2F68746D6C3ED3
S1131D4025454E440047657420504F4E473A2025A0
S1131D50692E25692E25692E25690D0A00455252E2
S1131D604F520D0A0D0A0052656164790D0A0D0A7D
S1131D70000D0A0047572020202531692E2531699E
S1131D802E2531692E2531690D0A004D41534B2012
S1131D902531692E2531692E2531692E2531690DAC
S1131DA00A000D0A49502020202531692E25316969
S1131DB02E2531692E2531690D0A00436F6D706936
S1131DC06C69657274206D697420474343205665BD
S1131DD07273696F6E20352E342E300D0A00436FF6
S1131DE06D70696C6965727420616D204A756E202E
S1131DF03232203230313920756D2031343A343961
S1131E003A33330D0A000A0D53797374656D205209
S1131E10656164790A0D000400051A06FF071F08AE
S1131E200009000AFF0B19C100C00DC233CAEECB72
S1131E3005C415C612E400E520E218E3B1E015E19B
S1131E406F7500FFFF000100140742FFFF53746128
S1131E5072742054656C6E65742053657276657275
S1131E603A0D0A0011241FBECFE5D8E0DEBFCDBF76
S1131E7011E0A0E6B0E0ECEEFEE502C005900D92A4
S1131E80A639B107D9F725E0A6E9B1E001C01D9252
S1131E90A13EB207E1F70E944B1A0C94742F0C94E4
S1131EA00000CF93DF93FC019081992309F462C071
S1131EB096959695DB019C93908193709295907F73
S1131EC011969C932181211115C010C08695869589
S1131ED08C83E9019B8193709295907F11969C93DA
S1131EE0119733962181211107C001C0DB0112969D
S1131EF082E048C0EB0101C0ED0122952F70920FE2
S1131F0099839F0191819F70990F990F9A83828180
S1131F10811104C0DE01139681E034C08295869558
S1131F2086958370980F9A83DE01149682818F734D
S1131F308B8383818111CACF2AC080E0EB01E881C1
S1131F40EF73F0E0EC5AFF4FE491E993CA17DB0713
S1131F50B1F72FEF280F882359F0822FFD019DE35D
S1131F6091938150E8F7822F90E00196A80FB91F52
S1131F701C9212C0FB011082DB01FACF2FEF280F55
S1131F80DB01EBCF1C926A177B07C1F6F7CF1C82EB
S1131F906A177B0791F6ECCFDF91CF910895E0E0CB
S1131FA0F0E00994089508950895EAE6F3E0858140
S1131FB01F928F9384811F928F9383811F928F939B
S1131FC082811F928F9381811F928F9380811F92B0
S1131FD08F9387E691E09F938F930E94D32A8DB7C6
S1131FE09EB70E960FB6F8949EBF0FBE8DBF089590
S1131FF080919A011F928F938FE491E09F938F9326
S11320000E94D32A0F900F900F900F9008952F9253
S11320103F924F925F926F927F928F929F92AF9274
S1132020BF92CF92DF92EF92FF920F931F93CF93C1
S1132030DF93812C912C0F2EF2E4AF2EF1E0BF2E12
S1132040F02D0F2EFDE3CF2EF1E0DF2EF02D0F2E1D
S1132050F8E3EF2EF1E0FF2EF02D0F2EF3E36F2EB9
S1132060F1E07F2EF02D0F2EFEE24F2EF1E05F2ED9
S1132070F02D0F2EF9E22F2EF1E03F2EF02D8401EA
S1132080000F111FE801C80DD91DCC0FDD1FCC0FA7
S1132090DD1FC45DDD4F88811F928F939F928F92C5
S11320A0BF92AF920E94D32A89811F928F93DF92AD
S11320B0CF920E94D32A8A811F928F93FF92EF922C
S11320C00E94D32A8B811F928F937F926F920E94DA
S11320D0D32A8C811F928F935F924F920E94D32AAE
S11320E08D811F928F933F922F920E94D32A8E81CB
S11320F09F81A885B9859927AA27BB27BF93AF934A
S11321009F938F9320E231E03F932F930E94D32A31
S11321108E819F81A885B9852DB73EB7205E3F4F3C
S11321200FB6F8943EBF0FBE2DBF892F90E0A0E0FC
S1132130B0E0BF93AF939F938F938BE191E09F9314
S11321408F930E94D32A8E819F81A885B9858A2F77
S113215090E0A0E0B0E0BF93AF939F938F9386E1AC
S113216091E09F938F930E94D32A8E819F81A885AB
S1132170B9858B2F9927AA27BB27BF93AF939F932A
S11321808F9381E191E09F938F930E94D32A8A8554
S11321909B859F938F9384E091E09F938F930E94FC
S11321A0D32A3FEF831A930A8DB79EB746960FB68C
S11321B0F8949EBF0FBE8DBF95E08916910409F077
S11321C05ECFDF91CF911F910F91FF90EF90DF9041
S11321D0CF90BF90AF909F908F907F906F905F90C3
S11321E04F903F902F9008952F923F924F925F927D
S11321F06F927F928F929F92AF92BF92CF92DF9213
S1132200EF92FF920F931F93CF93DF9300E010E0C0
S11322100F2EF0E0AF2EF1E0BF2EF02D0F2EF7EFD2
S1132220CF2EF0E0DF2EF02D0F2EF2EFEF2EF0E0A8
S1132230FF2EF02D0F2EFDEE8F2EF0E09F2EF02DB1
S11322400F2EF8EE6F2EF0E07F2EF02D0F2EFDED09
S11322504F2EF0E05F2EF02D0F2EF0ED2F2EF0E03C
S11322603F2EF02D1F930F93BF92AF920E94D32A5B
S113227026E1209FE001219FD00D1124C258DD4F9B
S113228088819981AA81BB819927AA27BB27BF93FB
S1132290AF939F938F93DF92CF920E94D32A88812A
S11322A09981AA81BB81892F90E0A0E0B0E0BF931F
S11322B0AF939F938F93FF92EF920E94D32A8881CA
S11322C09981AA81BB818A2F90E0A0E0B0E0BF93FE
S11322D0AF939F938F939F928F920E94D32A88816A
S11322E09981AA81BB818B2F9927AA27BB27BF93EA
S11322F0AF939F938F937F926F920E94D32A2C81E6
S11323003D818C819D81322F2227892F9927822B11
S1132310932B9F938F935F924F920E94D32A8B8922
S11323202DB73EB7205E3F4F0FB6F8943EBF0FBEA9
S11323302DBF1F928F933F922F920E94D32A0F5F3B
S11323401F4F0F900F900F900F900530110509F05B
S113235089CFDF91CF911F910F91FF90EF90DF9084
S1132360CF90BF90AF909F908F907F906F905F9031
S11323704F903F902F900895A9E6B2E0ED91FC9123
S1132380119712968D919C911397EE0FFF1FEB55A9
S1132390FF4F91838083ED91FC9111978D919C91D6
S11323A0EE0FFF1FEB55FF4F21812F9320812F93B9
S11323B09F938F938FEA90E09F938F930E94D32AE9
S11323C00F900F900F900F900F900F9008954F92D1
S11323D05F926F927F928F929F92AF92BF92CF92B1
S11323E0DF92EF92FF928090040390900503A090F7
S11323F00603B090070340900403509005036090D7
S113240006037090070360910403709105038091A3
S11324100603909107030F2EFCE3CF2ED12CE12C61
S1132420F12CF02DA70196010E94912C1F926F931D
S1132430C301B201A70196010E94912CCA01B901FE
S1132440A70196010E94912C1F926F93C501B401BC
S113245020E13EE040E050E00E94912CCA01B90125
S113246028E130E040E050E00E94912C1F926F93ED
S113247089E990E09F938F930E94D32A8DB79EB7EA
S113248008960FB6F8949EBF0FBE8DBFFF90EF90D5
S1132490DF90CF90BF90AF909F908F907F906F9080
S11324A05F904F900895EF92FF921F93CF93DF9325
S11324B0CAEDD1E00F2EF6E9EF2EF0E0FF2EF02D5D
S11324C0FE0114911F921F93FF92EF920E94D32A50
S11324D021960F900F900F900F901111F1CFDF9173
S11324E0CF911F91FF90EF900895EF92FF920F9379
S11324F01F93CF93DF938091690290916A02892B95
S113250009F448C0A9E6B2E0ED91FC911197129646
S11325108D919C91139714964D915C9115971696F5
S11325202D913C911797A0E0B0E0BA2FA92F982FD6
S1132530882760E070E0BA0155274427840F951F6F
S1132540A61FB71F8E0F9F1FA11DB11DA90160E01B
S113255070E0742F6627552744278C019D01040FD2
S1132560151F261F371FC901B801C9ECD5E0088320
S113257019832A833B830E94C527688179818A81D4
S11325809B81EE24E394F12C01E010E020E048E08C
S11325900E94F021DF91CF911F910F91FF90EF9056
S11325A00895CF92DF92FF920F931F93CF93DF93FF
S11325B000D0CDB7DEB79A83898369EE70E0CE018F
S11325C001960E949B2E8C01F12C0DC0F394EF2DEB
S11325D0F0E0EE0FFF1FEE0FFF1FE05AFF4F808168
S11325E09181892BB9F1CF2CD12CF601EE0FFF1F6D
S11325F0EE0FFF1FE05AFF4FB801808191810E94C6
S1132600212E892B19F700E010E067EE70E0CE016F
S113261001960E949B2E40E050E060E070E00E9432
S1132620B32CF801EE0FFF1FE759FD4F7183608350
S11326300F5F1F4F0A30110541F7F601EE0FFF1F20
S1132640EE0FFF1FE05AFF4F0280F381E02D099542
S113265081E001C080E00F900F90DF91CF911F9136
S11326600F91FF90DF90CF9008950F931F93CF9316
S1132670DF932091690230916A02232BA9F08C0127
S1132680C0E0D0E0E199FECFFE01EE0FFF1FE75955
S1132690FD4F60817181C8018C0F9D1F0E94062F20
S11326A02196C430D10571F7DF91CF911F910F911D
S11326B00895CF93DF938EE190E00E94351340ECB0
S11326C058EA60E073E68EE190E00E94A71DCFEC2B
S11326D0D5E0688379838A839B838B811F928F9350
S11326E08A811F928F9389811F928F9388811F9271
S11326F08F9381EC91E09F938F930E94D32A8091D2
S1132700D7059091D805A091D905B091DA054881F3
S113271059816A817B81482359236A237B238095CD
S11327209095A095B095842B952BA62BB72B8093D1
S1132730DB059093DC05A093DD05B093DE058DB732
S11327409EB70A960FB6F8949EBF0FBE8DBFDF9159
S1132750CF910895CF93DF9382E290E00E943513E6
S11327604FEF5FEF6FEF70E082E290E00E94A71DF1
S1132770C7EDD5E0688379838A839B838B811F921D
S11327808F938A811F928F9389811F928F9388815F
S11327901F928F9386EA91E09F938F930E94D32A8E
S11327A088819981AA81BB814091CF055091D00540
S11327B06091D1057091D205482359236A237B2364
S11327C080959095A095B095842B952BA62BB72B2F
S11327D08093DB059093DC05A093DD05B093DE05C3
S11327E08DB79EB70A960FB6F8949EBF0FBE8DBFE5
S11327F0DF91CF91089586E290E00E94351340EC7A
S113280058EA60E071E086E290E00E94A71DE3EDE3
S1132810F5E0608371838283938383811F928F9316
S113282082811F928F9381811F928F9380811F9247
S11328308F9389E891E09F938F930E94D32A8DB759
S11328409EB70A960FB6F8949EBF0FBE8DBF08952B
S113285068E073E08CE291E00E94510F65ED79E14C
S113286080E590E00E94A81E08959DE0899FF001F4
S11328701124DF01A25DBC4F8C91817EEA5DFC4F87
S1132880138212821182108283608F7D8C9388E080
S113289093E0958384838EEB90E09287818789EB24
S11328A090E09487838780EA90E0978386830895F5
S11328B02F923F924F925F926F927F928F929F924C
S11328C0AF92BF92CF92DF92EF92FF920F931F933A
S11328D0CF93DF93982E80919E03807FA82EB12CF6
S11328E0B594A794B594A794350122E2620E711CA5
S11328F06DE873E0C30180599C4F0E94592E892BC7
S113290049F03DE0939EF0011124E25DFC4F80818B
S113291080628083092D10E04DE0949EF001112423
S1132920EA5DFC4F0680F781E02D8081882309F45D
S113293067C0C301E0E7F3E0208930E0322F2227AB
S11329404189240F311D2E5D3F4F2A193B09621620
S1132950730608F055C0E501CE56DC4F4DE0409FAC
S1132960F001419FF00D1124DF01A25DBC4F7D01F8
S1132970EA5DFC4FBF016C5F7F4F0F2EF8E04F2ED6
S1132980F3E05F2EF02D36960F2EF0EACF2EF0E016
S1132990DF2EF02DD7014C9140FD1CC08880DB0157
S11329A02D903C901197A1014F5F5F4F4D935C9325
S11329B0D1014C91841619F0DB014D925C92DB013C
S11329C04D915C91DA014C91411104C0D7014C91B5
S11329D041604C938990A081B181AD014F5F5F4FFD
S11329E0518340834C91841611F0D182C082A0811E
S11329F0B1814C91442321F001968217930750F240
S1132A008DE0809FF001819FF00D1124E25DFC4F69
S1132A10808180FF8EC08DE0809FF001819FF00D4A
S1132A201124E25DFC4F808185FF83C0E0E7F3E081
S1132A30208930E0322F22278189280F311D2E5D15
S1132A403F4F2A193B096216730608F072C0C5018C
S1132A508E569C4F4DE0409FD001419FB00D1124F4
S1132A60AA5DBC4FFD0139964EEB50E01B960F2E2C
S1132A70F9EBEF2EF0E0FF2EF02DEC01D990CE0112
S1132A80C081D181BE016F5F7F4F71836083688194
S1132A90D61611F051834083C081D18168816111C0
S1132AA01BC0EC016881623451F0633471F061340D
S1132AB089F4609196016F5F609396010BC06091F9
S1132AC096016E5F6093960105C0609196016C5FFC
S1132AD06093960151834083CD91DC911197BE019F
S1132AE06F5F7F4F11967C936E936881D61619F0B1
S1132AF01196FC92EE92CD91DC911197688161114F
S1132B0011C08DE0809FF001819FF00D1124E25DE2
S1132B10FC4F80818F7D8083809196018BBB1092C6
S1132B20960107C0DFEF6D1A7D0A6216730608F47A
S1132B30A4CF8DE0809FF001819FF00D1124EA5D08
S1132B40FC4F82819381892B09F0DBC0A0E7B3E0BD
S1132B509E96EC919E97E07FF0E0F595E795F595CC
S1132B60E795CF01879650962C91509730E0322FFD
S1132B70222751964C91240F311D2E5D3F4F2E1B61
S1132B803F0B82179307A8F4DC01A059BC4F4C916A
S1132B904D3049F403C041914D3039F4FC01E05902
S1132BA0FC4F108206C0E856FC4F0196821793072B
S1132BB090F38DE0809FF001819FF00D1124EA5D78
S1132BC0FC4F13821282C090C300D090C400C11481
S1132BD0D10409F496C080919E03807FE82EF12CE5
S1132BE0C70195958795959587959C012E563C4FE1
S1132BF07901C0E0D0E0B12CB601C7010E94342EA7
S1132C00892B09F46EC067E371E0C6010E94342E7B
S1132C10892B69F08DE0809FF001819FF00D1124D4
S1132C20E25DFC4F8081817F8860808347C06CE7D0
S1132C3071E0C6010E94342E892B69F08DE0809FDB
S1132C40F001819FF00D1124E25DFC4F8081817FB2
S1132C508A60808333C06DE571E0C6010E94342E22
S1132C60892B69F08DE0809FF001819FF00D112484
S1132C70E25DFC4F8081817F826080831FC068E6B3
S1132C8071E0C6010E94342E892B69F08DE0809F8B
S1132C90F001819FF00D1124E25DFC4F8081817F62
S1132CA0866080830BC08DE0809FF001819FF00DD2
S1132CB01124E25DFC4F8081817F80838DE0809FC1
S1132CC0F001819FF00D1124EA5DFC4FCC0FDD1F54
S1132CD0CC0FDD1FCD53DF4F8A819B819383828389
S1132CE010C0B394CB2DD0E0FE01EE0FFF1FEE0F0A
S1132CF0FF1FED53FF4FC080D180C114D10409F0F0
S1132D007BCF8DE0809FF001819FF00D1124EA5D5F
S1132D10FC4F0680F781E02D808181110BC08DE08E
S1132D20809FF001819FF00D1124E25DFC4F8081B2
S1132D3085FF14C086E1809FE001819FD00D11249E
S1132D40C258DD4F80E1888B692D80E090E00E94BD
S1132D509D2381E090E09A8B898B34C18DE0809F24
S1132D60F001819FF00D1124E25DFC4F808180FD14
S1132D703BC086E1809FF001819FF00D1124E25851
S1132D80FD4F808983FF30C08DE0809FF001819FDB
S1132D90F00D1124EA5DFC4F82E993E09383828372
S1132DA080919E03807F90E0959587959595879572
S1132DB041E850E06FEE74E08E569C4F0E94F02D77
S1132DC086E1809FE001819FD00D1124C258DD4F20
S1132DD088E1888B692D81E890E00E949D2382E040
S1132DE090E09A8B898BEEC08DE0809FF001819FEB
S1132DF0F00D1124EA5DFC4F82819381892BE1F46B
S1132E00E5EAF0E0828993890196938B828B8DE0C9
S1132E10809FF001819FF00D1124DF01AA5DBC4F5A
S1132E2089E195E113969C938E931297E25DFC4F92
S1132E308081817F8260808386E1809FF001819F11
S1132E40F00D1124E258FD4F82E090E0928B818BCB
S1132E508DE0809FF001819FF00D1124E25DFC4F15
S1132E60808186958770833009F48DC028F4882387
S1132E7051F0813041F1A6C0843009F444C085305A
S1132E8009F461C09FC080919E03807F90E0959576
S1132E9087959595879548E550E069EC75E08E56E1
S1132EA09C4F0E94F02D86E1809FF001819FF00DE0
S1132EB01124E258FD4F88E1808B692D88E590E06C
S1132EC00E949D237FC080919E03807F90E0959512
S1132ED087959595879547E550E061E775E08E56AF
S1132EE09C4F0E94F02D86E1809FF001819FF00DA0
S1132EF01124E258FD4F88E1808B692D87E590E02D
S1132F000E949D235FC080919E03807F90E09595F1
S1132F1087959595879548E550E066E974E08E5667
S1132F209C4F0E94F02D86E1809FF001819FF00D5F
S1132F301124E258FD4F88E1808B692D88E590E0EB
S1132F400E949D233FC080919E03807F90E09595D1
S1132F5087959595879547E750E06EE174E08E5626
S1132F609C4F0E94F02D86E1809FF001819FF00D1F
S1132F701124E258FD4F88E1808B692D87E790E0AA
S1132F800E949D231FC080919E03807F90E09595B1
S1132F9087959595879546E750E067EA73E08E56E6
S1132FA09C4F0E94F02D86E1809FF001819FF00DDF
S1132FB01124E258FD4F88E1808B692D86E790E06B
S1132FC00E949D23DF91CF911F910F91FF90EF906D
S1132FD0DF90CF90BF90AF909F908F907F906F9035
S1132FE05F904F903F902F9008954F925F926F9211
S1132FF07F928F929F92AF92BF92CF92DF92EF9285
S1133000FF920F931F93CF93DF93CDB7DEB72A9729
S11330100FB6F894DEBF0FBECDBF582E682E712CAC
S11330202DE0829FF0011124E25DFC4F808180FD40
S11330300CC08DE0869DF001879DF00D1124EA5DA2
S1133040FC4F82E993E09383828386E1869DF001BD
S1133050879DF00D1124E258FD4F808981110CC029
S11330608DE0869DF001879DF00D1124EA5DFC4FF3
S113307080819181938382838DE0869DF001879D79
S1133080F00D1124EA5DFC4F82819381918380834A
S113309000E010E02DE0269DC001279D900D112435
S11330A0AC01485D5C4F6A0188248394912C412CC7
S11330B0F601E080F180B7016F5F7F4F7183608319
S11330C0F70184915801F6E3AF0EB11CF501E05904
S11330D0FC4F8083853209F03CC143E050E08CE32F
S11330E091E00E94002E892BB1F5F7013496E4910A
S11330F0EE0FE0568E2F880F880F8E0FF70135964E
S1133100E491E80FE053F0E0EE0FFF1FEB55FF4FA3
S11331104AE0BE016F5F7F4F808191810E94BE2E85
S11331206AE070E0CE0101960E94902E7C01FF249B
S1133130A701BE016F5F7F4FC50180599C4F0E945C
S1133140182E015011090E0D1F1DF6018081918169
S1133150059691838083F601E080F18044E050E09D
S1133160B70180E491E00E94002E892B09F066C02B
S1133170F7013596E49180ED8E0FF7013496E491D2
S1133180E23499F018F4E13431F02DC0E334B9F0AD
S1133190E434F9F028C02BB3A40102C0440F551F36
S11331A08A95E2F7CA0182231FC028B3F40102C042
S11331B0EE0FFF1F8A95E2F7CF01822315C025B3D6
S11331C0A40102C0440F551F8A95E2F7CA01822365
S11331D00BC022B3F40102C0EE0FFF1F8A95E2F781
S11331E0CF01822301C0842D882339F065E873E080
S11331F0CE0101960E94F92D06C063E873E0CE016A
S113320001960E94F92D6AE070E0CE0101960E94B9
S1133210902E7C01FF24A701BE016F5F7F4FC80180
S11332208A559C4F0E94182E015011090E0D1F1D26
S1133230F60180819181069691838083F601E08076
S1133240F18043E050E0B70185E491E00E94002E54
S1133250892B09F066C0F7013496E49180ED8E0F56
S1133260F7013396E491E23499F018F4E13431F043
S11332702DC0E334B9F0E434F9F028C029B3A40133
S113328002C0440F551F8A95E2F7CA0182231FC06A
S113329026B3F40102C0EE0FFF1F8A95E2F7CF01B7
S11332A0822315C023B3A40102C0440F551F8A957D
S11332B0E2F7CA0182230BC020B3F40102C0EE0F6F
S11332C0FF1F8A95E2F7CF01822301C0842D882352
S11332D039F069E773E0CE0101960E94F92D06C02A
S11332E06EE673E0CE0101960E94F92D6AE070E06B
S11332F0CE0101960E94902E7C01FF24A701BE01FD
S11333006F5F7F4FC8018A559C4F0E94182E015051
S113331011090E0D1F1DF60180819181059691837F
S11333208083F6016081718143E050E089E491E09B
S11333300E94002E892B69F486E1869DF001879D09
S1133340F00D1124E258FD4F8DEF9FEF928B818B8E
S113335007C00F5F1F4F0C38F1E01F0708F4A8CE19
S113336086E1869DF001879DF00D1124E258FD4F02
S113337088E1808B652DC8010E949D232A960FB693
S1133380F894DEBF0FBECDBFDF91CF911F910F9197
S1133390FF90EF90DF90CF90BF90AF909F908F9071
S11333A07F906F905F904F9008950F931F93CF93EA
S11333B0082F10E026E1829FF0011124E258FD4F0E
S11333C0908990FD64C0C82F86E1809FF001819FA1
S11333D0F00D1124E258FD4F81899289019719F467
S11333E0802F0E94351486E1809FF001819FF00DAB
S11333F01124E258FD4F81899289039720F48C2F80
S11334000E94581444C086E1809FF001819FF00D12
S11334101124E258FD4F818992890397E0F086E1F7
S1133420809FF001819FF00D1124E258FD4F8189A6
S113343092898E3F9F4F78F486E1809FF001819FAF
S1133440F00D1124E258FD4F8089803121F48C2F36
S11334500E94F5171CC086E1809FF001819FF00D4A
S11334601124E258FD4F818992898E3F9F4F78F055
S113347086E1809FF001819FF00D1124E258FD4FF9
S11334808EEF9FEF928B818B8C2F0E943A24CF91E9
S11334901F910F91089587E08ABB86E084BB11BA1F
S11334A060E875E280E090E00E94982A86E09EE160
S11334B09F938F930E94D32A8EED9DE19F938F93C8
S11334C00E94D32A8BEB9DE19F938F930E94D32A72
S11334D00F900F900F900F900F900F9080E492E454
S11334E0AFE0B0E000000197A109B109D9F70E944B
S11334F0F21D0E9428140E948B288BB780628BBF18
S11335007894EFECF5E083811F928F9382811F9270
S11335108F9381811F928F9380811F928F9382EA70
S11335209DE19F938F930E94D32AE7EDF5E0838179
S11335301F928F9382811F928F9381811F928F9309
S113354080811F928F938BE89DE19F938F930E94BC
S1133550D32AE3EDF5E083811F928F9382811F923A
S11335608F9381811F928F9380811F928F9384E721
S11335709DE19F938F930E94D32A8DB79EB74E9659
S11335800FB6F8949EBF0FBE8DBF0F2EF1E7EF2E3E
S1133590FDE1FF2EF02D0F2EFDE5CF2EFDE1DF2EF8
S11335A0F02D0F2EF7E66F2EFDE17F2EF02DC9ECE6
S11335B0D5E005E41DE10E949A278091C70180FFB0
S11335C01EC0FF92EF920E94D32A88EC91E00E94E1
S11335D0D1120F900F90882339F07F926F920E943E
S11335E0D32A0F900F9006C0DF92CF920E94D32A65
S11335F00F900F908091C7018E7F8093C7010E9426
S113360092288D818823C9F08B811F928F938A81A0
S11336101F928F9389811F928F9388811F928F931A
S11336201F930F930E94D32A1D828DB79EB70A96CB
S11336300FB6F8949EBF0FBE8DBF80910403909186
S11336400503A0910603B091070388169906AA06FC
S1133650BB0609F4B0CF8090040390900503A090BA
S11336600603B09007030E94641DA5CF019728F0BC
S11336700000000000000000F9CF0895C3988F7186
S1133680806A8FB9779BFECF6FB9779BFECFC39AC1
S11336900895C3988F7180688FB9779BFECF6FB9F7
S11336A0779BFECFC39A0895FF920F931F93CF93F6
S11336B0DF93C82FD82FDF71DA31E8F4082F0076B2
S11336C010E015950795159507951595079515958A
S11336D007951595079580919901081761F063E0A6
S11336E08FE10E943E1B002321F0602F8FE10E9496
S11336F0491B00939901C398DFB9779BFECF1FB88C
S1133700779BFECFCC231CF41FB8779BFECF8FB1E1
S1133710C39ADF91CF911F910F91FF900895FF926B
S11337200F931F93CF93DF93062F182F1F711A3116
S1133730E8F48076C82FD0E0D595C795D595C79580
S1133740D595C795D595C795D595C7958091990178
S1133750C81761F063E08FE10E943E1BCC2321F087
S11337606C2F8FE10E94491BC0939901C398106488
S11337701FB9779BFECF0FB9779BFECFC39ADF911A
S1133780CF911F910F91FF900895CF93DF93D62F80
S1133790C72F682F84ED0E948F1B6D2F86ED0E942A
S11337A08F1B6C2F87ED0E948F1B8AE090E00E9494
S11337B0361B8AEE0E94541B80FDFBCFDF91CF9114
S11337C00895FC01C3988AE38FB9779BFECF6115F6
S11337D0710551F06E0F7F1F1FB8779BFECF8FB11D
S11337E08193E617F707C1F7C39A0895C3982AE7A8
S11337F02FB9779BFECF6115710551F0FC01680F5D
S1133800791F91919FB9779BFECF6E177F07C9F7F8
S1133810C39A0895CF92DF92EF92FF920F931F9372
S1133820CF93DF931F92CDB7DEB77C016B01198272
S113383004E610E08FE10E94541B83FF07C088EE6A
S113384093E00E94361B01501109A1F78FE10E94F9
S1133850541B83FF08C060E88FE10E94491B60E8A5
S11338608FE10E943E1B60E082E00E948F1B6AE1B0
S113387083E00E948F1B6E2D86E00E948F1BC70180
S1133880965E692F87E00E948F1B61E070E0CE0195
S113389001960E94F61BB701C6010E94F61B68E060
S11338A08CE10E943E1B68E08FE10E94491B0F904F
S11338B0DF91CF911F910F91FF90EF90DF90CF9008
S11338C008950F931F93CF93DF93BB9AC39A87B343
S11338D0806A87BBC79ABE98BC9A80E58DB981E09F
S11338E08EB980E197E20E94361BC3988FEF8FB99F
S11338F0779BFECFC39A88EE93E00E94361B8DE13E
S11339000E94541B80FFFBCF82E70E94541B8093CC
S11339109A01EAE6F3E0108280E2818388E18283FF
S113392081EB838385E184838FE6858300E010E067
S1133930F801E95EF14E84910E5F1F4FE801F80132
S1133940EA5EF14E64918F3F11F46F3F19F00E94CB
S11339508F1BEECFC95ED14EFE01849131966491E6
S11339608F3F11F46F3F59F070E0762F6627FE0108
S11339703296E4916E2B0E94C51B2396EDCF1092D4
S113398098011092970160EC8BE10E948F1B64E018
S11339908FE10E94491BDF91CF911F910F910895F0
S11339A0CF92DF92EF92FF920F931F93CF93DF9307
S11339B000D000D000D0CDB7DEB78C016B0189E315
S11339C00E94541B882309F46EC060919701709182
S11339D0980180E00E948F1B80919701909198013B
S11339E0692F81E00E948F1B66E070E0CE01019692
S11339F00E94E11B898190E0909398018093970144
S1133A0080919701909198012A81922B909398012B
S1133A1080939701EB808C81F12CF82A8D812E8183
S1133A2090E0922B87FF05C099231CF00E151F050B
S1133A3010F40E94611C24E0E21AF108E016F10679
S1133A4008F48701B801C6010E94E11B8091970127
S1133A5090919801019781159A41B0F48091970152
S1133A6090919801609197017091980161508CE058
S1133A700E948F1B80919701909198010197692F63
S1133A808DE00E948F1B08C06FEF8CE00E948F1B9B
S1133A9069E18DE00E948F1B60E48EE10E94491B66
S1133AA0802F912F02C080E090E026960FB6F89404
S1133AB0DEBF0FBECDBFDF91CF911F910F91FF905D
S1133AC0EF90DF90CF90089580EC0E94541B8D30CE
S1133AD031F482EC0E94541B8273823311F00E94F1
S1133AE0611C0895CF92DF92EF92FF920F931F9380
S1133AF0C92EDD24EE24FF24362F22271127002788
S1133B000C0D1D1D2E1D3F1D6B017C01CC24DD24DD
S1133B10FF24CD2CDE2CEF2CFF240C0D1D1D2E1D9F
S1133B203F1DDC01CB018827AA27BB27BA2FA92F69
S1133B30982F8827BC01CD01600F711F821F931F2E
S1133B401F910F91FF90EF90DF90CF9008958F9287
S1133B509F92AF92BF92CF92DF92EF92FF920F9318
S1133B601F93CF93DF9300D000D0CDB7DEB7842E60
S1133B70952EA62EB72E9E012F5F3F4F6E0145E076
S1133B80C40ED11C89017C01E21AF30AE199FECF2B
S1133B90C701800F911F0E94FE2EF80181938F01AF
S1133BA0EC15FD0599F769817A818B819C816F3FC2
S1133BB0FFEF7F078F079F0721F4682D792D8A2D4A
S1133BC09B2D0F900F900F900F90DF91CF911F912D
S1133BD00F91FF90EF90DF90CF90BF90AF909F90A8
S1133BE08F9008950F931F93CF93DF930E944C2AD5
S1133BF040EC58EA60E073E68EE190E00E94A71D75
S1133C00CFECD5E0688379838A839B834FEF5FEFA2
S1133C106FEF70E082E290E00E94A71D07ED15E0CF
S1133C20F801608371838283938340EC58EA60E0F7
S1133C3071E086E290E00E94A71D6093D305709323
S1133C40D4058093D5059093D605F80180819181A0
S1133C50A281B381488159816A817B814823592398
S1133C606A237B2380959095A095B095842B952B02
S1133C70A62BB72B8093DB059093DC05A093DD0581
S1133C80B093DE05EAE6F3E0108280E2818388E106
S1133C90828381EB838385E184838FE685830E941D
S1133CA0611CDF91CF911F910F91089580E090E006
S1133CB0FC01EE0FFF1FE80FF91FEE0FFF1FEE0FC1
S1133CC0FF1FE45DFD4F22853385232B01F59C0105
S1133CD0220F331FF901E80FF91FEE0FFF1FEE0F3C
S1133CE0FF1FE45DFD4F1082118212821382148241
S1133CF01582F901E80FF91FEE0FFF1FEE0FFF1FEA
S1133D00E45DFD4F16821782108611861BC09C014C
S1133D10220F331FF901E80FF91FEE0FFF1FEE0FFB
S1133D20FF1FE45DFD4F4285538541505109F90160
S1133D30E80FF91FEE0FFF1FEE0FFF1FE45DFD4FAD
S1133D405387428701968530910509F0B1CF0895D4
S1133D50DC012091B1013091B201232B91F090E06C
S1133D609F5F292F30E0F901EE0FFF1FEE0FFF1FB9
S1133D70EF54FE4F40815181452B91F7953018F057
S1133D80089520E030E0220F331F220F331FF90182
S1133D90EF54FE4FB183A0837383628308951F920F
S1133DA00F920FB60F9211248F9380916802816055
S1133DB08093680210920303109202038BB78F7DE5
S1133DC08BBF8F910F900FBE0F901F9018954F923D
S1133DD05F926F927F928F929F92AF92BF92CF9297
S1133DE0DF92EF92FF92E0E7F3E024853585828C41
S1133DF0938CA48CB58CC48CD58CE68CF78C80E029
S1133E0090E0283046E0340709F046C0AC01FC01DC
S1133E10EE0FFF1FE80FF91FEE0FFF1FEE0FFF1F3E
S1133E20E45DFD4F46805780608471844C145D04CA
S1133E306E047F0409F079C0E6E7F3E080E090E0E7
S1133E409A01220F331F240F351F220F331F220F15
S1133E50331F245D3D4F6191D901A80FB91F6C93A5
S1133E60019686309105B9F7FA01EE0FFF1FDF01C5
S1133E70A40FB51FAA0FBB1FAA0FBB1FA45DBD4F84
S1133E801696CD92DD92ED92FC921997FD0184E68F
S1133E9090E093878287F7C02830310509F045C048
S1133EA0AC01FC01EE0FFF1FE80FF91FEE0FFF1F1F
S1133EB0EE0FFF1FE45DFD4F4680578060847184E0
S1133EC0481459046A047B0481F5E6E7F3E080E0D2
S1133ED090E09A01220F331F240F351F220F331F46
S1133EE0220F331F245D3D4F6191D901A80FB91FE3
S1133EF06C93019686309105B9F7FA01EE0FFF1F16
S1133F00DF01A40FB51FAA0FBB1FAA0FBB1FA45D1F
S1133F10BD4F16968D929D92AD92BC921997FD015C
S1133F2084E690E093878287AEC001968530910540
S1133F3009F067CF8091320290913302A09134024C
S1133F40B0913502892B8A2B8B2B09F494C081E024
S1133F5090E0AC01FC01EE0FFF1FE80FF91FEE0F1C
S1133F60FF1FEE0FFF1FE45DFD4F46805780608406
S1133F70718445284628472809F077C0283086E010
S1133F803807C9F502C040E050E0E6E7F3E080E01E
S1133F9090E0BA01660F771F640F751F660F771FD5
S1133FA0660F771F645D7D4F2191DB01A80FB91F58
S1133FB02C93019686309105B9F7CA01880F991F91
S1133FC0FC01E40FF51FEE0FFF1FEE0FFF1FE45D72
S1133FD0FD4FC682D782E086F186FC01E40FF51F0F
S1133FE0EE0FFF1FEE0FFF1FE45DFD4F84E690E030
S1133FF09387828748C02830310509F044C0E6E73A
S1134000F3E080E090E09A01220F331F240F351F64
S1134010220F331F220F331F245D3D4F6191D901BD
S1134020A80FB91F6C93019686309105B9F7CA01A0
S1134030880F991FFC01E40FF51FEE0FFF1FEE0F11
S1134040FF1FE45DFD4F86829782A086B186FC0146
S1134050E40FF51FEE0FFF1FEE0FFF1FE45DFD4F92
S113406084E690E0938782870EC00196853091059F
S113407009F06FCF08C0283046E0340709F483CF35
S113408040E050E0B8CFFF90EF90DF90CF90BF902A
S1134090AF909F908F907F906F905F904F90089516
S11340A0CF92DF92EF92FF926B017C0180913202FA
S11340B090913302A0913402B0913502C816D9060A
S11340C0EA06FB06F1F021E030E0822FF901EE0F61
S11340D0FF1FE20FF31FEE0FFF1FEE0FFF1FE45D44
S11340E0FD4F46815781608571854C155D056E05D0
S11340F07F0541F02F5F3F4F2530310531F785E0D3
S113410001C080E0FF90EF90DF90CF900895CF93AF
S1134110DF93D82FC92FCB01BA010E9450208530DC
S1134120F9F0ED2FFC2FAAE6B3E020E030E090E0B8
S1134130AC01440F551F840F951F880F991F880FDA
S1134140991F845D9D4FEC01C20FD31F4881419399
S11341504D9145832F5F3F4F26303105A1F70DC0A8
S1134160ED2FFC2FAAE6B3E020E733E09FEF919315
S11341708D918583A217B307D1F7DF91CF9108956D
S1134180CF93DF9380917E0390917F0381159140BB
S113419009F08AC08091800390918103089709F007
S11341A083C080918203863009F07EC080918303AE
S11341B0843009F079C0409196035091970360913F
S11341C09803709199038091CF059091D005A091A7
S11341D0D105B091D205481759076A077B0709F042
S11341E063C08091840390918503811521E0920737
S11341F009F055C00E94E71EC0E7D3E04C8D5D8DE9
S11342006E8D7F8DCE010E94872088E096E09D8789
S11342108C876C8D7D8D8E8D9F8D0E945020853076
S1134220F0F4AAE6B3E0E6E8F3E020E030E090E062
S1134230AC01440F551F840F951F880F991F880FD9
S1134240991F845D9D4FEC01C20FD31F48814287A3
S11342504D9141932F5F3F4F26303105A1F7E0E7A1
S1134260F3E080E092E0958B848B848D958DA68D10
S1134270B78D86A397A3A0A7B1A78091CF059091EE
S1134280D005A091D105B091D205848F958FA68FCA
S1134290B78FBF018CE390E00E940A1C05C0811512
S11342A0924011F40E94E71EDF91CF9108950F937D
S11342B01F93CF9389019A0162307105E0F0FC01EC
S11342C0DB01408150E0542F4427C1814C0F511D24
S11342D0040F151F211D311D12973296A230B1050E
S11342E080F7AB01425051094E7F4E5F5F4F840F00
S11342F0951F61707727672B49F0FC01808190E05E
S1134300982F8827080F191F211D311DD901C801B5
S1134310AA27BB27890122273327080F191F2A1F21
S11343203B1FD901C801AA27BB27890122273327AC
S1134330080F191F2A1F3B1FC80180959095CF9124
S11343401F910F910895CF92DF92EF92FF92CF9336
S1134350DF93EC016A017B010E94872088E090E0F2
S11343609D878C8780919B0190919C0101969093ED
S11343709C0180939B0120E430E03D8B2C8B20E852
S11343802E8B9827892798279B8B8A8B85E48E8789
S11343901F86CE8EDF8EE8A2F9A28091CF05909180
S11343A0D005A091D105B091D2058A8F9B8FAC8F97
S11343B0BD8F198E188E20E030E0A90164E170E011
S11343C0CE010E960E945721982789279827998F06
S11343D0888FDF91CF91FF90EF90DF90CF90089579
S11343E0EF92FF920F931F93CF93DF93C0E7D3E035
S11343F04AA32BA3FFA2EEA219A708A71DA21CA2E1
S113440020E034E5398B288B21E02F8BAB01BC01F4
S1134410CE010E94A32168897989762767277627A8
S11344208E858F7094E0899F60197109112420E0B2
S113443030E0A90182E993E00E9457219827892757
S113444098279DA38CA3BE0182E690E00E940A1CDB
S1134450DF91CF911F910F91FF90EF900895CF922C
S1134460DF92EF92FF92CF93DF93DC015A96CD90C7
S1134470DD90ED90FC905D9720E030E096E1E9015D
S1134480929FF001939FF00D1124E258FD4F40815B
S11344905181628173814C155D056E057F0509F0BC
S11344A06EC0929FF001939FF00D1124E258FD4FCE
S11344B06481758192964D915C9193976417750709
S11344C009F05DC09A964D915D916D917C919D9797
S11344D086E1829FF001839FF00D1124E258FD4F85
S11344E0408751876287738796964D915D916D9150
S11344F07C91999744875587668777879F968C9197
S11345009F97808B83898F3F51F086E1829FF001D2
S1134510839FF00D1124E258FD4F83E0838B509666
S1134520CD90DC905197DC24CD24DC2484E1C81A9E
S1134530D1089E968C91807F90E09595879595956E
S11345408795C81AD90AE12CF12C26E12C9FC001C9
S11345502D9F900D1124EC01C258DD4F6C857D8593
S11345608E859F850E94721D6C0D7D1D8E1D9F1D65
S11345700E94721D6C877D878E879F876BC02F5F1B
S11345803F4F2530310509F07ACF40917E0250919A
S11345907F026091800270918102452B462B472B4C
S11345A0A9F021E030E0C6E1C901C29FF001C39F38
S11345B0F00D1124E258FD4F4081518162817381D5
S11345C0452B462B472B09F03FC002C080E090E00A
S11345D046E1489F9001499F300D1124F901E258AA
S11345E0FD4FC082D182E282F38292968D919C919A
S11345F093979583848394968D919C9195979783B3
S113460086839A964D915D916D917C919D9740879B
S113461051876287738796964D915D916D917C91D8
S1134620999744875587668777879F968C91808B67
S1134630128A118A83E0838B148AF901ED56FD4FA7
S113464080818E7F808306C02F5F3F4F25303105E8
S113465009F0AACFDF91CF91FF90EF90DF90CF9038
S11346600895CF92DF92EF92FF92CF93DF936B0185
S11346707C01EA0120E030E056E1529FF001539FB3
S1134680F00D1124E258FD4F80819181A281B38104
S11346908C159D05AE05BF0561F4529FF001539F33
S11346A0F00D1124E258FD4F848195818C179D07EC
S11346B039F02F5F3F4F25303105F9F685E001C011
S11346C0822FDF91CF91FF90EF90DF90CF900895EC
S11346D080919D0190919E01009771F160919403E6
S11346E07091950376276727762786179707A1F099
S11346F080E08F5F482F50E0FA01EE0FFF1FEE0FAE
S1134700FF1FE356FE4F2081318121153105A1F0B1
S11347102617370771F702C040E050E0672B61F0BD
S1134720440F551F440F551FFA01E356FE4F0280F4
S1134730F381E02D80E009950895CF92DF92EF9206
S1134740FF920F931F93CF93DF938C01C62ED12C2E
S113475026E1629FE0011124C258DD4F8E819F81C2
S11347600F2EF0E7EF2EF3E0FF2EF02DF70193A3C9
S113477082A38C819D8195A384A315AA14AA81E0A8
S113478094EF91AB80AB80E586A76C857D858E85A3
S11347909F850E94721D2889F70127A7288921FF78
S11347A010C06F5F7F4F8F4F9F4F22E026AB24E0F6
S11347B027AB21E020AF24EF21AF20E626A704E0B9
S11347C010E00E94721DC0E7D3E06AA77BA78CA704
S11347D09DA726E12C9DC0012D9D900D11249C01C7
S11347E022583D4F7901F90180859185A285B385D1
S11347F08EA39FA3A8A7B9A7C8018896982789273D
S11348009827998B888B86E08F8B408151816281B8
S11348107381CE010E94A3211BAA1AAA68897989EF
S1134820762767277627685F7F4F8E858F70F4E041
S11348308F9F6019710911249B012250310940E0B6
S113484050E08AE893E00E94572198278927982707
S11348509BAB8AABBE01C801C6960E940A1CF70135
S1134860108ADF91CF911F910F91FF90EF90DF900D
S1134870CF90089596E1899FF0011124E258FD4FED
S11348802FEF3FEF328B218B91E1908B682F80E0EB
S113489090E00E949D230895CF93DF93682F70E0EA
S11348A096E1899FF0011124E258FD4F268137815A
S11348B03227232732274091B1015091B201421788
S11348C05307F9F0E1EBF1E021E030E096E1969F47
S11348D0D001979FB00D1124AC57BD4F922FE90121
S11348E0648175814D915C9111972F5F3F4F349690
S11348F05427452754276417750781F7953018F016
S11349000BC0C0E0D0E0CC0FDD1FCC0FDD1FCF54B7
S1134910DE4FEA81FB810995DF91CF9108958630BE
S113492070F596E1899FF0011124DF01A258BD4F73
S11349301D921D921D921C92139715961C921E9205
S1134940149717961C921E92169718961D921D92F4
S11349501D921C921B971C961D921D921D921C92D7
S11349601F9750961C92509752961C921E925197E4
S113497053961C92ED56FD4F80818E7F808308955F
S1134980EF92FF920F931F93CF93DF93C0E0D0E099
S113499016E103E00F2EF4E1FF2EF02D9E011C9F83
S11349A0F0011D9FF00D1124E258FD4F8389811100
S11349B038C01C9FF0011D9FF00D1124E258FD4FDB
S11349C080819181A281B381892B8A2B8B2BE9F180
S11349D0129FF001139FF00D1124E258FD4F038B39
S11349E0848991E0980F948B8630B8F08BB78F7DD3
S11349F08BBF129FF001139FF00D1124E258FD4F5D
S1134A00F08A6C2F80E090E00E949D238BB7806237
S1134A108BBF8C2F0E948F2418C08C2F0E944C2493
S1134A2014C01C9FF0011D9FF00D1124E258FD4F8E
S1134A3083898F3F51F0129FF001139FF00D1124D1
S1134A40E258FD4F83898150838B2196C530D1056F
S1134A5009F0A4CFDF91CF911F910F91FF90EF90B8
S1134A600895CF92DF92EF92FF920F931F93CF930B
S1134A70DF938091B1019091B201009709F4C9C10B
S1134A804091940350919503542745275427841744
S1134A909507A9F080E08F5FC82FD0E0FE01EE0FEC
S1134AA0FF1FEE0FFF1FEF54FE4F208131812115B0
S1134AB0310509F4AEC12417350769F702C0C0E017
S1134AC0D0E0452B09F4A5C180919F03982F9271E2
S1134AD09231C9F580E793E00E942F22E0E7F3E0EA
S1134AE042A153A1628D738D848D958D0E943123D3
S1134AF0C82F853008F08DC126E1829F80011124E2
S1134B0002581D4F8EE1F801838B64857585868577
S1134B1097850E94721D6F5F7F4F8F4F9F4F0E943A
S1134B20721DF801648775878687978780E1808B7B
S1134B306C2F80E090E00E949D2381E090E0F801DA
S1134B40928B818B66C18230F9F480E793E00E94F6
S1134B502F22E0E7F3E042A153A1628D738D848D8F
S1134B60958D0E943123853008F053C126E1829F40
S1134B70F0011124E258FD4F92E1908B682F80E000
S1134B8090E00E949D2345C1E0E7F3E042A153A1D8
S1134B90628D738D848D958D0E943123182F8530FD
S1134BA0B8F180919F03857009F433C180E793E0E5
S1134BB00E942F22E12EF12C36E1139FE0011124F3
S1134BC0C258DD4F6C857D858E859F850E94721D40
S1134BD06F5F7F4F8F4F9F4F0E94721D6C877D8741
S1134BE08E879F87888980FF0FC086E18E9DF001A4
S1134BF08F9DF00D1124E258FD4F80E1808B612FD1
S1134C0080E090E00E949D23812F0E948F2401C1A7
S1134C1080E793E00E942F22C12ED12C86E1189FB9
S1134C20F0011124E258FD4F808980FD0BC086E11C
S1134C308C9DF0018D9DF00D1124E258FD4F80896B
S1134C4082FF34C026E12C9DC0012D9D900D1124BE
S1134C50FC01E258FD4F7F01648575858685978543
S1134C600E94721D6F5F7F4F8F4F9F4F0E94721D76
S1134C70F7016487758786879787808980FF12C0CC
S1134C80CC0FDD1FCC0FDD1FCF54DE4FEA81FB813B
S1134C90812F0995F70181E1808B612F80E090E0FD
S1134CA00E949D23812F0E948F24B3C086E18C9D96
S1134CB0F0018D9DF00D1124E258FD4F808983FF92
S1134CC03CC086E18C9DF0018D9DF00D1124E258CD
S1134CD0FD4F808984FF31C086E18C9DF0018D9D5C
S1134CE0F00D1124E258FD4F818992898E3F9F4F28
S1134CF068F486E18C9DF0018D9DF00D1124E2583D
S1134D00FD4F818992890196928B818B86E18C9DDE
S1134D10F0018D9DF00D1124E258FD4F88E1808B48
S1134D20FE01EE0FFF1FEE0FFF1FEF54FE4F028038
S1134D30F381E02D812F09956CC086E18C9DF001F3
S1134D408D9DF00D1124E258FD4F808984FF17C01A
S1134D5086E18C9DF0018D9DF00D1124ED56FD4FE3
S1134D60808180FD0CC086E18C9DF0018D9DF00D4D
S1134D701124ED56FD4F8081816080834AC086E115
S1134D808C9DF0018D9DF00D1124E258FD4F80891A
S1134D9084FF3FC086E18C9DF0018D9DF00D1124B0
S1134DA0ED56FD4F808180FF34C086E18C9DF0017B
S1134DB08D9DF00D1124E258FD4F81899289019651
S1134DC041F186E18C9DF0018D9DF00D1124E25896
S1134DD0FD4F80E1808B818992898E3F9F4F68F4DB
S1134DE086E18C9DF0018D9DF00D1124E258FD4F5C
S1134DF0818992890196928B818BFE01EE0FFF1FB0
S1134E00EE0FFF1FEF54FE4F0280F381E02D812F40
S1134E100995DF91CF911F910F91FF90EF90DF9053
S1134E20CF900895EF92FF920F931F9380917C038C
S1134E3090917D03883026E0920719F40E94C020E7
S1134E4074C0089709F071C080918E0390918F030C
S1134E50A0919003B09191034091CF055091D0055A
S1134E606091D1057091D20584179507A607B707FD
S1134E7009F042C00E94E71E80918703813089F5C2
S1134E8080919203882391F0883009F04EC0E0E7C6
S1134E90F3E0E6A0F7A000A511A5628D738D848DC3
S1134EA0958D20E040E00E94F0213FC04091C9056B
S1134EB05091CA056091CB057091CC0580918A030D
S1134EC090918B03A0918C03B0918D0348175907DF
S1134ED06A077B0751F5E9ECF5E0858181608583FC
S1134EE024C0863011F40E943125809187038131DA
S1134EF0E1F40E94682319C08F3F2FEF9207A207A5
S1134F00B20769F04091DB055091DC056091DD0545
S1134F107091DE0584179507A607B70731F48091D1
S1134F208703813111F40E9468231F910F91FF9030
S1134F30EF9008958091680281FF09C00E94C02407
S1134F400E94561E809168028D7F80936802809132
S1134F50680280FD0FC0089560E773E088E592E081
S1134F600E94D01C009731F0FC01E059FC4F1182E3
S1134F700E941227B29BF0CF809168028E7F8093AB
S1134F8068028BB780628BBF08958F929F92AF9215
S1134F90BF92CF92DF92EF92FF920F931F93CF9322
S1134FA0DF93CDB7DEB7AA970FB6F894DEBF0FBE76
S1134FB0CDBF6B017C018091CF059091D005A0916C
S1134FC0D105B091D2058C259D25AE25BF254091F4
S1134FD0D7055091D8056091D9057091DA058423DD
S1134FE09523A623B723892B8A2B8B2B49F0B090CA
S1134FF0D305A090D4059090D5058090D60504C023
S1135000BC2CAD2C9E2C8F2C88E096E09E878D873F
S11350104B2D5A2D692D782DCE0101960E948720A3
S11350208091CF059091D005A091D105B091D20582
S11350308D8F9E8FAF8FB8A3BFA2A8A699A68AA66C
S1135040AAE6B3E0FE0177969E01235E3F4F8D9161
S113505081931186E217F307D1F780E091E0988BF2
S11350608F8728E030E03A8B298B26E02B8B24E0D5
S11350702C8B9E8B8D8BBE016F5F7F4F8AE290E0FD
S11350800E940A1C14E1C701B6010E945020082F97
S11350906B2D7A2D892D982D0E945020853028F073
S11350A0053018F180E090E014C0053000F190E084
S11350B0FC01EE0FFF1FE80FF91FEE0FFF1FEE0FAD
S11350C0FF1FE45DFD4FC682D782E086F18681E052
S11350D00FC000000196803127E29207D1F70E94A9
S11350E09A27115081F680E003C081E001C081E07D
S11350F0AA960FB6F894DEBF0FBECDBFDF91CF9155
S11351001F910F91FF90EF90DF90CF90BF90AF90E1
S11351109F908F9008956BE179E287E190E00E947F
S1135120A81E0895EF92FF920F931F93CF93DF93DE
S1135130C091E500D091E6008091670390916803E7
S1135140C817D90709F470C0809184029091850230
S11351508115974199F081E090E046E1682F8C0138
S1135160489FF001499FF00D1124E258FD4F26811C
S113517037812115374109F047C003C000E010E032
S113518060E08091690380FD4FC080916903816074
S1135190809369038091E3009091E4009093680305
S11351A080936703A6EAB3E080E090E00F2EF8EC6A
S11351B0EF2EF1E0FF2EF02D11C09F012F5F3F4F26
S11351C0309368032093670340814D9301962B52DB
S11351D0324021F4F0926803E0926703E0916703A0
S11351E0F0916803CE17DF0741F726E1209FE00125
S11351F0219FD00D1124C258DD4F28E1288B0E9435
S11352009D2383E08B8B10C001968530910509F0B6
S1135210A5CF06C08091C7018B7F8093C70104C0CE
S11352208091C70182FDF6CFDF91CF911F910F913D
S1135230FF90EF9008950F931F93CF93482F50E062
S113524096E1899FF0011124E258FD4F908990FF67
S113525006C08091C7018B7F8093C70119C1C82FF5
S113526086E1849FF001859FF00D1124E258FD4FE3
S113527081899289892B61F086E1849FF001859F61
S1135280F00D1124E258FD4F81899289019741F56F
S113529086E1849F8001859F100D112402581D4FC3
S11352A081E090E0F801928B818B46E150E06DE45F
S11352B07EE186EA93E00E94F02D6C2F86E190E077
S11352C00E949D238091C70184608093C7018091CF
S11352D069038E7F809369038FEFF801838BD8C0B5
S11352E086E1849FF001859FF00D1124E258FD4F63
S11352F081899289029708F486C086E1849FF0012F
S1135300859FF00D1124E258FD4F808983FF7BC0F7
S113531086E1849FF001859FF00D1124E258FD4F32
S113532082E090E0928B818B81899289029730F19F
S113533086E1849FF001859FF00D1124E258FD4F12
S1135340808984FF1BC08091690380FF17C086E1B8
S1135350849FF001859FF00D1124E258FD4F8FEFDB
S1135360838B80916703909168039093E40080930A
S1135370E300809169038E7F80936903E0E7F3E0A3
S1135380A6A5A07FB0E0B595A795B595A7959D0175
S11353902E5D3F4F808990E0982F88276189860F82
S11353A0911D82968A1B9B0B28173907E4F4AE568D
S11353B0BC4F5D9BFECF8D918CB92F5F3F4F808991
S11353C090E0982F88276189860F911D829666A5A3
S11353D0607F70E07595679575956795861B970B4B
S11353E02817390734F386E1849FF001859FF00D77
S11353F01124E258FD4F80E1808B6C2F80E090E017
S11354000E949D2345C086E1849FF001859FF00D95
S11354101124E258FD4F81899289029738F186E17F
S1135420849FF001859FF00D1124E258FD4F80897F
S113543084FF1CC08091690380FF18C086E1849FAB
S1135440F001859FF00D1124E258FD4F8FEF838BFF
S113545080916703909168039093E4008093E30044
S1135460809169038E7F8093690312C086E1849FD3
S1135470F001859FF00D1124E258FD4F80898111C0
S113548007C0809169038E7F809369030E949228EC
S1135490CF911F910F9108958EB58D608EBD1DBC67
S11354A01CBC83E89EE19BBD8ABD89B7806189BF2E
S11354B008951F920F920FB60F9211242F933F93CA
S11354C08F939F93AF93BF938091040390910503AF
S11354D0A0910603B09107030196A11DB11D80930D
S11354E0040390930503A0930603B09307038091EC
S11354F00203909103039C012F5F3F4F30930303FA
S113550020930203813B944018F0E0E0F0E009941A
S113551080916802826080936802BF91AF919F91ED
S11355208F913F912F910F900FBE0F901F90189560
S113553028E92AB9DC01CB01880F991FAA1FBB1FD8
S1135540880F991FAA1FBB1F9C01AD01220F331F97
S1135550441F551F220F331F441F551F60E072E183
S11355608AE790E00E94912C215029B98091C701CB
S11355708B7F8093C70108959091C70192FD03C06A
S11355805D9BFECF8CB90895CF93DF93EC018881A6
S1135590882331F021960E94BC2A89918111FBCF86
S11355A0DF91CF9108952F923F924F925F926F9225
S11355B07F928F929F92AF92BF92CF92DF92EF929F
S11355C0FF920F931F93CF93DF93CDB7DEB764970A
S11355D00FB6F894DEBF0FBECDBFFE01B9960191A0
S11355E011915F01812C212C612C512C712C0F2ED7
S11355F0F0E39F2EF02D6894442444F868943324F7
S113560033F801C0860178012FEFE21AF20AF8019B
S11356108491882309F4CFC0853209F09FC06801C2
S1135620F2E0CF0ED11CF7018491282F30E02053F3
S113563031092A30310508F09FC08B877C86CE0162
S11356400B960E94C92D882E0D5F1F4FF601849181
S1135650893609F4A4C028F48236A9F1833601F10D
S1135660D2CF833731F0883751F18F3661F623C0BA
S11356708601F5010190F081E02D22E0A20EB11C1B
S11356808081882309F4BFCF7F019FEFE91AF90ACB
S11356900E94BC2AF70181917F018111F9CFB3CF18
S11356A0680185010E5F1F4FF50180810E94BC2AAD
S11356B058018601A8CF68018601432D74C0680192
S11356C08601442D70C0F50180819181F2E0AF0E16
S11356D0B11C42E0522DBE016F5F7F4F0E94B32E7A
S11356E0FE013196862D952D01C0CA01AC014F5F94
S11356F05F4F21912111F9CF282D30E082179307B4
S11357003CF5881A282D30E01216130654F4FE01D5
S11357103B96CF01880D911D91928E179F07E1F75B
S113572002C0262D352DEBE0F0E0EC0FFD1FE20F5B
S1135730F31F1082BE016F5F7F4FCE010B960E9454
S11357407E2EBE01655F7F4FCE0101960E94892E99
S1135750CE0101960E94C42A872C55CF0E94BC2AF0
S1135760870151CFF5018081918122E0A20EB11C05
S1135770860142E0522DAFCF893699F030F482365B
S113578089F3833609F48DCF3DCF833709F470CF85
S1135790883709F495CF8F3609F034CF8DCF4AE09E
S11357A002C086014AE050E0F50180819181E2E087
S11357B0AE0EB11C90CF64960FB6F894DEBF0FBE48
S11357C0CDBFDF91CF911F910F91FF90EF90DF90AC
S11357D0CF90BF90AF909F908F907F906F905F908D
S11357E04F903F902F9008951F920F920FB60F92F3
S11357F011242F933F934F935F936F937F938F93D2
S11358009F93AF93BF93CF93EF93FF938091C7017F
S113581082FD54C0CCB18C2F0E94BC2A8091C70158
S113582080FF06C08091C70182608093C70167C072
S1135830C83089F48091C5019091C601892B09F47F
S11358405EC08091C5019091C60101979093C601F5
S11358508093C50154C0CD30D1F4E091C501F091DD
S1135860C601E953FE4F80818C3589F0E091C50172
S1135870F091C601E853FE4F10821092C6011092B7
S1135880C5018091C70181608093C70138C08091B0
S1135890C5019091C6018336910588F58091C501B3
S11358A09091C6019C012F5F3F4F3093C601209316
S11358B0C501FC01E853FE4FC08321C0E091E5001F
S11358C0F091E6008091E3009091E4000197E817DD
S11358D0F907A9F0CF0101969093E6008093E500C3
S11358E08CB180838091E5009091E6008B529240C8
S11358F031F488EC91E09093E6008093E500FF9109
S1135900EF91CF91BF91AF919F918F917F916F91C3
S11359105F914F913F912F910F900FBE0F901F9069
S11359201895A1E21A2EAA1BBB1BFD010DC0AA1FCC
S1135930BB1FEE1FFF1FA217B307E407F50720F0F4
S1135940A21BB30BE40BF50B661F771F881F991F6F
S11359501A9469F760957095809590959B01AC01B8
S1135960BD01CF010895A0E0B0E0E9EBFCE20C94A6
S11359702F2F5C016B017A016115710519F0FB0190
S113598091838083E114F10429F0C701029783977E
S113599008F0E5C0E5012196F5011081812F90E022
S11359A00E94E72D892B11F05E01F4CF1D3229F4FA
S11359B02196F501118101E007C01B3221F4E501B4
S11359C02296F501118100E0E114F10409F1F0E1FE
S11359D0EF16F10429F43FC010E3E114F10421F1BE
S11359E028E0E216F10401F154F4E2E0EE16F104C9
S11359F021F5812C912CA12CB0E4BB2E3EC0FAE001
S1135A00EF16F10439F020E1E216F104B1F430C0EC
S1135A10103319F1FAE0EF2EF12CACEC8A2E982C0D
S1135A20A82CACE0BA2E29C078E0E72EF12C812C0A
S1135A30912CA12CE0E1BE2E20C060E070E080E05B
S1135A4090E897010F2C000C440B550B0E94912CED
S1135A5049015A0112C0103359F488818F7D883569
S1135A6009F0BACF19812296026080E1E82EF12C68
S1135A70812C912CA12C68E0B62E40E060E070E00F
S1135A80CB0127010F2C000C66087708FE0150EDAE
S1135A90352E310E29E0231570F42FEB210F2A3116
S1135AA018F439EC332E06C02FE9210F2A3118F5EA
S1135AB029EA322E310E232D30E02E153F05DCF479
S1135AC047FD16C086169706A806B90670F0A3010E
S1135AD092010E94132F630D711D811D911D613070
S1135AE07105810520E8920710F04FEF01C041E0F5
S1135AF021961081CBCF202F2170C114D10471F0D5
S1135B00442329F02197F601D183C08307C001FF04
S1135B1019C02297F601D183C08314C047FF12C075
S1135B20222329F060E070E080E090E804C06FEF89
S1135B307FEF8FEF9FE722E230E03093E005209380
S1135B40DF0509C0222381F09095809570956195B9
S1135B507F4F8F4F9F4F462F372F282F12C040E083
S1135B6030E020E090E00DC097FFF5CF82E290E0B6
S1135B709093E0058093DF056FEF7FEF8FEF9FE752
S1135B80EACF642F732F822FCDB7DEB7E1E10C94F7
S1135B904B2FFC0188279927E89421912032E9F3BF
S1135BA0293010F02E30C8F32B3241F02D3239F465
S1135BB0689404C00E94C92E820F911D2191205324
S1135BC02A30C0F31EF4909581959F4F089591114A
S1135BD00C94EB2E803219F089508550C8F7089543
S1135BE0FB01DC0102C005900D9241505040D8F7F2
S1135BF00895FB01DC0105900D920020E1F7089562
S1135C00FB01DC014150504088F08D9181341CF03F
S1135C108B350CF4805E659161341CF06B350CF4AB
S1135C20605E861B611171F3990B0895881BFCCF8C
S1135C30FB01DC0102C001900D9241505040D8F7A5
S1135C400895FB01DC018D9181341CF08B350CF43B
S1135C50805E619161341CF06B350CF4605E861BD0
S1135C60611189F3990B0895FB0151915523B1F00A
S1135C70BF01DC01052E4D91442369F010D0D9F702
S1135C80CD010190002049F04D91411108D0C9F394
S1135C90FB014111EECF81E090E00197089540258A
S1135CA039F0403229F440294B57465E08F01894E5
S1135CB00895FB0155915523B1F0BF01DC01052E78
S1135CC04D91442369F010D0D9F7CD0105900020FF
S1135CD049F04D91411108D0C9F3FB014111EECFB8
S1135CE081E090E001970895402539F0403229F48D
