:100000000C94BD160C94DA160C94DA160C94BF28D6
:100010000C94DA160C94DA160C94DA160C94493413
:100020000C94DA160C94DA160C94DA160C94DA1690
:100030000C94DA160C94E4350C94DA160C94DA1657
:100040000C94DA160C94DA160C94DA160C94DA1670
:100050000C94DA164142434445464748494A4B4CC2
:100060004D4E4F505152535455565758595A61623C
:10007000636465666768696A6B6C6D6E6F707172D8
:10008000737475767778797A303132333435363720
:1000900038392B2F3D002563000A0D54494D453A50
:1000A000202532693A2532693A2532690D0A00491C
:1000B0006E68616C74206465722056617269616259
:1000C0006C655B2532695D203D202532690D0A0093
:1000D000202054696D653A2534690D0A00202050AE
:1000E0004F52543A253469002E253369002E2533AA
:1000F00069002E25336900202049503A25336900D4
:1001000025326900202054696D653A2534690D0A4D
:10011000002E253369002E253369002E2533690012
:10012000202049503A253369002E253278002E25AB
:100130003278002E253278002E253278002E253296
:10014000780025326920204D41433A253278004518
:100150004E4332384A36302D56657273696F6E3AA7
:10016000202531780D0A004D79204D41433A202554
:1001700032783A2532783A2532783A2532783A255B
:1001800032783A2532780D0A00526F757465722004
:1001900049503A202531692E2531692E2531692EA5
:1001A0002531690D0A004E45544D41534B3A2025E7
:1001B00031692E2531692E2531692E2531690D0AC7
:1001C000004D792049503A202531692E2531692E7C
:1001D0002531692E2531690D0A00524553455420B9
:1001E000202D207265736574207468652041565215
:1001F000202D20436F6E74726F6C6C65720D0A4116
:100200005250202020202D206C6973742074686562
:1002100020415250207461626C650D0A5443502095
:100220002020202D206C697374207468652074630D
:1002300070207461626C650D0A49502020202020D6
:100240002D206C6973742F6368616E676520697017
:100250000D0A4E4554202020202D206C6973742FE8
:100260006368616E6765206E65746D61736B0D0AFE
:10027000524F55544552202D206C6973742F63687A
:10028000616E676520726F757465722069700D0A02
:100290004E5450202020202D206C6973742F6368E9
:1002A000616E6765204E54500D0A4E545052202006
:1002B000202D204E545020526566726573680D0AD9
:1002C0004D4143202020202D206C697374204D4126
:1002D000432D616464726573730D0A564552202084
:1002E00020202D206C69737420656E632076657202
:1002F00073696F6E206E756D6265720D0A535620BC
:10030000202020202D20736574207661726961623F
:100310006C650D0A50494E472020202D2073656ED4
:10032000642050696E670D0A54494D452020202DE8
:10033000206765742074696D650D0A48454C50202E
:1003400020202D207072696E742048656C70746571
:1003500078740D0A3F2020202020202D2070726903
:100360006E742048656C70746578740D0A006C6555
:10037000646F66662E676966006C65646F6E2E67D3
:100380006966000000636865636B656400504F53E5
:10039000540034303120556E617574686F72697A1B
:1003A000656425454E4400485454502F312E30206A
:1003B00032303020446F63756D656E7420666F6CEB
:1003C0006C6F77730D0A5365727665723A204156E9
:1003D000525F536D616C6C5F5765627365727665D1
:1003E000720D0A43616368652D436F6E74726F6CA2
:1003F0003A206D61782D6167653D363030303030A0
:10040000300D0A436F6E74656E742D547970653AC1
:1004100020746578742F6373730D0A0D0A004854B5
:1004200054502F312E302032303020446F63756DA0
:10043000656E7420666F6C6C6F77730D0A5365720E
:100440007665723A204156525F536D616C6C5F570E
:1004500065627365727665720D0A43616368652D26
:10046000436F6E74726F6C3A206D61782D616765B1
:100470003D363030303030300D0A436F6E74656E6B
:10048000742D547970653A20696D6167652F6769CD
:10049000660D0A0D0A00485454502F312E30203278
:1004A000303020446F63756D656E7420666F6C6CC0
:1004B0006F77730D0A5365727665723A2041565212
:1004C0005F536D616C6C5F576562736572766572C0
:1004D0000D0A436F6E74656E742D547970653A2001
:1004E000696D6167652F6A7065670D0A0D0A0048BE
:1004F0005454502F312E302034303120556E6175D8
:1005000074686F72697A65640D0A536572766572F4
:100510003A204156525F536D616C6C5F5765627350
:1005200065727665720D0A5757572D417574686567
:100530006E7469636174653A204261736963207205
:1005400065616C6D3D224E65656450617373776FB4
:100550007264220D0A436F6E74656E742D54797047
:10056000653A20746578742F68746D6C0D0A0D0AF5
:1005700000485454502F312E302032303020446FF8
:1005800063756D656E7420666F6C6C6F77730D0AA2
:100590005365727665723A204156525F536D616CB5
:1005A0006C5F5765627365727665720D0A436F6E94
:1005B00074656E742D547970653A20746578742F63
:1005C00068746D6C0D0A0D0A00485454502F312E7A
:1005D000302032303020446F63756D656E74206654
:1005E0006F6C6C6F77730D0A5365727665723A2083
:1005F0004156525F536D616C6C5F576562736572F3
:100600007665720D0A436F6E74656E742D54797041
:10061000653A20746578742F706C61696E0D0A0DEF
:100620000A004749463839615A005C00F700001C4F
:100630001510241C13291E162A1E1921180F2A20F2
:10064000172E221A27201532261E34281F34272160
:10065000362A21392B243D2E2A3429283D30273EA5
:10066000312B31292717353C4C010143342C4735B8
:100670002C4435334936334639334B3B354C3E39C0
:10068000473A39513F39513D36412E2A701D164D9A
:10069000413B4F423754443D58463E58463B674BDA
:1006A0002E533F404E4341554641594741564942DA
:1006B0005A49425A4D49554B495B514C5C58544E2E
:1006C0005354624D4764524B69554E645A55655CAC
:1006D00059675854735C5669625E76645D6D6C6AE6
:1006E0006C6764736D6B77696672716D7B736E7620
:1006F00074727B74727D7C78716F71546C77002496
:1007000057BA071CAB0519BA0D23B21529B5253602
:10071000893B14DA0A1DC9091DEA0E1EC90C23D42F
:100720000C25CB1429D61227E90C23F70F26E9173D
:100730002AFC1425FD162AF41A2BFE1B2DF415296C
:10074000FE1B32F91831EA1A30D22C39F72234E87C
:100750002C2E9B5E24E3482CDF6B27B63648A6324E
:1007600044CE3647E8394AB24A5781655E9C5661A5
:10077000B95665B05B71866A64837D7C84797797AE
:100780007972B56B74B06550CE4B5AD25669CB6A4C
:1007900077D071467F807BDD9B17F09511F8B80804
:1007A000ECB419F4BA18EDA90DD49330E9AD26E9EB
:1007B000B526F4B723E7B038E5A12FFFCC05FFCC71
:1007C0000BFCC30AFFD209FCC415FDCA13FAC51AF3
:1007D000FED01AF9CB26F1CB3284817D8A827DDB73
:1007E000B250E4BA4CD6BA6CE1BA6AE39656EBCD95
:1007F00051DDC46DE9D070BA88271060A5AB778B46
:100800008B7F80C679883892B44C8FAC658F9B4DB6
:100810009BCE71C9D864DEF571D5EB68E7FC73EC4B
:10082000FE4CD1E80EB1D88684818C84838B8A8675
:100830008E8B8A8F878A938C8C968A8993918D9ED2
:10084000958F998E919C9393989694A29596A39840
:1008500097A5999AA99D9DA39699B68292B0A89AB8
:100860008A9AACAA9CA3AC9DB68FA4ACACA2A2A958
:10087000A9A7B3ADACB4A6A7B5B4B3BDBDBCBCB459
:10088000B3B8AEAF9EA29ACD8F94CD9DA4C6B9BA8F
:10089000D5B5B9D0A8B0EFAFAEEEB292DAC88EE15E
:1008A000C888E5D491CFCBB4E5D7A7E5DAB8F0C9CD
:1008B000AFEAE5B3E4E19F8EB4C5A1AAC4D1BDC23D
:1008C000E3BDC18BC6D6B0CFD788D2E880E8F7C4E5
:1008D000C4C2CBCBC9D8C8CAD1D1CDDACFD1D5D437
:1008E000D3DCD6D6DBD8D7DBD7D8DDDADAD7D7D882
:1008F000CED0D0E2DBDBE4D5D6E5D1C8EBE7C9EA60
:10090000E6D7F4F5D5CCDEE2E7DFE1DAE7E8E4E3C9
:10091000E3EBEBEBE9E9E6F1EEE9F4F4E8F4F4F407
:10092000FFFFFFF7F9F7EEF1EF00000000000021F4
:10093000F904000000000021FE3A43524541544FA3
:10094000523A2067642D6A7065672076312E302018
:10095000287573696E6720494A47204A50454720E9
:10096000763632292C207175616C697479203D20AE
:100970003130300A002C000000005A005C000008F2
:10098000FE00F7091C48B0A0C183081322E4472CDD
:10099000888C112B70BC4AA7B0A2C58B18330EE40B
:1009A000B76FDC8E0E2252881CA1A1852D8E1A53A2
:1009B000AA5C69105888102C56AC48215326051C97
:1009C000FD04F2D38792A5CF9FFBF8DDABA7AF580C
:1009D0008A1131208A9C493384021ABF7CD8A041F5
:1009E00063872B693D816A4DC8F00D0D171A36E4F7
:1009F00090B1B4E6CC99182C8C682362C4511121B3
:100A000036EC08B7B5AEC17A3C308420B1224383BE
:100A1000363144D2644A73840508696EB8152C9344
:100A2000430660763772C5888F46861531576CB09D
:100A30009066A452C622287468E396E90A88982F23
:100A4000048B2C509F3B66CD98B553F9284352D464
:100A5000192E90C65C33A6480C1E66E410717629E8
:100A60004D9A20D4D9E5E7AECE992FD0C1A88161A7
:100A700040D5C5792D1843C4A0FB68060AE033FEB3
:100A8000104F61A1429B87C74FCB741B23838FBA42
:100A9000FA929DC972E50A7D25443C7992603DAB8E
:100AA000E47DC47050136E1CE440C1020820B040C5
:100AB0000209521002042BB025D36066AD074139FC
:100AC00041FDC40F32F465B1C51656CC814D2924C1
:100AD0008EF28926FA20D48F366FD494424C865DEC
:100AE0004082820BD4980003092430800237DCA0B6
:100AF0008269039E35C202AF00A50F27605891C5D9
:100B0000925CCCC10D29A17C22E5896BE063D030D9
:100B10002D28D0015933650001030320D0418D6495
:100B2000E2B80003011CA002041490C0C251408E20
:100B3000405203321833CC3D2BB543471758F48944
:100B4000C515606003E52EE70475CC2767D051D04A
:100B50002C0E586001076489F00002092C20000364
:100B60002120C040990B28A00000108C8080020B2F
:100B700054F0E36272DA14021C335CB0C22BFEF64E
:100B800060A44F3CD4D80106185564D16715B994B8
:100B9000220A36FCF4E48B2652209361300A5CE092
:100BA00068073384D0698D0C14C08006062060C0AD
:100BB000B509761A800818688A20036E2EF5230678
:100BC00015C09183521AB880A17F3AF1F3CE3595C2
:100BD00054A2C8BC810C2246AE663C190A9E19EE8E
:100BE00043CF2E679891A23D2750B0990517C85062
:100BF00029039B2E108002143090820D38D4B0024D
:100C000004060480400C0D544A660221CCE45608C8
:100C100014B421214D2C90A042A107C5134D238966
:100C20001022332185E0B1C7226360D1852FA274E1
:100C300023903C9D60B38F3ED8D0C18438FBDCA2AA
:100C400000778E7A40C18D0918B0000610B4008775
:100C50002BBCFCA2F52FB2F480800724DCD8708D69
:100C60000810B742683DC0A19E602C8850434F28B1
:100C70005953C922321722B32135E37148FE204966
:100C80006A128A3C437B024A264273C38913CCEC26
:100C9000534303CA5610ED030F18C0C00DACD4D295
:100CA0008A30C5E0620B2DB5747ECB2D6EA4320365
:100CB0008264962E670337C02183D9136286C12FC1
:100CC000FDEE734D2387CC6C3B2189D4BE8818562A
:100CD000B0114AACDD74324E26A0F0C38D264C30E4
:100CE000A38F0908577066020F3000822BBF7C7EED
:100CF000B930B4D8A2FDF6ADC8D2CE2FAED8D080D0
:100D0000B7CF831703AB83A136200D3D59D388DDC0
:100D100076DF6E7B22BCAFC14D8ADD64024011A03C
:100D2000D4130A3247A307E32ED0803329C0002E04
:100D3000A0C52D6AA13D571843189ADB9EF652C1F3
:100D40000C6DC0E216BF608506BC7523025C000E08
:100D500037E08B59D2B7020DAC4320F1A8C4216A09
:100D6000273F9ACD8C6FBDE3464EE8618A4E9CC208
:100D70001BDD18051DA4608F62386003FE10500053
:100D80008E0C00815BD882810D34C62FB227415A68
:100D9000A4421CC6C89E026981026F15200031B8AA
:100DA000816918239818406035FCB8062366568878
:100DB00032CECC10B52BC42106D18529686214F43B
:100DC000E088374E610A7984821B5E9803382C4094
:100DD0000102768A013B8845306CA139CD6D8219BC
:100DE000BC88A0F66EE10A5C906381DBBB052D3206
:100DF000C02002744054212B8B9064B2005904E54A
:100E000012F13B841EF2D0873CE4410FA8D40322A8
:100E10000231862B4C61173DD3093DE8C18D52E468
:100E20008209B9D8C1052800814E35C00DC2B8E08D
:100E3000E770613D6218D188DAC3C52394B10C26EE
:100E40006AAF16A03300012A10030F20683C8C9172
:100E5000090B4CA0005C08847684D0431F04018DEC
:100E600069582312791883294D59052B782114507C
:100E7000F2D93EEC818D5F9DC10BAFFE208E063C0A
:100E8000A5801FF0C288BFB0452C62918A1EF4C0B5
:100E900015B288852C68A139593C117B123CE22D92
:100EA000BA25030FD048628229CCD92EE000610810
:100EB0008411A21CC43350128F4B7C800ECEA0C470
:100EC000207266053590421450E24628E0E90D3A5A
:100ED0004C0119A8E8C0D90210000D7C0E1506DDE2
:100EE000442C16672D05D88015AD88052D78D10ABC
:100EF0005AB823A2DBA3050F48D0011A21A8026F1C
:100F00003A4E0A54E0A80680432095E80324DE31D7
:100F100090142E010DCD6806252201862D44C1179F
:100F20002F15855C61EA8D3A68C10BF7F0814E2977
:100F3000600000BCC0162A3860B55A40BA4D09405E
:100F4000056FB0810B68F00665684316842CE411C8
:100F5000DDA00D570C606C08FACC4C9465810DC473
:100F60006A1FEF98464E5A7389307C20AD946065B5
:100F70007DA2D00B1291E2B5A3C8FEC61CFE64860A
:100F80007DE840400C18552A50208033A109014FBC
:100F90002353010CE001011475135CBB8522719190
:100FA0000A61B8431836901C9910808137C584B304
:100FB0000AC04142AC618709A8A11A830804DFAEC8
:100FC0008005267C610E9AE0052F724107305C6136
:100FD0000B4E58C33E562102112068074120D5A66A
:100FE000A2A500082C8C0107A040F41830BE06B062
:100FF00042A14624E6409FAB400E50CA4610DAACF0
:10100000B23C10831C18E320F998C40726600774CB
:101010000EC20F55D84216AA20852B58410B58B046
:101020008292B2F0852624631F8FA8800834058140
:101030000114A074D53AD0821050800AE4C8630A23
:10104000D8042B5841CCCD3D5119B120E626CE54C1
:10105000BADF58A0011AB8410E62B001BA14241EBA
:101060007E984018FC000968E403192BFE82149254
:10107000B4240F5DE10B535042FE3FCA01820725A5
:1010800008010D108074738B001F33ECC64F63583A
:101090008D0AB0990DB4E00DB5488531C4C1C45A6C
:1010A000FC620506E8588DB8E5810AC820073320A0
:1010B0004E81FC130F48F8011AD640091D56ACABFF
:1010C0002694190B1F9AC21194B18F5964C00568F8
:1010D000D2B3023476266BD99901028898C718607A
:1010E00000E88D6AB0B61087249F798B37788BD64D
:1010F00010804081B4C89714C44004C430083EF244
:10110000219939701A0B4890429FB400852694416A
:101110001B026945C8605D2603F4B6533DCE91AB12
:101120001F9CA31EFB76530168AC33B5170B082830
:1011300028631510CEB12744130D3CE222C870423B
:1011400099A560842620A1094A88033372C2916060
:101150006C4004B995EE010F702D011C80D6DE861F
:10116000B38DE2ECB4D2218802AE4866E76C718B95
:10117000190F00000BB841A4FE5143A111D8E02281
:10118000FD98031448FC842A90F8082F2E483FC08D
:1011900072A30014E0460ECA80970A80800754C0EC
:1011A0004BD76A75025E5D2605B801B2DB33340B9E
:1011B0000020800A742003EA530F534680117E24D6
:1011C000230AD2DEC217A080069D14841894845C82
:1011D0000228F022CC40845BE15A0108AE18B52FFA
:1011E000E18861B93D40008E9E3D067E0E0503708C
:1011F0004CA5D4577215501D23DBE882883FF48438
:10120000C4B16B1C2A30DB9BCC16920A2D0503015E
:101210002040CFA116F7023C800218B001D26DD158
:101220000A57F480803742402607933E196484139E
:1012300054F842A8C990228270041C20A0C9A94277
:10124000A08110B00E2EB63FCD5621F0800348EBA2
:10125000CE0778C077723B80177CCE15AD508630B4
:10126000CCB4200A0406482B2081762F720F337CE1
:10127000E8434DC8C541D2FE515F0AD9BEBEB61F74
:1012800081085490021268A0342A60C1083260803C
:101290001B0B20011978408E988C804DA8E216CA4D
:1012A000BFC50C24C7200F54E82C1AD00A18910C83
:1012B00053707D5AA004F55010F6100C38100289B6
:1012C000177522D1364A71166D917866930136D61C
:1012D000680CC27CB9B503CCA00C9BF30BBEC63026
:1012E0005FA31E13A8765F6511FA6006EFF5215023
:1012F000C00605510E96E12666B118D944723371C5
:101300008121635F100335D0E35B02100451A439DF
:101310008C94230CE37FFF270234D07A15910C5D67
:10132000F05EEFF5042F8612EC907831A07BEBC1D4
:101330001B4BD116F5456F14221E2E600104202D83
:101340003E782D0FB3090AB448AEE0013F868426EB
:10135000C80215300BD4C782D7770548301B19B2A5
:101360000918B002E44781B8377E83E17721800114
:10137000367814474101FE22B041EF7740C3157A19
:101380002E305084044DAE602663B736670702FCEA
:101390005211755080D74705AC3710E58002F5D55E
:1013A000164B217E5C381E4CA17E509751221102B3
:1013B000BBF425C3C500E5011E0DC0003DA040B82B
:1013C000004DA9E03108A0015728137EB700B0A353
:1013D000101CB10C51707D1FA2055D2710C080024A
:1013E00028008C23F17F1AA555A99202DD37180E2B
:1013F000B2419083233F86001B200BD0640BBFD0EB
:1014000003D2950024607E21C0470C307D15310F3A
:10141000D6878C5B3005F2B50FC3E07F99C136F4F7
:1014200026329F417E19C5875057132FB1020B708A
:10143000007FF43110D00ACAC5501B902636071E13
:101440007A2102322003B06011FCB0069C888C53D4
:10145000D075FDC00A3DB03A1CC00110487A231077
:101460009052B73667A30111A80128B90006E00021
:10147000A5B3291080FE54A9C091011026091003BC
:101480003330033D720332106914A110CB6004F0B5
:10149000F8219EA80EEBC00EF5400C6EF0063F50F2
:1014A000036DE11670311E23C00218C03A67611641
:1014B00028F9221B208A0A30001150230A902001AB
:1014C0000002ADD03DC2B0031E7001E41291FAE8F3
:1014D0001618300CB16310CB800443B9055A800450
:1014E000CB300FE6600EE8800EEC800EE1E00622C5
:1014F000901922B001A631027B988566C102212095
:1015000012227001549931033000D762003BF20679
:10151000C1C00CC0600CD16584A9E2222BD001B0FF
:10152000C32E19420E49B0725C008F50800CE82027
:101530000EE8A00E7D890EE9200D4E7916B63718FB
:1015400024609535987882810128300219D300E013
:1015500041011560011E1004B2908BB6202A38425A
:101560000199E1222C9001ABA11068000576797DEC
:10157000A9B9055CFEA004CC600F7B890E7B590ED7
:10158000CAA0038329135D48218511757CB8182BE7
:1015900010023A850172C67C0B5000200059B7003A
:1015A0000B1E402AF0B745352102E3B010FB200E98
:1015B00049B005F5819D5C909A55E005CC300F7FD0
:1015C000D997E6500EBFD002EA63361638132AB018
:1015D0008A67633647D13697C1010A202DD082230E
:1015E00018008EE3986867A29E342102EC8810E20E
:1015F00060045DD005A9D982DA999A5380046BB052
:101600000CB1690EEC500E77A09BA3D887677319B5
:10161000AD18122CF00228A0172CD00100962DAD89
:1016200086020A140BC1556759456F318001C946BE
:101630008C68F0042D37945AA09D5280049A500F64
:101640007D790EE9500EC0E00210F123DD978FE2A4
:10165000C7142480015BF506A800177D612D2C2995
:101660000002300002F003B7C00B2CA02937128112
:10167000E9D31EFEAC7011C9D00430AA9D337AA004
:10168000DA09054AE00EECB097E6D00EEB100C0F2D
:10169000619E215172E2274267031323E002AFD01B
:1016A0000A35A00110700009C026BC64002FD05478
:1016B00034F06D0BC001AC3895191004A469107199
:1016C0005080078AAB54C0A85C000564D00EED20A2
:1016D000A9E6400C677A76C5267BA85188E30711F6
:1016E000208003A8C00A27100101E0000CB2000D01
:1016F0008001B8200C3F5000571400A1A2552C10B7
:101700000315E008B56A101649A05D609DBCAA9D4E
:101710004F8006912AACC4A00A8C57137E079AFF0B
:10172000177D15B003A80004106073524336108073
:101730000BB4404015E00119D0011590B0E2412EE4
:10174000729811C970045220054F207807FAA2E957
:10175000EAABC02AA9ECB00E8279367CA19EAD63BB
:101760008DADA3A2ABF00AAA000197E26D6732002B
:101770003520FE0C2D205D14360332D03618400182
:101780002E908219B1214A80A81F520550F00450B2
:1017900010B44F4006E4900E93BA97E020AF67E391
:1017A000778581AC5B751AE377162AE002AA50B2FE
:1017B0008E4029B4365C27200B2F7059B905A7102D
:1017C000C1023210033D50AE1591A552406251A0A6
:1017D000A5119B049CD00EE520ACE6000E42401CF7
:1017E000BA098C8D09270EA81E2C00013BE008AB1E
:1017F000300B38F07003690135B00152935BCE575E
:101800001C29A0016FE0139A6004428B044F80757D
:101810004F4007F3209BE7B097EC300E9C69B78EE2
:10182000E71DA9987B176A0127C00A410004818B34
:10183000319E32000170230B5201A7417231A01A70
:101840003E210E6B40B9401B05419B04DB200FE895
:10185000B0B9E6700EE3500C3B801A21831A8D67F5
:101860007E57690128A0022810023850B2AF200428
:101870002FFE000420D05B3822679502A7D9D41729
:101880003F60B615910EEB900C6BA00494AB046412
:10189000B006E2C00EE920BCE9300B36C03A8DE953
:1018A00022224002E291A1B749132D2004AADB0AAB
:1018B000D5EBBA0CE029E5060129E0026F32214F91
:1018C000E706A3C512FA400CE6300FEE900BC800F5
:1018D000A9726BB4F0F0081A70950EF823FD49AFA9
:1018E0003F9202BFC9021B800A77C00348150B3C18
:1018F000000011F000102063229001E551011870E2
:10190000B02DE006560614F6100EC07A0EF5F0BEA5
:10191000C22BACE9405FA6917B263912B2771ADF61
:101920000101A8300B6EA003AC807C2D80882C7048
:101930008F18B0033CA00ABF000E565217FCA00D32
:10194000E5900E657A0E64BC97E9D00E460B0EC783
:10195000DB3A2410022E60958E693610716AD75BCF
:10196000B2A8A0038F300B3C000121B31E18700BEE
:10197000FEAC5110E9000CC3D00DC4300E646CB441
:10198000E1200DC4100C6EF08C9B647BFC981EE76C
:10199000678854F903ADA0034350B242E003A8C0E6
:1019A000030D60015589012D009771C91AF7100EBA
:1019B000BFE006AB300CE1100EE0300B3550032CCD
:1019C00000C99BC42DD0D79E21819824400134208A
:1019D0000BAAA0033CB00AAB700CC320042DB001CD
:1019E00027D003C0F059817C10FDD0021640033F80
:1019F000E0083F50CBA2C89FA7E102486A816FEC84
:101A0000BD2A40010DD0002FA00A26ABC9AFB00AF5
:101A1000EC3034F7C084CF9C10E9D00218909B6D55
:101A2000E1223481027092A6327636209001B927E5
:101A3000121550033CA0033E60CEABA0034150CC36
:101A4000EFAC117B5495B5C7877D788D6B2302323F
:101A5000A67E1041128907016F300B770C04AFF09E
:101A60000AA8F0B7AB8027E2BBD002A10A2F00FE84
:101A7000011AC00216A80118909514C2870FA23E41
:101A8000234001A2DC003C10AA42B0037750B27799
:101A9000200442A01C267D11E000043B00A73191E8
:101AA000329A658A744A324A6118E36C013CD00A62
:101AB000ACF00A40A0038E60B2E1400CCE3CD40AE8
:101AC000A10F770004389001F35C1A616B8D89884F
:101AD00092DB21BB4711023CC003582C54AD800A55
:101AE0003EE003ABE00857EAD517110C3BC00AA94A
:101AF000800327000122E08C9AC13A3131B528D009
:101B0000001E10131B900AB3B00A3EA003AA00C027
:101B100040E0036EA00A90A1D717410F3AE006AF4C
:101B2000300B4060198EE20002E2222309010E50C0
:101B3000023BC000DC920A9CAC031EDD0AA940D027
:101B40008E90D99A5D11FCB0AFAF900AC3800A8F16
:101B5000800ABA1006C2668DE20C0215500261F0CE
:101B60000CFBB003DE880AE9DC0A3FA003CEFE1DB1
:101B7000B8AFE003A67CDB15010C3A00D2F7300CBD
:101B80003E300B2F83092510162FA00CD400088C93
:101B9000F00764A50F465DD000EC0804ED0A817BD8
:101BA0000FA87042D85D11E3E00349152C9F700C1B
:101BB00095803B93600FF5C011D66008860009033D
:101BC000410F40C0031E6DCE579DD5A8900E3B71AE
:101BD000DF15610F427007C5D01AD1A00887D00762
:101BE000D34010D160087A30095E470C3AD0D965ED
:101BF00049D71EED08F64DE11561C2B112468D4080
:101C0000088700082982129660087D400D05F10AB8
:101C1000C2CC0A257BD5AAA00A39ECE209410C5FA7
:101C200025377B4033860008D3100F02810FEF93D6
:101C300007644510E93004B01DAA77EC08A880219C
:101C4000467E10F8600997100D97D00880B007887D
:101C500080086864087BE0E4FC100D7A50083B6E55
:101C600010C770E2A850B2C0E0D1258DDDFED4F0DF
:101C70000788B00780CE078A10087C90087BA007F1
:101C800087600892200D80B0427D000DFE710F40EC
:101C900030E9209D0EC4E0E55F5E10F7700D7FA077
:101CA00008679E08E215087FFE0C97000890300D2B
:101CB000958037762308554E10C300DB432ED49908
:101CC0006E10FD20091C7E0889C0078050E87AA0AC
:101CD000DCFC600DCFD008F362E089D0E496C06CE4
:101CE00003D10F4280D5AAF093B35E10F95052E1B0
:101CF000444A6AA40763750991200889A0089D1EBB
:101D00000806BE07A22409FDC0111CF1EA42A00A80
:101D100099F8EC03710FF7300D903009A4DE087AC2
:101D20002009D430E3898008BA9EEB8050087B00FC
:101D3000098A2008A2451060BDDDEA6E103C91ECD6
:101D4000F9F00C92A00FEF5009BAFE07859EEF8ABA
:101D5000CE0FF080EC05D10D2F90D7057F10F50048
:101D60000FAD310D808008F75E087C0048F1864E8B
:101D70000DC1B210C6B0E7B39E15CF20088B90E816
:101D8000820009347EE02CBFF117010FF160098059
:101D90006009EF6009C2DE07EE80F376710FF00094
:101DA0000FA3650DEF2009D140F476E1CEF3740F57
:101DB0000D5CF00101003B25454E4447494638394A
:101DC0006102000A00A20000A2A5ED848FE5667CF6
:101DD000DD4960D62144DAFE010200000000000067
:101DE00021F90405140005002C0000000002000A7F
:101DF0000000030A483423120148001D5309003B28
:101E000025454E4447494638396111001100A20763
:101E1000005756576969697E7E7E909191B0B0B047
:101E2000C8C8C8E7E7E7FFFFFF21F9040100000782
:101E3000002C000000001100110000036F78AA566A
:101E400045B0AC794C73706839AD19012006424930
:101E50002C56416A431990016705034468A5F00AAE
:101E600055D1128E47CBA503AA6A85C62DA7A339E3
:101E70000048CCB03482406B99A94004B00A58386D
:101E80006615C42CBB00029FCE9C23750F2D125BE0
:101E90000708280A2E793BF45610767C757C2713A8
:101EA000782F5C55140B372124840B09003B254502
:101EB0004E4447494638396111001100A2070062BB
:101EC000626219AD2121E22CA5A5A564E66BA5F3FC
:101ED000A9D5D5D5FFFFFF21F90401000007002C8B
:101EE000000000001100110000036078AAD6F3661C
:101EF000C9D3EABB5156127A1700302C4DF109A80C
:101F0000D085591308444CA46A48192A51EC73BA75
:101F10000E2ED8AE10A30544411D8F56130D5EB290
:101F2000A231F478A17ACCA3D3CA9C020C4F6EF7ED
:101F300077A8767D364AE8E4D38E1483B5C7439DEF
:101F40001842F8FC7B528EE3F70A09003B25454E08
:101F500044626F64797B6D617267696E3A203430D8
:101F600070783B7D20626F64792C702C6469762CCC
:101F700068312C68322C74642C74687B666F6E74C4
:101F80002D66616D696C793A73616E732D7365723C
:101F900069663B666F6E742D73697A653A3131708C
:101FA000787D68317B666F6E742D73697A653A321D
:101FB0003070783B636F6C6F723A77686974653B19
:101FC000206261636B67726F756E642D636F6C6FF7
:101FD000723A233936423131433B6D617267696E23
:101FE0003A3170783B70616464696E673A35707835
:101FF0003B746578742D616C69676E3A63656E74C5
:1020000065723B7D68327B666F6E742D73697A658D
:102010003A313870783B636F6C6F723A23393642CD
:102020003131437D702C68327B6D617267696E3A25
:102030003070783070783570783070787D696D6781
:102040007B626F726465723A307D68727B636F6C1D
:102050006F723A73696C7665723B206261636B677D
:10206000726F756E642D636F6C6F723A73696C7604
:1020700065723B626F726465723A303B686569678E
:1020800068743A3170787D236E61767B666F6E740A
:102090002D73697A653A20313670783B206261632E
:1020A0006B67726F756E642D636F6C6F723A7369D4
:1020B0006C7665723B6D617267696E3A3170783B20
:1020C00070616464696E673A3570783B666F6E74F0
:1020D0002D7765696768743A626F6C647D236E6101
:1020E0007620612C20237461696C20617B636F6CA6
:1020F0006F723A77686974653B2070616464696ED9
:10210000673A313070783B746578742D6465636F1D
:10211000726174696F6E3A6E6F6E657D236E617663
:1021200020613A686F7665722C237461696C206156
:102130003A686F7665727B746578742D6465636F39
:10214000726174696F6E3A756E6465726C696E6502
:102150007D237461696C7B20636F6C6F723A776862
:102160006974653B206261636B67726F756E642D85
:10217000636F6C6F723A73696C7665723B746578E5
:10218000742D616C69676E3A63656E7465723B703D
:10219000616464696E673A3570787D236D61696E3C
:1021A0007B746578742D616C69676E3A63656E74D3
:1021B00065723B6D617267696E3A323070787D2E60
:1021C000636C6561727B636C6561723A6C656674A1
:1021D0007D2E74656D7054626C207B7461626C65D9
:1021E0002D6C61796F75743A6175746F3B626F72B3
:1021F0006465722D73706163696E673A307D2E7409
:10220000656D7054626C2074647B746578742D61A4
:102210006C69676E3A63656E7465723B7061646485
:10222000696E673A3770787D2E74656D7054626C94
:102230002074687B6261636B67726F756E642D6377
:102240006F6C6F723A73696C7665727D25454E448A
:10225000003C21444F43545950452068746D6C2014
:102260005055424C494320222D2F2F5733432F2FB7
:102270004454442048544D4C20342E303120547264
:10228000616E736974696F6E616C2F2F454E2220E9
:1022900022687474703A2F2F7777772E77332E6FEA
:1022A00072672F54522F68746D6C342F6C6F6F737C
:1022B000652E647464223E0D0A3C68746D6C3E3C6D
:1022C000686561643E0D0A3C6D65746120687474D4
:1022D000702D65717569763D22636F6E74656E74DD
:1022E0002D747970652220636F6E74656E743D2263
:1022F000746578742F68746D6C3B206368617273C9
:1023000065743D49534F2D383835392D31223E0DF6
:102310000A3C7469746C653E415652206D696E6961
:1023200020576562736572766572203A2053746136
:102330007475733C2F7469746C653E0D0A3C6C694E
:102340006E6B2072656C3D227374796C6573686581
:1023500065742220747970653D22746578742F63EA
:102360007373222020687265663D227374796C65F0
:10237000732E637373223E3C2F686561643E3C623A
:102380006F64793E3C68313E415652206D696E69FA
:1023900020576562736572766572203A20537461C6
:1023A0007475733C2F68313E0D0A3C646976206970
:1023B000643D226E6176223E3C6120687265663D16
:1023C00022696E6465782E68746D223E486F6D6573
:1023D0003C2F613E3C6120687265663D22737461EA
:1023E0007475732E68746D223E5374617475733CFA
:1023F0002F613E3C2F6469763E0D0A3C646976206D
:1024000069643D226D61696E223E0D0A436F6D70F5
:10241000696C6965727420616D204A756C20313376
:10242000203230313920756D2031323A32303A3035
:10243000303C62723E3C62723E0D0A436F6D7069C1
:102440006C69657274206D6974204743432056653A
:102450007273696F6E20352E342E303C62723E3CB2
:1024600062723E0D0A42657375636865722073651A
:1024700069742053746172742064657320576562B7
:10248000736572766572732028255641403039296C
:102490003C62723E3C62723E0D0A3C2F6469763E9D
:1024A0003C6469762069643D227461696C223E3C1B
:1024B0006120687265663D22687474703A2F2F77C8
:1024C00077772E756C7269636872616469672E64D0
:1024D00065223E7777772E756C72696368726164E6
:1024E00069672E64653C2F613E20556C7269636894
:1024F00020526164696720323030383C2F6469763D
:102500003E0D0A3C2F626F64793E3C2F68746D6CFF
:102510003E0D0A25454E44003C21444F435459503A
:10252000452068746D6C205055424C494320222D43
:102530002F2F5733432F2F4454442048544D4C20C1
:10254000342E3031205472616E736974696F6E611C
:102550006C2F2F454E222022687474703A2F2F77EB
:1025600077772E77332E6F72672F54522F68746DE2
:102570006C342F6C6F6F73652E647464223E0D0A89
:102580003C68746D6C3E3C686561643E0D0A3C6D50
:1025900065746120687474702D65717569763D226B
:1025A000636F6E74656E742D747970652220636F2D
:1025B0006E74656E743D22746578742F68746D6CEA
:1025C0003B20636861727365743D49534F2D383801
:1025D00035392D31223E0D0A3C7469746C653E41DB
:1025E0005652206D696E6920576562736572766513
:1025F00072203A20486F6D653C2F7469746C653E9B
:102600000D0A3C6C696E6B2072656C3D22737479A7
:102610006C6573686565742220747970653D2274F9
:102620006578742F637373222020687265663D227B
:102630007374796C65732E637373223E3C2F6865E7
:1026400061643E3C626F64793E0D0A3C68313E46EF
:1026500061726D20636F6E74726F6C20706167655C
:10266000203A20486F6D653C2F68313E0D0A3C646E
:1026700069762069643D226E6176223E3C61206865
:102680007265663D22696E6465782E68746D223EBF
:10269000486F6D653C2F613E3C6120687265663D08
:1026A000227374617475732E68746D223E53746165
:1026B0007475733C2F613E3C2F6469763E0D0A3C75
:1026C0006469762069643D226D61696E223E3C68D2
:1026D000323E57656C636F6D6520746F204F757265
:1026E000204661726D213C2F68323E3C62723E0D85
:1026F0000A3C696D67207372633D227475726B6565
:10270000792E676966222077696474683D223930C2
:1027100022206865696768743D2239322220616C25
:10272000743D22223E3C62723E3C62723E0D0A3C87
:10273000703E5475726B6579204661726D3A205314
:1027400068617A6C7920616E64204E6162747920D0
:1027500028534E293C2F703E3C62723E3C68723ECC
:102760003C62723E0D0A3C646976207374796C6534
:102770003D2277696474683A32303070783B6D611D
:102780007267696E3A2030206175746F3B223E0D8E
:102790000A3C646976207374796C653D22666C6FBF
:1027A00061743A6C6566743B77696474683A313079
:1027B000307078223E0D0A3C666F726D206D657434
:1027C000686F643D22706F73742220616374696F57
:1027D0006E3D22696E6465782E68746D223E0D0A26
:1027E0003C696E707574206E616D653D224F555465
:1027F0002220747970653D22636865636B626F782F
:10280000222076616C75653D224622202541757433
:102810006F46313E46616E20313C62723E0D0A3C8D
:10282000696E707574206E616D653D224F5554223E
:1028300020747970653D22636865636B626F7822EE
:102840002076616C75653D2242222025504F5254FE
:1028500043313E506F727420432050696E20313CEA
:1028600062723E0D0A3C696E707574206E616D6512
:102870003D224F55542220747970653D226368656E
:10288000636B626F78222076616C75653D2243220E
:102890002025504F525443323E506F7274204320D3
:1028A00050696E20323C62723E3C62723E0D0A3CC0
:1028B000696E707574206E616D653D2253554222BC
:1028C0002076616C75653D2253656E64656E2220CD
:1028D000747970653D227375626D6974223E0D0ACC
:1028E0003C2F666F726D3E3C2F6469763E0D0A3C4C
:1028F000646976207374796C653D22666C6F6174CF
:102900003A6C6566743B2077696474683A3130309C
:102910007078223E0D0A3C696D67207372633D2218
:102920002550494E43302220616C743D22223E20C6
:10293000506F727420432050696E20303C62723EAA
:102940003C696D67207372633D222550494E4331C7
:102950002220616C743D22223E20506F727420430D
:102960002050696E20313C62723E3C696D67207375
:1029700072633D222550494E43322220616C743DE2
:1029800022223E20506F727420432050696E203204
:102990003C62723E3C2F6469763E3C2F6469763E11
:1029A0000D0A3C64697620636C6173733D22636C2D
:1029B000656172223E3C2F6469763E0D0A3C62726C
:1029C0003E3C68723E3C62723E0D0A3C7461626C31
:1029D0006520626F726465723D22302220636C61F3
:1029E00073733D2274656D7054626C2220616C6952
:1029F000676E3D2263656E74657222207769647428
:102A0000683D2234303070783B223E0D0A3C7472AF
:102A10003E0D0A3C74683E45696E67616E673C2FE7
:102A200074683E0D0A3C74683E42616C6B656E3C96
:102A30002F74683E0D0A3C74683E54656D70657273
:102A400061747572205BB0435D3C2F74683E0D0A63
:102A50003C74683E48756D6964697479205B255DD6
:102A60003C2F74683E0D0A3C2F74723E3C74723EDB
:102A70000D0A3C74643E4368616E6E656C302044A0
:102A8000485432323C2F74643E0D0A3C7464207307
:102A900074796C653D22746578742D616C69676E1C
:102AA0003A6C656674223E3C696D67207372633DC3
:102AB00022696E6465782D4461746569656E2F6264
:102AC000616C6B652E6769662220616C743D222201
:102AD000206865696768743D223130222077696417
:102AE00074683D22255641403030223E3C2F7464AC
:102AF0003E0D0A3C74643E2556414030303C2F74F4
:102B0000643E0D0A3C74643E2556414030313C2FF2
:102B100074643E0D0A3C2F74723E3C74723E0D0A82
:102B20003C74643E4368616E6E656C312044485469
:102B300031313C2F74643E0D0A3C74642073747907
:102B40006C653D22746578742D616C69676E3A6CB2
:102B5000656674223E3C696D67207372633D22692D
:102B60006E6465782D4461746569656E2F62616C71
:102B70006B652E6769662220616C743D2222206895
:102B800065696768743D2231302220776964746812
:102B90003D22255641403032223E3C2F74643E0D8A
:102BA0000A3C74643E2556414030323C2F74643EEA
:102BB0000D0A3C74643E2556414030333C2F74640A
:102BC0003E0D0A3C2F74723E3C74723E0D0A3C2F3F
:102BD00074723E0D0A3C2F7461626C653E0D0A3CB6
:102BE0002F6469763E3C6469762069643D22746195
:102BF000696C223E3C6120687265663D226874748F
:102C0000703A2F2F7777772E756C726963687261CF
:102C10006469672E6465223E7777772E756C7269DA
:102C2000636872616469672E64653C2F613E20555C
:102C30006C72696368205261646967203230303891
:102C40003C2F6469763E0D0A3C2F626F64793E3CEE
:102C50002F68746D6C3E25454E44004765742050C6
:102C60004F4E473A2025692E25692E25692E256964
:102C70000D0A004552524F520D0A0D0A005265616D
:102C800064790D0A0D0A000D0A00475720202025FF
:102C900031692E2531692E2531692E2531690D0ABC
:102CA000004D41534B202531692E2531692E2531A8
:102CB000692E2531690D0A000D0A49502020202572
:102CC00031692E2531692E2531692E2531690D0A8C
:102CD00000436F6D70696C69657274206D69742052
:102CE0004743432056657273696F6E20352E342E2C
:102CF000300D0A00436F6D70696C696572742061F4
:102D00006D204A756C203133203230313920756D99
:102D10002031323A32303A30300D0A000A0D537900
:102D20007374656D2052656164790A0D00040005B5
:102D30001A06FF071F080009000AFF0B19C100C08F
:102D40000DC233CAEECB05C415C612E400E520E27D
:102D500018E3B1E015E16F7500FFFF0001001407F3
:102D600042FFFF53746172742054656C6E65742069
:102D70005365727665723A0D0A0011241FBECFE5C5
:102D8000D8E0DEBFCDBF11E0A0E6B0E0EAE2F5E7B3
:102D900002C005900D92A03AB107D9F725E0A0EA4C
:102DA000B1E001C01D92AB3EB207E1F70E94CC2317
:102DB0000C94933A0C940000CF93DF93FC01908124
:102DC000992309F462C096959695DB019C939081B6
:102DD00093709295907F11969C932181211115C03B
:102DE00010C0869586958C83E9019B81937092959E
:102DF000907F11969C93119733962181211107C0E2
:102E000001C0DB01129682E048C0EB0101C0ED0178
:102E100022952F70920F99839F0191819F70990F36
:102E2000990F9A838281811104C0DE01139681E09B
:102E300034C08295869586958370980F9A83DE01BB
:102E4000149682818F738B8383818111CACF2AC0AC
:102E500080E0EB01E881EF73F0E0EC5AFF4FE49182
:102E6000E993CA17DB07B1F72FEF280F882359F032
:102E7000822FFD019DE391938150E8F7822F90E02E
:102E80000196A80FB91F1C9212C0FB011082DB0132
:102E9000FACF2FEF280FDB01EBCF1C926A177B07CD
:102EA000C1F6F7CF1C826A177B0791F6ECCFDF9152
:102EB000CF910895E0E0F0E0099408950895089511
:102EC000E4E7F3E085811F928F9384811F928F93B3
:102ED00083811F928F9382811F928F9381811F9292
:102EE0008F9380811F928F9387E691E09F938F93BA
:102EF0000E94C3348DB79EB70E960FB6F8949EBF4E
:102F00000FBE8DBF08958091A4011F928F938FE40F
:102F100091E09F938F930E94C3340F900F900F9076
:102F20000F9008952F923F924F925F926F927F92EF
:102F30008F929F92AF92BF92CF92DF92EF92FF92C9
:102F40000F931F93CF93DF93812C912C0F2EF2E4DC
:102F5000AF2EF1E0BF2EF02D0F2EFDE3CF2EF1E0CE
:102F6000DF2EF02D0F2EF8E3EF2EF1E0FF2EF02DE7
:102F70000F2EF3E36F2EF1E07F2EF02D0F2EFEE2E9
:102F80004F2EF1E05F2EF02D0F2EF9E22F2EF1E003
:102F90003F2EF02D8401000F111FE801C80DD91D2F
:102FA000CC0FDD1FCC0FDD1FCA5CDD4F88811F9267
:102FB0008F939F928F92BF92AF920E94C334898168
:102FC0001F928F93DF92CF920E94C3348A811F9207
:102FD0008F93FF92EF920E94C3348B811F928F9345
:102FE0007F926F920E94C3348C811F928F935F9265
:102FF0004F920E94C3348D811F928F933F922F92E4
:103000000E94C3348E819F81A885B9859927AA27FC
:10301000BB27BF93AF939F938F9320E231E03F9301
:103020002F930E94C3348E819F81A885B9852DB7C7
:103030003EB7205E3F4F0FB6F8943EBF0FBE2DBF88
:10304000892F90E0A0E0B0E0BF93AF939F938F9360
:103050008BE191E09F938F930E94C3348E819F8177
:10306000A885B9858A2F90E0A0E0B0E0BF93AF9328
:103070009F938F9386E191E09F938F930E94C33437
:103080008E819F81A885B9858B2F9927AA27BB2779
:10309000BF93AF939F938F9381E191E09F938F9321
:1030A0000E94C3348A859B859F938F9384E091E02F
:1030B0009F938F930E94C3343FEF831A930A8DB777
:1030C0009EB746960FB6F8949EBF0FBE8DBF95E093
:1030D0008916910409F05ECFDF91CF911F910F9176
:1030E000FF90EF90DF90CF90BF90AF909F908F9028
:1030F0007F906F905F904F903F902F9008952F9208
:103100003F924F925F926F927F928F929F92AF9277
:10311000BF92CF92DF92EF92FF920F931F93CF93C4
:10312000DF9300E010E00F2EF0E0AF2EF1E0BF2EB5
:10313000F02D0F2EF7EFCF2EF0E0DF2EF02D0F2E1B
:10314000F2EFEF2EF0E0FF2EF02D0F2EFDEE8F2E82
:10315000F0E09F2EF02D0F2EF8EE6F2EF0E07F2E78
:10316000F02D0F2EFDED4F2EF0E05F2EF02D0F2EE7
:10317000F0ED2F2EF0E03F2EF02D1F930F93BF9216
:10318000AF920E94C33426E1209FE001219FD00D21
:103190001124C857DD4F88819981AA81BB81992765
:1031A000AA27BB27BF93AF939F938F93DF92CF92B2
:1031B0000E94C33488819981AA81BB81892F90E0C4
:1031C000A0E0B0E0BF93AF939F938F93FF92EF92F5
:1031D0000E94C33488819981AA81BB818A2F90E0A3
:1031E000A0E0B0E0BF93AF939F938F939F928F9295
:1031F0000E94C33488819981AA81BB818B2F992732
:10320000AA27BB27BF93AF939F938F937F926F9211
:103210000E94C3342C813D818C819D81322F2227D5
:10322000892F9927822B932B9F938F935F924F9295
:103230000E94C3348B892DB73EB7205E3F4F0FB637
:10324000F8943EBF0FBE2DBF1F928F933F922F92D7
:103250000E94C3340F5F1F4F0F900F900F900F907D
:103260000530110509F089CFDF91CF911F910F91A2
:10327000FF90EF90DF90CF90BF90AF909F908F9096
:103280007F906F905F904F903F902F900895A3E7AD
:10329000B2E0ED91FC91119712968D919C9113974C
:1032A000EE0FFF1FEB55FF4F91838083ED91FC9153
:1032B00011978D919C91EE0FFF1FEB55FF4F2181D0
:1032C0002F9320812F939F938F938FEA90E09F936A
:1032D0008F930E94C3340F900F900F900F900F9018
:1032E0000F9008954F925F926F927F928F929F926C
:1032F000AF92BF92CF92DF92EF92FF9280900E0337
:1033000090900F03A0901003B090110340900E0313
:1033100050900F03609010037090110360910E03A2
:1033200070910F0380911003909111030F2EFCE315
:10333000CF2ED12CE12CF12CF02DA70196010E946B
:10334000B0371F926F93C301B201A70196010E948B
:10335000B037CA01B901A70196010E94B0371F9288
:103360006F93C501B40120E13EE040E050E00E94CF
:10337000B037CA01B90128E130E040E050E00E94D6
:10338000B0371F926F9389E990E09F938F930E94CB
:10339000C3348DB79EB708960FB6F8949EBF0FBE84
:1033A0008DBFFF90EF90DF90CF90BF90AF909F9038
:1033B0008F907F906F905F904F900895EF92FF9263
:1033C0001F93CF93DF93CAEDD1E00F2EF6E9EF2ED6
:1033D000F0E0FF2EF02DFE0114911F921F93FF923B
:1033E000EF920E94C33421960F900F900F900F9090
:1033F0001111F1CFDF91CF911F91FF90EF900895C0
:10340000EF92FF920F931F93CF93DF9380917302FC
:1034100090917402892B09F448C0A3E7B2E0ED91C2
:10342000FC91119712968D919C91139714964D9142
:103430005C91159716962D913C911797A0E0B0E0FE
:10344000BA2FA92F982F882760E070E0BA0155277E
:103450004427840F951FA61FB71F8E0F9F1FA11D06
:10346000B11DA90160E070E0742F6627552744273D
:103470008C019D01040F151F261F371FC901B801BC
:10348000C3EDD5E0088319832A833B830E94B531BD
:10349000688179818A819B81EE24E394F12C01E09B
:1034A00010E020E048E00E94E02BDF91CF911F91D7
:1034B0000F91FF90EF900895CF92DF92FF920F93BC
:1034C0001F93CF93DF9300D0CDB7DEB79A83898364
:1034D0006AEE70E0CE0101960E94BA398C01F12C9F
:1034E0000DC0F394EF2DF0E0EE0FFF1FEE0FFF1F66
:1034F000E05AFF4F80819181892BB9F1CF2CD12CDB
:10350000F601EE0FFF1FEE0FFF1FE05AFF4FB8014D
:10351000808191810E944039892B19F700E010E0E9
:1035200068EE70E0CE0101960E94BA3940E050E0AA
:1035300060E070E00E94D237F801EE0FFF1FED58F7
:10354000FD4F718360830F5F1F4F0A30110541F7F4
:10355000F601EE0FFF1FEE0FFF1FE05AFF4F028034
:10356000F381E02D099581E001C080E00F900F907C
:10357000DF91CF911F910F91FF90DF90CF90089531
:103580000F931F93CF93DF932091730230917402B6
:10359000232BA9F08C01C0E0D0E0E199FECFFE0121
:1035A000EE0FFF1FED58FD4F60817181C8018C0F38
:1035B0009D1F0E94253A2196C430D10571F7DF91F5
:1035C000CF911F910F910895CF93DF938EE190E0FB
:1035D0000E94C01A40EC58EA62E07EE68EE190E07C
:1035E0000E949727C9EDD5E0688379838A839B83FE
:1035F0008B811F928F938A811F928F9389811F9253
:103600008F9388811F928F9381EC91E09F938F938A
:103610000E94C3348091E1059091E205A091E305F9
:10362000B091E405488159816A817B8148235923FF
:103630006A237B2380959095A095B095842B952B3C
:10364000A62BB72B8093E5059093E605A093E7059D
:10365000B093E8058DB79EB70A960FB6F8949EBF53
:103660000FBE8DBFDF91CF910895CF93DF9382E29C
:1036700090E00E94C01A4FEF5FEF6FEF70E082E2C0
:1036800090E00E949727C1EED5E0688379838A8312
:103690009B838B811F928F938A811F928F93898145
:1036A0001F928F9388811F928F9386EA91E09F9358
:1036B0008F930E94C33488819981AA81BB814091F4
:1036C000D9055091DA056091DB057091DC0548233E
:1036D00059236A237B2380959095A095B095842BE0
:1036E000952BA62BB72B8093E5059093E605A09329
:1036F000E705B093E8058DB79EB70A960FB6F89424
:103700009EBF0FBE8DBFDF91CF91089586E290E0FE
:103710000E94C01A40EC58EA62E071E086E290E054
:103720000E949727EDEDF5E0608371838283938398
:1037300083811F928F9382811F928F9381811F9229
:103740008F9380811F928F9389E891E09F938F934D
:103750000E94C3348DB79EB70A960FB6F8949EBFE9
:103760000FBE8DBF0895BF92CF92DF92EF92FF926E
:103770000F931F93CF93DF9300D000D01F92CDB74C
:10378000DEB7FE01319625E0DF011D922A95E9F7AB
:103790002AB3E1E0F0E0042E02C0EE0FFF1F0A940E
:1037A000E2F72E2B2ABB2BB32E2B2BBBBFEF2FE523
:1037B00033E0B15020403040E1F700C000003BB39F
:1037C0002E2F209532233BBBA6E6B2EC1197F1F7E2
:1037D00000003BB33E2B3BBB3AB323232ABBB3E9E8
:1037E000BA95F1F700C029B330E0042E02C0359538
:1037F00027950A94E2F720FD71C0ADEDB0E0119776
:10380000F1F729B330E002C0359527954A95E2F7E4
:1038100020FF66C0ADEDB0E01197F1F79E012F5F7C
:103820003F4F79016E0136E0C30ED11C01E010E07C
:1038300032C04150510919F455C049EC50E029B348
:1038400030E02E233F23232BA1F34EE64A95F1F7D8
:1038500000C029B330E02E233F23232B41F09801F1
:103860000A2E02C0220F331F0A94E2F7B22A49EC53
:1038700050E003C041505109B9F129B330E02E2383
:103880003F23232BB9F71197C0F6D701BD927D01D5
:10389000CA16DB0621F0A7E0B0E0B12CCECF2AB3E8
:1038A0002E2B2ABB2BB3E22BEBBBBFEFEFE5F3E0F4
:1038B000B150E040F040E1F700C0000049815B8179
:1038C0002A81240F250F3C81230F3D8123130EC035
:1038D000DC015C93FB01408380E009C08FEF07C0EF
:1038E0008FEF05C08FEF03C08FEF01C08FEF0F90F8
:1038F0000F900F900F900F90DF91CF911F910F912C
:10390000FF90EF90DF90CF90BF900895BF92CF923D
:10391000DF92EF92FF920F931F93CF93DF9300D02C
:1039200000D01F92CDB7DEB7FE01319625E0DF0152
:103930001D922A95E9F72AB3E1E0F0E0042E02C0D7
:10394000EE0FFF1F0A94E2F72E2B2ABB2BB32E2B70
:103950002BBBBFEF2FE533E0B15020403040E1F703
:1039600000C000003BB32E2F209532233BBBA6E6C0
:10397000B5E01197F1F700003BB33E2B3BBB3AB3E8
:1039800023232ABBB3E9BA95F1F700C029B330E08D
:10399000042E02C0359527950A94E2F720FDACC0AD
:1039A000ADEDB0E01197F1F729B330E002C03595E5
:1039B00027954A95E2F720FFA1C0ADEDB0E0119741
:1039C000F1F79E012F5F3F4F79016E0136E0C30E84
:1039D000D11C01E010E033C04150510919F490C0EE
:1039E00049EC50E029B330E02E233F23232BA1F3F1
:1039F0004EE64A95F1F700C029B330E02E233F236D
:103A0000232B41F098010A2E02C0220F331F0A9483
:103A1000E2F7B22A49EC50E004C04150510909F4E0
:103A200071C029B330E02E233F23232BB1F7119728
:103A3000B8F6D701BD927D01CA16DB0621F0A7E0DA
:103A4000B0E0B12CCDCF2AB32E2B2ABB2BB3E22B67
:103A5000EBBBBFEFEFE5F3E0B150E040F040E1F742
:103A600000C0000059810A814B812C81352F300F15
:103A7000340F320FED813E1347C07B016C0110E023
:103A8000152B622F70E0742B7723A4F47F7780E0EE
:103A900090E00E94223720E030E040E251E40E94B2
:103AA0008136DC01CB01B058F60180839183A2837B
:103AB000B38310C080E090E00E94223720E030E025
:103AC00040E251E40E948136D6016D937D938D933F
:103AD0009C931397B80180E090E00E94223720E089
:103AE00030E040E251E40E948136F7016083718347
:103AF0008283938380E009C08FEF07C08FEF05C0FA
:103B00008FEF03C08FEF01C08FEF0F900F900F90DA
:103B10000F900F90DF91CF911F910F91FF90EF9039
:103B2000DF90CF90BF90089562E173E08DE291E065
:103B30000E94DC1666E573E281EE90E10E9498280F
:103B400008959DE0899FF0011124DF01A85CBC4F1E
:103B50008C91807EE05DFC4F138212821182108274
:103B600082608F7D8C9382E193E0958384838FEBD9
:103B700090E0928781878AEB90E09487838780EA40
:103B800090E09783868308952F923F924F925F92A1
:103B90006F927F928F929F92AF92BF92CF92DF925D
:103BA000EF92FF920F931F93CF93DF93982E809104
:103BB000A803807FA82EB12CB594A794B594A794A0
:103BC000350122E2620E711C6DE873E0C301865874
:103BD0009C4F0E947839892B49F03DE0939EF0017B
:103BE0001124E85CFC4F808180628083092D10E005
:103BF0004DE0949EF0011124E05DFC4F0680F781BA
:103C0000E02D8081882309F467C0C301EAE7F3E06F
:103C1000208930E0322F22274189240F311D2E5D6B
:103C20003F4F2A193B096216730608F055C0E5019B
:103C3000C456DC4F4DE0409FF001419FF00D112430
:103C4000DF01A85CBC4F7D01E05DFC4FBF016C5FF4
:103C50007F4F0F2EF2E14F2EF3E05F2EF02D3696C0
:103C60000F2EF0EACF2EF0E0DF2EF02DD7014C9191
:103C700040FD1CC08880DB012D903C901197A10174
:103C80004F5F5F4F4D935C93D1014C91841619F0B7
:103C9000DB014D925C92DB014D915C91DA014C911C
:103CA000411104C0D7014C9141604C938990A0818F
:103CB000B181AD014F5F5F4F518340834C918416BA
:103CC00011F0D182C082A081B1814C91442321F0B6
:103CD00001968217930750F28DE0809FF001819F3B
:103CE000F00D1124E85CFC4F808180FF9BC08DE0CB
:103CF000809FF001819FF00D1124E85CFC4F8081D2
:103D000085FF90C0EAE7F3E0208930E0322F2227D8
:103D10008189280F311D2E5D3F4F2A193B096216FC
:103D2000730608F07FC0C50184569C4F4DE0409F4C
:103D3000D001419FB00D1124A05DBC4FFD0139960B
:103D40004FEB50E01B960F2EFAEBEF2EF0E0FF2E1C
:103D5000F02DEC01D990CE01C081D181BE016F5F01
:103D60007F4F718360836881D61611F05183408341
:103D7000C081D181688161111CC0EC01688163340C
:103D800089F0663419F0623491F406C06091A001A4
:103D90006F5F6093A0010BC06091A0016E5F6093A4
:103DA000A00105C06091A0016C5F6093A0015183E8
:103DB0004083CD91DC911197BE016F5F7F4F1196CB
:103DC0007C936E936881D61619F01196FC92EE9250
:103DD000CD91DC911197688161111DC08DE0809FAC
:103DE000F001819FF00D1124E85CFC4F80818F7DF4
:103DF00080838091A00180FF04C091E09093B9007E
:103E000002C01092B90081FF02C0A99801C0A99A0E
:103E10001092A00107C0DFEF6D1A7D0A62167306CB
:103E200008F497CF8DE0809FF001819FF00D112461
:103E3000E05DFC4F82819381892B09F0DBC0AAE70A
:103E4000B3E09E96EC919E97E07FF0E0F595E795C4
:103E5000F595E795CF01879650962C91509730E0D5
:103E6000322F222751964C91240F311D2E5D3F4F4A
:103E70002E1B3F0B82179307A8F4DC01A658BC4FFA
:103E80004C914D3049F403C041914D3039F4FC015F
:103E9000E658FC4F108206C0EE55FC4F0196821783
:103EA000930790F38DE0809FF001819FF00D112426
:103EB000E05DFC4F13821282C090C400D090C50018
:103EC000C114D10409F496C08091A803807FE82E24
:103ED000F12CC70195958795959587959C0124565A
:103EE0003C4F7901C0E0D0E0B12CB601C7010E947F
:103EF0005339892B09F46EC06AE371E0C6010E9450
:103F00005339892B69F08DE0809FF001819FF00D7E
:103F10001124E85CFC4F8081817F8860808347C0EA
:103F200065E871E0C6010E945339892B69F08DE084
:103F3000809FF001819FF00D1124E85CFC4F80818F
:103F4000817F8A60808333C065E671E0C6010E948C
:103F50005339892B69F08DE0809FF001819FF00D2E
:103F60001124E85CFC4F8081817F826080831FC0C8
:103F700060E771E0C6010E945339892B69F08DE03A
:103F8000809FF001819FF00D1124E85CFC4F80813F
:103F9000817F866080830BC08DE0809FF001819FD0
:103FA000F00D1124E85CFC4F8081817F80838DE0DF
:103FB000809FF001819FF00D1124E05DFC4FCC0F3C
:103FC000DD1FCC0FDD1FCC53DF4F8A819B81938394
:103FD000828310C0B394CB2DD0E0FE01EE0FFF1F03
:103FE000EE0FFF1FEC53FF4FC080D180C114D104EE
:103FF00009F07BCF8DE0809FF001819FF00D1124AF
:10400000E05DFC4F0680F781E02D808181110BC0BF
:104010008DE0809FF001819FF00D1124E85CFC4F42
:10402000808185FF14C086E1809FE001819FD00DD3
:104030001124C857DD4F80E1888B692D80E090E026
:104040000E948D2D81E090E09A8B898B34C18DE0A8
:10405000809FF001819FF00D1124E85CFC4F80816E
:1040600080FD3BC086E1809FF001819FF00D11240F
:10407000E857FD4F808983FF30C08DE0809FF001BD
:10408000819FF00D1124E05DFC4F82E993E0938362
:1040900082838091A803807F90E095958795959580
:1040A000879541E850E06FEE74E084569C4F0E9483
:1040B0000F3986E1809FE001819FD00D1124C85700
:1040C000DD4F88E1888B692D81E890E00E948D2D7D
:1040D00082E090E09A8B898BEEC08DE0809FF001AA
:1040E000819FF00D1124E05DFC4F82819381892B2B
:1040F000E1F4E5EAF0E0828993890196938B828B63
:104100008DE0809FF001819FF00D1124DF01A05D03
:10411000BC4F88E195E213969C938E931297E85CCE
:10412000FC4F8081817F8260808386E1809FF001E7
:10413000819FF00D1124E857FD4F82E090E0928BB3
:10414000818B8DE0809FF001819FF00D1124E85C50
:10415000FC4F808186958770833009F48DC028F4E8
:10416000882351F0813041F1A6C0843009F444C065
:10417000853009F461C09FC08091A803807F90E0E2
:10418000959587959595879548E550E069EC75E09C
:1041900084569C4F0E940F3986E1809FF001819FD9
:1041A000F00D1124E857FD4F88E1808B692D88E5DB
:1041B00090E00E948D2D7FC08091A803807F90E0C9
:1041C000959587959595879547E550E061E775E06A
:1041D00084569C4F0E940F3986E1809FF001819F99
:1041E000F00D1124E857FD4F88E1808B692D87E59C
:1041F00090E00E948D2D5FC08091A803807F90E0A9
:10420000959587959595879548E550E066E974E022
:1042100084569C4F0E940F3986E1809FF001819F58
:10422000F00D1124E857FD4F88E1808B692D88E55A
:1042300090E00E948D2D3FC08091A803807F90E088
:10424000959587959595879547E750E06EE174E0E1
:1042500084569C4F0E940F3986E1809FF001819F18
:10426000F00D1124E857FD4F88E1808B692D87E719
:1042700090E00E948D2D1FC08091A803807F90E068
:10428000959587959595879546E750E067EA73E0A1
:1042900084569C4F0E940F3986E1809FF001819FD8
:1042A000F00D1124E857FD4F88E1808B692D86E7DA
:1042B00090E00E948D2DDF91CF911F910F91FF9083
:1042C000EF90DF90CF90BF90AF909F908F907F90B6
:1042D0006F905F904F903F902F9008954F925F9214
:1042E0006F927F928F929F92AF92BF92CF92DF9206
:1042F000EF92FF920F931F93CF93DF93CDB7DEB76B
:104300002A970FB6F894DEBF0FBECDBF582E682E89
:10431000712C2DE0829FF0011124E85CFC4F80811C
:1043200080FD0CC08DE0869DF001879DF00D11246D
:10433000E05DFC4F82E993E09383828386E1869D72
:10434000F001879DF00D1124E857FD4F8089811100
:104350000CC08DE0869DF001879DF00D1124E05D7D
:10436000FC4F80819181938382838DE0869DF00153
:10437000879DF00D1124E05DFC4F82819381918334
:10438000808300E010E02DE0269DC001279D900D68
:104390001124AC014E5C5C4F6A0188248394912CFB
:1043A000412CF601E080F180B7016F5F7F4F718390
:1043B0006083F70184915801F6E3AF0EB11CF5015B
:1043C000E658FC4F8083853209F044C143E050E059
:1043D0008FE391E00E941F39892BB1F5F7013496E4
:1043E000E491EE0FE0568E2F880F880F8E0FF701A5
:1043F0003596E491E80FE053F0E0EE0FFF1FEB5528
:10440000FF4F4AE0BE016F5F7F4F808191810E9424
:10441000DD396AE070E0CE0101960E94AF397C017F
:10442000FF24A701BE016F5F7F4FC50186589C4FD7
:104430000E943739015011090E0D1F1DF6018081B0
:104440009181059691838083F601E080F18044E0BC
:1044500050E0B70183E491E00E941F39892B51F0AD
:1044600044E050E0B70188E491E00E941F39892BB5
:1044700009F061C0F7013596E49180ED8E0FF701E8
:104480003496E491E334B1F018F4E23441F028C0FA
:10449000E434D9F0E63421F58091B90022C095B317
:1044A0009095940102C0220F331F8A95E2F7892F5D
:1044B000822317C025B32095A40102C0440F551FC5
:1044C0008A95E2F7CA0182230CC025B32095F40136
:1044D00002C0EE0FFF1F8A95E2F7CF01822301C0D1
:1044E000842D882339F065E873E0CE0101960E949F
:1044F000183906C063E873E0CE0101960E941839AE
:104500006AE070E0CE0101960E94AF397C01FF2481
:10451000A701BE016F5F7F4FC80180559C4F0E946D
:104520003739015011090E0D1F1DF601808191814F
:10453000069691838083F601E080F18043E050E0AD
:10454000B7018DE491E00E941F39892B09F06AC000
:10455000F7013496E49180ED8E0FF7013396E491E4
:10456000E234A1F018F4E13431F031C0E334C9F0A1
:10457000E43411F12CC093B39095940102C0220F42
:10458000331F8A95E2F7892F822322C023B3209517
:10459000A40102C0440F551F8A95E2F7CA01822385
:1045A00017C023B32095F40102C0EE0FFF1F8A95B8
:1045B000E2F7CF0182230CC023B32095A40102C0EF
:1045C000440F551F8A95E2F7CA01822301C0842D4A
:1045D000882339F069E773E0CE0101960E9418390B
:1045E00006C06EE673E0CE0101960E9418396AE0BB
:1045F00070E0CE0101960E94AF397C01FF24A70133
:10460000BE016F5F7F4FC80180559C4F0E943739B4
:10461000015011090E0D1F1DF60180819181059633
:1046200091838083F6016081718143E050E081E5F0
:1046300091E00E941F39892B69F486E1869DF00183
:10464000879DF00D1124E857FD4F8DEF9FEF928B62
:10465000818B07C00F5F1F4F0C38F1E01F0708F474
:10466000A0CE86E1869DF001879DF00D1124E857CC
:10467000FD4F88E1808B652DC8010E948D2D2A9603
:104680000FB6F894DEBF0FBECDBFDF91CF911F9163
:104690000F91FF90EF90DF90CF90BF90AF909F90E1
:1046A0008F907F906F905F904F9008950F931F931E
:1046B000CF93082F10E026E1829FF0011124E857E4
:1046C000FD4F908990FD64C0C82F86E1809FF00166
:1046D000819FF00D1124E857FD4F81899289019740
:1046E00019F4802F0E94A11D86E1809FF001819F17
:1046F000F00D1124E857FD4F81899289039720F42A
:104700008C2F0E94C41D44C086E1809FF001819FD0
:10471000F00D1124E857FD4F818992890397E0F04D
:1047200086E1809FF001819FF00D1124E857FD4F35
:10473000818992898E3F9F4F78F486E1809FF001B6
:10474000819FF00D1124E857FD4F8089803121F4BD
:104750008C2F0E946E211CC086E1809FF001819FFA
:10476000F00D1124E857FD4F818992898E3F9F4FAC
:1047700078F086E1809FF001819FF00D1124E857C9
:10478000FD4F8EEF9FEF928B818B8C2F0E942A2EF4
:10479000CF911F910F910895CF93DF93CDB7DEB7DF
:1047A0002A970FB6F894DEBF0FBECDBF8FEF84BB44
:1047B00011BA15BA19821A821B821C821D821E82AE
:1047C0001F82188619861A8660E875E280E090E0FC
:1047D0000E9488348CE19DE29F938F930E94C334A2
:1047E00084EF9CE29F938F930E94C33481ED9CE2FF
:1047F0009F938F930E94C3340F900F900F900F9050
:104800000F900F9080E492E4AFE0B0E000000197D9
:10481000A109B109D9F70E94E2270E94941D0E94C4
:104820007B328BB780628BBF7894E9EDF5E08381B2
:104830001F928F9382811F928F9381811F928F93FA
:1048400080811F928F9388EB9CE29F938F930E94AD
:10485000C334E1EEF5E083811F928F9382811F9232
:104860008F9381811F928F9380811F928F9381EA12
:104870009CE29F938F930E94C334EDEDF5E083811A
:104880001F928F9382811F928F9381811F928F93AA
:1048900080811F928F938AE89CE29F938F930E945E
:1048A000C3340FB6F894DEBF0FBECDBFB12C0F2EB0
:1048B000F7E8CF2EFCE2DF2EF02D03ED15E00F2EF2
:1048C000FBE5EF2EFCE2FF2EF02D0F2EF5EA2F2E4A
:1048D000F0E03F2EF02D0E948A318091D10180FFBF
:1048E00022C0DF92CF920E94C33482ED91E00E94F9
:1048F0005C1A0F900F90882349F0EDE7FCE2FF93DC
:10490000EF930E94C3340F900F9008C083E79CE29E
:104910009F938F930E94C3340F900F908091D10189
:104920008E7F8093D1010E94823280910E039091FC
:104930000F03A0911003B0911103481659066A069F
:104940007B0661F040900E0350900F0360901003BF
:10495000709011030E945427B39402C02C013D01B2
:10496000F80185818823B9F083811F928F9382811A
:104970001F928F9381811F928F9380811F928F93BB
:10498000FF92EF920E94C334F80115820FB6F8949B
:10499000DEBF0FBECDBF95E0B9129DCFF8948091D8
:1049A000B900813011F4A8984EC040E0BE016B5FA1
:1049B0007F4FCE0101960E94861C8F3F51F041E04F
:1049C000BE01665F7F4FCE0109960E94B31B8F3FE9
:1049D00059F4F1011182108213821282158214821D
:1049E00017821682A8982FC069817A818B819C8159
:1049F0000E94F3364B015C01F101718360836D818C
:104A00007E818F8198850E94F336F10173836283E2
:104A10002985422F220F550B558344832A85022E68
:104A2000000C330B37832683840E951EFEE38F160E
:104A3000910430F4A901460F571F4E38510510F06C
:104A4000A89801C0A89A7894B12C45CF019728F076
:104A50000000000000000000F9CF0895C3988F7196
:104A6000806A8FB9779BFECF6FB9779BFECFC39AD1
:104A70000895C3988F7180688FB9779BFECF6FB907
:104A8000779BFECFC39A0895FF920F931F93CF9306
:104A9000DF93C82FD82FDF71DA31E8F4082F0076C2
:104AA00010E015950795159507951595079515959A
:104AB0000795159507958091A301081761F063E0AC
:104AC0008FE10E942E25002321F0602F8FE10E94AC
:104AD00039250093A301C398DFB9779BFECF1FB898
:104AE000779BFECFCC231CF41FB8779BFECF8FB1F2
:104AF000C39ADF91CF911F910F91FF900895FF927C
:104B00000F931F93CF93DF93062F182F1F711A3126
:104B1000E8F48076C82FD0E0D595C795D595C79590
:104B2000D595C795D595C795D595C7958091A3017E
:104B3000C81761F063E08FE10E942E25CC2321F09D
:104B40006C2F8FE10E943925C093A301C398106494
:104B50001FB9779BFECF0FB9779BFECFC39ADF912A
:104B6000CF911F910F91FF900895CF93DF93D62F90
:104B7000C72F682F84ED0E947F256D2F86ED0E9440
:104B80007F256C2F87ED0E947F258AE090E00E94B0
:104B900026258AEE0E94442580FDFBCFDF91CF9130
:104BA0000895FC01C3988AE38FB9779BFECF611506
:104BB000710551F06E0F7F1F1FB8779BFECF8FB12D
:104BC0008193E617F707C1F7C39A0895C3982AE7B8
:104BD0002FB9779BFECF6115710551F0FC01680F6D
:104BE000791F91919FB9779BFECF6E177F07C9F709
:104BF000C39A0895CF92DF92EF92FF920F931F9383
:104C0000CF93DF931F92CDB7DEB77C016B01198282
:104C100004E610E08FE10E94442583FF07C088EE80
:104C200093E00E94262501501109A1F78FE10E940F
:104C3000442583FF08C060E88FE10E94392560E8C1
:104C40008FE10E942E2560E082E00E947F256AE1CC
:104C500083E00E947F256E2D86E00E947F25C7019C
:104C6000965E692F87E00E947F2561E070E0CE01AB
:104C700001960E94E625B701C6010E94E62568E07C
:104C80008CE10E942E2568E08FE10E9439250F906B
:104C9000DF91CF911F910F91FF90EF90DF90CF9018
:104CA00008950F931F93CF93DF93BB9AC39A87B353
:104CB000806A87BBC79ABE98BC9A80E58DB981E0AF
:104CC0008EB980E197E20E942625C3988FEF8FB9B5
:104CD000779BFECFC39A88EE93E00E9426258DE154
:104CE0000E94442580FFFBCF82E70E9444258093E9
:104CF000A401E4E7F3E0108280E2818388E182830B
:104D000081EB838385E184838FE6858300E010E077
:104D1000F801E35DF24D84910E5F1F4FE801F80149
:104D2000E45DF24D64918F3F11F46F3F19F00E94E2
:104D30007F25EECFC35DD24DFE0184913196649103
:104D40008F3F11F46F3F59F070E0762F6627FE0118
:104D50003296E4916E2B0E94B5252396EDCF1092EA
:104D6000A2011092A10160EC8BE10E947F2564E01A
:104D70008FE10E943925DF91CF911F910F91089506
:104D8000CF92DF92EF92FF920F931F93CF93DF9317
:104D900000D000D000D0CDB7DEB78C016B0189E325
:104DA0000E944425882309F46EC06091A10170918E
:104DB000A20180E00E947F258091A1019091A20133
:104DC000692F81E00E947F2566E070E0CE010196A8
:104DD0000E94D125898190E09093A2018093A10146
:104DE0008091A1019091A2012A81922B9093A2011E
:104DF0008093A101EB808C81F12CF82A8D812E818A
:104E000090E0922B87FF05C099231CF00E151F051B
:104E100010F40E94512624E0E21AF108E016F1068F
:104E200008F48701B801C6010E94D1258091A10133
:104E30009091A201019781159A41B0F48091A1014E
:104E40009091A2016091A1017091A20161508CE04A
:104E50000E947F258091A1019091A2010197692F65
:104E60008DE00E947F2508C06FEF8CE00E947F25B7
:104E700069E18DE00E947F2560E48EE10E94392582
:104E8000802F912F02C080E090E026960FB6F89414
:104E9000DEBF0FBECDBFDF91CF911F910F91FF906D
:104EA000EF90DF90CF90089580EC0E9444258D30E4
:104EB00031F482EC0E9444258273823311F00E9407
:104EC00051260895CF92DF92EF92FF920F931F9396
:104ED000C92EDD24EE24FF24362F22271127002798
:104EE0000C0D1D1D2E1D3F1D6B017C01CC24DD24EE
:104EF000FF24CD2CDE2CEF2CFF240C0D1D1D2E1DB0
:104F00003F1DDC01CB018827AA27BB27BA2FA92F79
:104F1000982F8827BC01CD01600F711F821F931F3E
:104F20001F910F91FF90EF90DF90CF9008958F9297
:104F30009F92AF92BF92CF92DF92EF92FF920F9328
:104F40001F93CF93DF9300D000D0CDB7DEB7842E70
:104F5000952EA62EB72E9E012F5F3F4F6E0145E086
:104F6000C40ED11C89017C01E21AF30AE199FECF3B
:104F7000C701800F911F0E941D3AF80181938F0194
:104F8000EC15FD0599F769817A818B819C816F3FD2
:104F9000FFEF7F078F079F0721F4682D792D8A2D5A
:104FA0009B2D0F900F900F900F90DF91CF911F913D
:104FB0000F91FF90EF90DF90CF90BF90AF909F90B8
:104FC0008F9008950F931F93CF93DF930E943C34EB
:104FD00040EC58EA62E07EE68EE190E00E9497277E
:104FE000C9EDD5E0688379838A839B834FEF5FEFB8
:104FF0006FEF70E082E290E00E94972701EE15E0EB
:10500000F801608371838283938340EC58EA62E005
:1050100071E086E290E00E9497276093DD0570932F
:10502000DE058093DF059093E005F8018081918192
:10503000A281B381488159816A817B8148235923A8
:105040006A237B2380959095A095B095842B952B12
:10505000A62BB72B8093E5059093E605A093E70573
:10506000B093E805E4E7F3E0108280E2818388E111
:10507000828381EB838385E184838FE685830E942D
:105080005126DF91CF911F910F91089580E090E01C
:10509000FC01EE0FFF1FE80FF91FEE0FFF1FEE0FD1
:1050A000FF1FEA5CFD4F22853385232B01F59C0110
:1050B000220F331FF901E80FF91FEE0FFF1FEE0F4C
:1050C000FF1FEA5CFD4F108211821282138214824C
:1050D0001582F901E80FF91FEE0FFF1FEE0FFF1FFA
:1050E000EA5CFD4F16821782108611861BC09C0158
:1050F000220F331FF901E80FF91FEE0FFF1FEE0F0C
:10510000FF1FEA5CFD4F4285538541505109F9016B
:10511000E80FF91FEE0FFF1FEE0FFF1FEA5CFD4FB8
:105120005387428701968530910509F0B1CF0895E4
:10513000DC012091BB013091BC01232B91F090E068
:105140009F5F292F30E0F901EE0FFF1FEE0FFF1FC9
:10515000E554FE4F40815181452B91F7953018F071
:10516000089520E030E0220F331F220F331FF90192
:10517000E554FE4FB183A0837383628308951F9229
:105180000F920FB60F9211248F938091720281605B
:105190008093720210920D0310920C038BB78F7DD7
:1051A0008BBF8F910F900FBE0F901F9018954F924D
:1051B0005F926F927F928F929F92AF92BF92CF92A7
:1051C000DF92EF92FF92EAE7F3E024853585828C47
:1051D000938CA48CB58CC48CD58CE68CF78C80E039
:1051E00090E0283046E0340709F046C0AC01FC01ED
:1051F000EE0FFF1FE80FF91FEE0FFF1FEE0FFF1F4F
:10520000EA5CFD4F46805780608471844C145D04D5
:105210006E047F0409F079C0E0E8F3E080E090E0FC
:105220009A01220F331F240F351F220F331F220F25
:10523000331F2A5C3D4F6191D901A80FB91F6C93B0
:10524000019686309105B9F7FA01EE0FFF1FDF01D5
:10525000A40FB51FAA0FBB1FAA0FBB1FAA5CBD4F8F
:105260001696CD92DD92ED92FC921997FD0184E69F
:1052700090E093878287F7C02830310509F045C058
:10528000AC01FC01EE0FFF1FE80FF91FEE0FFF1F2F
:10529000EE0FFF1FEA5CFD4F4680578060847184EB
:1052A000481459046A047B0481F5E0E8F3E080E0E7
:1052B00090E09A01220F331F240F351F220F331F56
:1052C000220F331F2A5C3D4F6191D901A80FB91FEE
:1052D0006C93019686309105B9F7FA01EE0FFF1F26
:1052E000DF01A40FB51FAA0FBB1FAA0FBB1FAA5C2B
:1052F000BD4F16968D929D92AD92BC921997FD016D
:1053000084E690E093878287AEC001968530910550
:1053100009F067CF80913C0290913D02A0913E023E
:10532000B0913F02892B8A2B8B2B09F494C081E02A
:1053300090E0AC01FC01EE0FFF1FE80FF91FEE0F2C
:10534000FF1FEE0FFF1FEA5CFD4F46805780608411
:10535000718445284628472809F077C0283086E020
:105360003807C9F502C040E050E0E0E8F3E080E033
:1053700090E0BA01660F771F640F751F660F771FE5
:10538000660F771F6A5C7D4F2191DB01A80FB91F63
:105390002C93019686309105B9F7CA01880F991FA1
:1053A000FC01E40FF51FEE0FFF1FEE0FFF1FEA5C7D
:1053B000FD4FC682D782E086F186FC01E40FF51F1F
:1053C000EE0FFF1FEE0FFF1FEA5CFD4F84E690E03B
:1053D0009387828748C02830310509F044C0E0E84F
:1053E000F3E080E090E09A01220F331F240F351F75
:1053F000220F331F220F331F2A5C3D4F6191D901C9
:10540000A80FB91F6C93019686309105B9F7CA01B0
:10541000880F991FFC01E40FF51FEE0FFF1FEE0F21
:10542000FF1FEA5CFD4F86829782A086B186FC0151
:10543000E40FF51FEE0FFF1FEE0FFF1FEA5CFD4F9D
:1054400084E690E0938782870EC0019685309105AF
:1054500009F06FCF08C0283046E0340709F483CF45
:1054600040E050E0B8CFFF90EF90DF90CF90BF903A
:10547000AF909F908F907F906F905F904F90089526
:10548000CF92DF92EF92FF926B017C0180913C0200
:1054900090913D02A0913E02B0913F02C816D906FC
:1054A000EA06FB06F1F021E030E0822FF901EE0F71
:1054B000FF1FE20FF31FEE0FFF1FEE0FFF1FEA5C4F
:1054C000FD4F46815781608571854C155D056E05E0
:1054D0007F0541F02F5F3F4F2530310531F785E0E3
:1054E00001C080E0FF90EF90DF90CF900895CF93C0
:1054F000DF93D82FC92FCB01BA010E94402A8530F3
:10550000F9F0ED2FFC2FA4E7B3E020E030E090E0CD
:10551000AC01440F551F840F951F880F991F880FEA
:10552000991F8A5C9D4FEC01C20FD31F48814193A4
:105530004D9145832F5F3F4F26303105A1F70DC0B8
:10554000ED2FFC2FA4E7B3E02AE733E09FEF919320
:105550008D918583A217B307D1F7DF91CF9108957D
:10556000CF93DF93809188039091890381159140B7
:1055700009F08AC080918A0390918B03089709F003
:1055800083C080918C03863009F07EC080918D03AA
:10559000843009F079C04091A0035091A10360913B
:1055A000A2037091A3038091D9059091DA05A0918F
:1055B000DB05B091DC05481759076A077B0709F03E
:1055C00063C080918E0390918F03811521E0920733
:1055D00009F055C00E94D728CAE7D3E04C8D5D8DF5
:1055E0006E8D7F8DCE010E94772A88E096E09D87A0
:1055F0008C876C8D7D8D8E8D9F8D0E94402A85308D
:10560000F0F4A4E7B3E0E0E9F3E020E030E090E07C
:10561000AC01440F551F840F951F880F991F880FE9
:10562000991F8A5C9D4FEC01C20FD31F48814287AE
:105630004D9141932F5F3F4F26303105A1F7EAE7A7
:10564000F3E080E092E0958B848B848D958DA68D20
:10565000B78D86A397A3A0A7B1A78091D9059091F4
:10566000DA05A091DB05B091DC05848F958FA68FBC
:10567000B78FBF018CE390E00E94FA2505C0811529
:10568000924011F40E94D728DF91CF9108950F9393
:105690001F93CF9389019A0162307105E0F0FC01FC
:1056A000DB01408150E0542F4427C1814C0F511D34
:1056B000040F151F211D311D12973296A230B1051E
:1056C00080F7AB01425051094E7F4E5F5F4F840F10
:1056D000951F61707727672B49F0FC01808190E06E
:1056E000982F8827080F191F211D311DD901C801C6
:1056F000AA27BB27890122273327080F191F2A1F32
:105700003B1FD901C801AA27BB27890122273327BC
:10571000080F191F2A1F3B1FC80180959095CF9134
:105720001F910F910895CF92DF92EF92FF92CF9346
:10573000DF93EC016A017B010E94772A88E090E008
:105740009D878C878091A5019091A60101969093E9
:10575000A6018093A50120E430E03D8B2C8B20E84E
:105760002E8B9827892798279B8B8A8B85E48E8799
:105770001F86CE8EDF8EE8A2F9A28091D905909186
:10578000DA05A091DB05B091DC058A8F9B8FAC8F89
:10579000BD8F198E188E20E030E0A90164E170E021
:1057A000CE010E960E94472B982789279827998F1C
:1057B000888FDF91CF91FF90EF90DF90CF90089589
:1057C000EF92FF920F931F93CF93DF93CAE7D3E03B
:1057D0004AA32BA3FFA2EEA219A708A71DA21CA2F1
:1057E00020E034E5398B288B21E02F8BAB01BC0105
:1057F000CE010E94932B68897989762767277627BF
:105800008E858F7094E0899F60197109112420E0C2
:1058100030E0A9018CE993E00E94472B9827892763
:1058200098279DA38CA3BE0182E690E00E94FA25F2
:10583000DF91CF911F910F91FF90EF900895CF923C
:10584000DF92EF92FF92CF93DF93DC015A96CD90D7
:10585000DD90ED90FC905D9720E030E096E1E9016D
:10586000929FF001939FF00D1124E857FD4F408166
:105870005181628173814C155D056E057F0509F0CC
:105880006EC0929FF001939FF00D1124E857FD4FD9
:105890006481758192964D915C9193976417750719
:1058A00009F05DC09A964D915D916D917C919D97A7
:1058B00086E1829FF001839FF00D1124E857FD4F90
:1058C000408751876287738796964D915D916D9160
:1058D0007C91999744875587668777879F968C91A7
:1058E0009F97808B83898F3F51F086E1829FF001E3
:1058F000839FF00D1124E857FD4F83E0838B509672
:10590000CD90DC905197DC24CD24DC2484E1C81AAE
:10591000D1089E968C91807F90E09595879595957E
:105920008795C81AD90AE12CF12C26E12C9FC001D9
:105930002D9F900D1124EC01C857DD4F6C857D859E
:105940008E859F850E9462276C0D7D1D8E1D9F1D7B
:105950000E9462276C877D878E879F876BC02F5F31
:105960003F4F2530310509F07ACF409188025091A0
:10597000890260918A0270918B02452B462B472B3E
:10598000A9F021E030E0C6E1C901C29FF001C39F48
:10599000F00D1124E857FD4F4081518162817381E0
:1059A000452B462B472B09F03FC002C080E090E01A
:1059B00046E1489F9001499F300D1124F901E857B5
:1059C000FD4FC082D182E282F38292968D919C91AA
:1059D00093979583848394968D919C9195979783C3
:1059E00086839A964D915D916D917C919D974087AC
:1059F00051876287738796964D915D916D917C91E9
:105A0000999744875587668777879F968C91808B77
:105A1000128A118A83E0838B148AF901E356FD4FC1
:105A200080818E7F808306C02F5F3F4F25303105F8
:105A300009F0AACFDF91CF91FF90EF90DF90CF9048
:105A40000895CF92DF92EF92FF92CF93DF936B0195
:105A50007C01EA0120E030E056E1529FF001539FC3
:105A6000F00D1124E857FD4F80819181A281B3810F
:105A70008C159D05AE05BF0561F4529FF001539F43
:105A8000F00D1124E857FD4F848195818C179D07F7
:105A900039F02F5F3F4F25303105F9F685E001C021
:105AA000822FDF91CF91FF90EF90DF90CF900895FC
:105AB0008091A7019091A801009771F160919E03D8
:105AC00070919F0376276727762786179707A1F09F
:105AD00080E08F5F482F50E0FA01EE0FFF1FEE0FBE
