S01A00004661726D5F30313036323031395F76302E312E737265632E
S11300000C94A7000C94C4000C94C4000C94C40079
S11300100C94C4000C94C4000C94C4000C94C4004C
S11300200C94C4000C94C7040C94C4000C94C40035
S11300300C94C4000C9406050C94C4000C94C400E5
S11300400C94C4000C94C4000C94C4000C94C4001C
S11300500C94C40000407A10F35A00A0724E1809A0
S11300600010A5D4E80000E87648170000E40B541B
S1130070020000CA9A3B000000E1F50500008096EA
S11300809800000040420F000000A086010000001C
S1130090102700000000E8030000000064000000D6
S11300A000000A00000000000100000000002C769F
S11300B0D888DC674F0823DFC1DFAE59E1B1B796BA
S11300C0E5E3E453C63AE651997696E8E6C2842617
S11300D0EB898C9B62ED407C6FFCEFBC9C9F40F2F3
S11300E0BAA56FA5F490055A2AF75C936B6CF9676F
S11300F06DC11BFCE0E40D47FEF520E6B500D0ED34
S1130100902E0300943577050080841E080000209B
S11301104E0A000000C80C333333330F986E128339
S11301201141EF8D2114893BE65516CFFEE6DB180D
S1130130D1844B381BF77C1D901DA4BBE4242032D2
S113014084725E228100C9F124ECA1E53D271124CB
S11301501FBECFE5D8E0DEBFCDBF10E0A0E6B0E023
S1130160E0EDF3E102C005900D92A63AB107D9F78C
S113017020E0A6EAB0E001C01D92AA3AB207E1F776
S11301800E9402030C94E6090C940000BF92CF92E3
S1130190DF92EF92FF920F931F93CF93DF9300D0E0
S11301A000D01F92CDB7DEB7FE01319625E0DF0106
S11301B01D922A95E9F72AB3E1E0F0E0042E02C08B
S11301C0EE0FFF1F0A94E2F72E2B2ABB2BB32E2B24
S11301D02BBBBFEF2FE533E0B15020403040E1F7B7
S11301E000C000003BB32E2F209532233BBBA6E674
S11301F0B2EC1197F1F700003BB33E2B3BBB3AB393
S113020023232ABBB3E9BA95F1F700C029B330E040
S1130210042E02C0359527950A94E2F720FD71C09B
S1130220ADEDB0E01197F1F729B330E002C0359598
S113023027954A95E2F720FF66C0ADEDB0E011972F
S1130240F1F79E012F5F3F4F79016E0136E0C30E37
S1130250D11C01E010E032C04150510919F455C0DD
S113026049EC50E029B330E02E233F23232BA1F3A4
S11302704EE64A95F1F700C029B330E02E233F2320
S1130280232B41F098010A2E02C0220F331F0A9437
S1130290E2F7B22A49EC50E003C041505109B9F1E8
S11302A029B330E02E233F23232BB9F71197C0F64F
S11302B0D701BD927D01CA16DB0621F0A7E0B0E0AC
S11302C0B12CCECF2AB32E2B2ABB2BB3E22BEBBB04
S11302D0BFEFEFE5F3E0B150E040F040E1F700C0DC
S11302E0000049815B812A81240F250F3C81230F63
S11302F03D8123130EC0DC015C93FB01408380E04D
S113030009C08FEF07C08FEF05C08FEF03C08FEFD9
S113031001C08FEF0F900F900F900F900F90DF910F
S1130320CF911F910F91FF90EF90DF90CF90BF90EE
S11303300895BF92CF92DF92EF92FF920F931F9393
S1130340CF93DF9300D000D01F92CDB7DEB7FE016C
S1130350319625E0DF011D922A95E9F72AB3E1E001
S1130360F0E0042E02C0EE0FFF1F0A94E2F72E2BDA
S11303702ABB2BB32E2B2BBBBFEF2FE533E0B150A1
S113038020403040E1F700C000003BB32E2F209501
S113039032233BBBA6E6B5E01197F1F700003BB36F
S11303A03E2B3BBB3AB323232ABBB3E9BA95F1F7FF
S11303B000C029B330E0042E02C0359527950A9475
S11303C0E2F720FDACC0ADEDB0E01197F1F729B331
S11303D030E002C0359527954A95E2F720FFA1C089
S11303E0ADEDB0E01197F1F79E012F5F3F4F79011A
S11303F06E0136E0C30ED11C01E010E033C0415061
S1130400510919F490C049EC50E029B330E02E238F
S11304103F23232BA1F34EE64A95F1F700C029B3FD
S113042030E02E233F23232B41F098010A2E02C0F3
S1130430220F331F0A94E2F7B22A49EC50E004C0B9
S11304404150510909F471C029B330E02E233F23F0
S1130450232BB1F71197B8F6D701BD927D01CA16C7
S1130460DB0621F0A7E0B0E0B12CCDCF2AB32E2BD0
S11304702ABB2BB3E22BEBBBBFEFEFE5F3E0B150AC
S1130480E040F040E1F700C0000059810A814B814F
S11304902C81352F300F340F320FED813E1347C0BE
S11304A07B016C0110E0152B622F70E0742B772315
S11304B0A4F47F7780E090E00E942D0620E030E0F5
S11304C040E251E40E948505DC01CB01B058F601FD
S11304D080839183A283B38310C080E090E00E9464
S11304E02D0620E030E040E251E40E948505D6016B
S11304F06D937D938D939C931397B80180E090E066
S11305000E942D0620E030E040E251E40E9485057F
S1130510F701608371838283938380E009C08FEF46
S113052007C08FEF05C08FEF03C08FEF01C08FEFBF
S11305300F900F900F900F900F90DF91CF911F911C
S11305400F91FF90EF90DF90CF90BF900895CF93DD
S1130550DF9300D0CDB7DEB7BE016F5F7F4F0E943F
S1130560B4048981833011F128F4813049F0823058
S113057091F03FC0853081F1F8F08630A1F139C0A7
S113058028B39A8130E1939FC0011124922F9F7E5A
S1130590892B88BB32C025B39A8130E1939FC00177
S11305A01124922F9F70892B85BB27C085B3807F30
S11305B09A81892B85BB21C088B39A81990F990FA1
S11305C08B7F892B88BB88B39A81990F990F990FD8
S11305D0877F892B88BB11C088B39A81990F8D7F3F
S11305E0892B88BB0AC088B38E7F9A81892B88BBEC
S11305F004C082E890E00E94F0040F900F90DF9115
S1130600CF910895CF93DF93CDB7DEB7AF970FB6F1
S1130610F894DEBF0FBECDBF8FE187BB18BA8FEF52
S113062084BB15BA0E94BD040E94DE048FEF95E3DB
S11306300197F1F700C0000019821A821B821C8204
S11306401D821E821F82188619861A8688E0E0E6BB
S1130650F0E0DE011B9601900D928A95E1F788E0A7
S1130660E8E6F0E0DE01539601900D928A95E1F7F9
S113067089E0E0E7F0E0DE015B9601900D928A9557
S1130680E1F789E0E9E7F0E0DE01949601900D924C
S11306908A95E1F778949FEF2FEB81E29150204007
S11306A08040E1F700C00000E090A900F12C8091A7
S11306B0A900E81609F468C0E090A90095E0F912D1
S11306C061C0F89440E0BE016B5F7F4FCE0101969C
S11306D00E94990169817A818B819C818E01035DDD
S11306E01F4F23E043E00E942807CE014B960E944F
S11306F0F004CE010B960E94F004C8010E94F0049D
S11307006D817E818F81988523E043E00E942807D4
S1130710CE0143960E94F004C8010E94F0048AE0CE
S11307200E94EC0441E0BE01665F7F4FCE01099652
S11307300E94C60089854AE0B801082E000C990B76
S11307400E944807CE0184960E94F004CE010B96C5
S11307500E94F004C8010E94F0048A854AE0B801AE
S1130760082E000C990B0E944807CE0143960E9464
S1130770F004C8010E94F0048AE00E94EC0478941A
S1130780F12C03C0F39401C0E82E8091A8008130BD
S113079009F08BC0F8948091A7000E94EC0480912A
S11307A0A7000E94A7028091A700823309F464C0C5
S11307B0833309F466C0813309F067C040E0BE01A9
S11307C06B5F7F4FCE0101960E94990169817A8106
S11307D08B819C818E01035D1F4F23E043E00E94C7
S11307E02807CE014B960E94F004CE010B960E947E
S11307F0F004C8010E94F0046D817E818F81988588
S113080023E043E00E942807CE0143960E94F004AF
S1130810C8010E94F0048AE00E94EC0441E0BE0199
S1130820665F7F4FCE0109960E94C60089854AE023
S1130830B801082E000C990B0E944807CE0184963B
S11308400E94F004CE010B960E94F004C8010E949D
S1130850F0048A854AE0B801082E000C990B0E9426
S11308604807CE0143960E94F004C8010E94F00498
S11308708AE00E94EC040DC0C49881E08093A60035
S113088008C0C49A1092A60004C08BE890E00E94AD
S1130890F0041092A8002FEF8FEB91E221508040DA
S11308A09040E1F700C00000789440E0BE016B5F27
S11308B07F4FCE0101960E9499018F3F09F444C0F5
S11308C041E0BE01665F7F4FCE0109960E94C600DB
S11308D08F3FD1F16985062E000C770B880B990B9D
S11308E00E942F0629813A814B815C810E9419055F
S11308F020E030E040E05FE30E94BB060E94F70581
S11309006F31C4F46A85062E000C770B880B990BA3
S11309100E942F062D813E814F8158850E94190522
S113092020E030E040E05FE30E94BB060E94F70550
S113093064341CF0C198C4980DC08091A600811144
S113094009C0C19AC49A06C089E990E00E94F004E3
S1130950C498C1982FEF8FEB91E2215080409040D2
S1130960E1F700C00000A3CE982F9295969597705A
S1130970FB0190838F71818308958BEB9CEA9DBD6D
S11309808CBD1FBC85E08EBD84E089BF08951F9295
S11309900F920FB60F9211248F939F938BEB9CEAC7
S11309A09DBD8CBD8091A9008F5F8093A9009F910C
S11309B08F910F900FBE0F901F90189588E98AB9F8
S11309C086E880BD85E28A95F1F780B58F7780BD92
S11309D010BC87E489B908955D9BFECF8CB9089556
S11309E00F931F93CF93FC018081882359F08F01CB
S11309F0C0E00E94EC04CF5FF801EC0FF11D808190
S1130A008111F7CFCF911F910F9108951F920F92EB
S1130A100FB60F9211248F938CB18093A70081E0BD
S1130A208093A8008F910F900FBE0F901F90189580
S1130A305058BB27AA270E9430050C9481060E94B7
S1130A40730638F00E947A0620F039F49F3F19F4B7
S1130A5026F40C9470060EF4E095E7FB0C946A06F9
S1130A60E92F0E94920658F3BA17620773078407A6
S1130A70950720F079F4A6F50C94B4060EF4E095ED
S1130A800B2EBA2FA02D0B01B90190010C01CA0144
S1130A90A0011124FF27591B99F0593F50F4503EEF
S1130AA068F11A16F040A22F232F342F4427585FE1
S1130AB0F3CF469537952795A795F0405395C9F7F9
S1130AC07EF41F16BA0B620B730B840BBAF09150B1
S1130AD0A1F0FF0FBB1F661F771F881FC2F70EC050
S1130AE0BA0F621F731F841F48F487957795679523
S1130AF0B795F7959E3F08F0B0CF9395880F08F00F
S1130B009927EE0F9795879508950E9499050C945F
S1130B1081060E947A0658F00E94730640F029F478
S1130B205F3F29F00C946A0651110C94B5060C949D
S1130B3070060E94920668F39923B1F3552391F34A
S1130B40951B550BBB27AA2762177307840738F038
S1130B509F5F5F4F220F331F441FAA1FA9F335D095
S1130B600E2E3AF0E0E832D091505040E695001C49
S1130B70CAF72BD0FE2F29D0660F771F881FBB1F03
S1130B80261737074807AB07B0E809F0BB0B802DE1
S1130B90BF01FF2793585F4F3AF09E3F510578F00D
S1130BA00C946A060C94B5065F3FE4F3983ED4F3C4
S1130BB0869577956795B795F7959F5FC9F7880FE1
S1130BC0911D9695879597F90895E1E0660F771F33
S1130BD0881FBB1F621773078407BA0720F0621BC4
S1130BE0730B840BBA0BEE1F88F7E09508950E94EF
S1130BF0FE056894B1110C94B50608950E949A06F6
S1130C0088F09F5798F0B92F9927B751B0F0E1F0C9
S1130C10660F771F881F991F1AF0BA95C9F714C079
S1130C20B13091F00E94B406B1E008950C94B4067A
S1130C30672F782F8827B85F39F0B93FCCF38695B2
S1130C4077956795B395D9F73EF49095809570950F
S1130C5061957F4F8F4F9F4F0895E89409C097FB8C
S1130C603EF490958095709561957F4F8F4F9F4F7F
S1130C709923A9F0F92F96E9BB279395F6958795C3
S1130C8077956795B795F111F8CFFAF4BB0F11F486
S1130C9060FF1BC06F5F7F4F8F4F9F4F16C088232D
S1130CA011F096E911C0772321F09EE8872F762F63
S1130CB005C0662371F096E8862F70E060E02AF0A4
S1130CC09A95660F771F881FDAF7880F9695879590
S1130CD097F9089597F99F6780E870E060E00895B8
S1130CE09FEF80EC089500240A9416161706180640
S1130CF00906089500240A9412161306140605061C
S1130D000895092E0394000C11F4882352F0BB0FAC
S1130D1040F4BF2B11F460FF04C06F5F7F4F8F4F0F
S1130D209F4F089557FD9058440F551F59F05F3F4A
S1130D3071F04795880F97FB991F61F09F3F79F0F9
S1130D4087950895121613061406551FF2CF46957B
S1130D50F1DF08C0161617061806991FF1CF8695FD
S1130D607105610508940895E894BB2766277727E1
S1130D70CB0197F908950E94CE060C9481060E9437
S1130D80730638F00E947A0620F0952311F00C9433
S1130D906A060C94700611240C94B5060E949206FF
S1130DA070F3959FC1F3950F50E0551F629FF001BA
S1130DB0729FBB27F00DB11D639FAA27F00DB11DD3
S1130DC0AA1F649F6627B00DA11D661F829F22275C
S1130DD0B00DA11D621F739FB00DA11D621F839FE3
S1130DE0A00D611D221F749F3327A00D611D231FB9
S1130DF0849F600D211D822F762F6A2F11249F5707
S1130E0050409AF0F1F088234AF0EE0FFF1FBB1F09
S1130E10661F771F881F91505040A9F79E3F5105C8
S1130E2080F00C946A060C94B5065F3FE4F3983E98
S1130E30D4F3869577956795B795F795E7959F5F72
S1130E40C1F7FE2B880F911D9695879597F9089504
S1130E50EF920F931F93CF93DF93E80147FD02C0F6
S1130E6034E001C034E1042E000C550B57FF03C0DD
S1130E70519541955109E32E022F242FAE010E9472
S1130E806D07CE01DF91CF911F910F91EF900895DF
S1130E90BB274A3031F4992322F4BDE29095819521
S1130EA09F4F0C945407BB27FB015527AA27880F93
S1130EB0991FAA1FA41710F0A41B83955051B9F7CA
S1130EC0A05DAA3308F0A95DA193009779F7B11149
S1130ED0B1931192CB010C949F09A9E0B0E0E3E730
S1130EE0F7E00C94B5096A01122FB02E2BE32017FA
S1130EF020F0FF24F394F00E02C02CE3F22E0F2D09
S1130F0027E0AE014F5F5F4F0E94C708BC014981D3
S1130F10842F8970813031F0E1FC06C0E0FE06C008
S1130F2090E205C09DE203C09BE201C090E05E2D0B
S1130F30507143FF3CC0911102C083E001C084E0C2
S1130F40811718F4212F281B01C020E051110BC078
S1130F50F601822F30E2882319F031938150FBCFC0
S1130F60C20ED11C20E0992329F0D6019C93F601EE
S1130F7031966F01C6010396E2FE0AC03EE4D60133
S1130F803C9341E411964C93119712963C9306C0FE
S1130F903EE6F601308341E641833283FC01322F81
S1130FA040E2332309F442C041933150FACF42FF67
S1130FB044C0911102C083E001C084E0811718F499
S1130FC0212F281B01C020E051110BC0F601822FF4
S1130FD030E2882319F031938150FBCFC20ED11C2B
S1130FE020E0992329F0D6019C93F60131966F01F4
S1130FF0C6010396E2FE0BC039E4D6013C933EE4FD
S113100011963C93119736E412963C9307C039E647
S1131010F60130833EE6318336E63283FC01322F1B
S113102040E2332319F041933150FBCFFC01E20F2E
S1131030F11D10828EEF9FEFA6C021E030E09111E8
S113104002C020E030E0161617061CF4FB013196AE
S113105002C0E1E0F0E02E0F3F1FBB2021F0EB2D9A
S1131060F0E0319602C0E0E0F0E02E0F3F1FE12FE8
S1131070F0E02E173F071CF4121B212F01C020E0C3
S11310808E2D887159F4F601822F30E2882319F0ED
S113109031938150FBCFC20ED11C20E0992329F05B
S11310A0D6019C93F60131966F0151110BC0F601E4
S11310B0822F90E3882319F091938150FBCFC20EC5
S11310C0D11C20E00F2D060F9A81342F307144FF7C
S11310D003C0913309F40150101624F4093018F0B8
S11310E008E001C001E0AB0177FF02C040E050E03E
S11310F0FB01E41BF50BA1E0B0E0AC0FBD1FEA0F50
S1131100FB1F8EE2A82E4B01801A91080B2D10E0D4
S11311101195019511094F3FBFEF5B0721F4D601EB
S1131120AC9211966D01641775072CF08416950620
S113113014F4818101C080E3415051093196D601F4
S113114011967D014017510724F0D6018C93670155
S1131150E2CF6417750739F4963320F4953319F404
S1131160311101C081E3F6018083F701822F90E2FF
S1131170882319F091938150FBCFF701E20FF11D01
S1131180108280E090E02996ECE00C94D10928309C
S113119008F027E03327DA01990F311D87FD9160AC
S11311A000966105710539F432602E5F3D9330E39A
S11311B02A95E1F708959F3F30F080387105610565
S11311C009F03C5F3C5F3D93913008F08068911DCD
S11311D0DF93CF931F930F93FF92EF92192F987F72
S11311E09695E92F96959695E90FFF27E255FF4FBF
S11311F099273327EE24FF24A701E70105900894DB
S1131200079428F4360FE71EF81E491F511D660F78
S1131210771F881F991F0694A1F70590079428F457
S1131220E70EF81E491F561FC11D770F881F991F0F
S1131230661F0694A1F70590079428F4F80E491F39
S1131240561FC71FD11D880F991F661F771F06944D
S1131250A1F70590079420F4490F561FC71FD81F04
S1131260990F661F771F881F0694A9F7849110951C
S1131270177041F0D695C79557954795F794E7941D
S11312801A95C1F7E4E5F0E068941590159135914D
S11312906591959105907FE27395E118F10A430BEE
S11312A0560BC90BD009C0F7E10CF11E431F561FA2
S11312B0C91FD01D7EF4703311F48A95E6CFE894EB
S11312C0015030F0080F0AF40027021708F4202F09
S11312D02395022F7A3328F079E37D932A95E9F751
S11312E010C07D932A9589F606949795679537954E
S11312F017951794E118F10A430B560BC90BD00943
S113130098F023957E9173957A3308F070E37C937B
S11313102013B8F77E9170617D9330F0839571E36B
S11313207D9370E32A95E1F71124EF90FF900F91DC
S11313301F91CF91DF91992787FD90950895DC0146
S1131340FC01672F71917723E1F7329704C07C91F8
S11313506D9370836291AE17BF07C8F308952F92FF
S11313603F924F925F926F927F928F929F92AF9231
S1131370BF92CF92DF92EF92FF920F931F93CF937E
S1131380DF93CDB7DEB7CA1BDB0B0FB6F894DEBF15
S11313900FBECDBF09942A88398848885F846E843B
S11313A07D848C849B84AA84B984C884DF80EE8085
S11313B0FD800C811B81AA81B981CE0FD11D0FB68E
S11313C0F894DEBF0FBECDBFED010895F894FFCFB2
S11313D054656D70203D200048756D64203D2000EB
S11313E053656E736F7231200053656E736F723282
S11313F0200077726F6E672049440077726F6E67C2
S1131400207265717565737400464154414C2045E2
S109141052524F5221006C
S9030000FC
