S01A00004661726D5F30313036323031395F76352E322E7372656328
S113000081C000009FC000009DC000009BC0000094
S113001099C0000097C0000095C0000093C0000084
S113002091C000008FC000008DC000008BC0000094
S113003089C0000087C0000085C0000083C00000A4
S113004081C00000F0C600007DC000007BC000003D
S113005079C00000F9C6000075C0000073C000003C
S113006071C0000066C700006DC000006BC00000D6
S113007069C0000067C0000065C0000063C00000E4
S113008061C000005FC000005DC000005BC00000F4
S113009059C0000057C0000055C0000053C0000004
S11300A051C000004FC000004DC000004BC0000014
S11300B049C0000047C0000045C0000043C0000024
S11300C041C000003FC000003DC000003BC0000034
S11300D039C0000037C0000035C0000033C0000044
S11300E031C0000027023502430251025F026D0253
S11300F07B028902F703FB03FF03030407040B04D9
S11301000F04130411241FBECFEFD1E2DEBFCDBF15
S113011000E00CBF13E0A0E0B2E0ECEEF3E100E09D
S11301200BBF02C007900D92A633B107D9F724E0A4
S1130130A6E3B3E001C01D92AD3DB207E1F75AD585
S11301400C94F4095DCF81E020913703909136033C
S1130150291380E0089590913603E92FF0E0E45BE1
S1130160FC4F80839F5F909336030895ECE4F3E0A3
S11301708CED94E01192E817F907E1F71092360339
S1130180109237030895BC018CE493E00E949F0908
S113019021E0892B09F420E0822F08958CE493E078
S11301A00895BF92CF92DF92EF92FF920F931F9325
S11301B0CF93DF9300D01F921F92CDB7DEB7FE011D
S11301C0319625E0DF011D922A95E9F721B1E1E09E
S11301D0F0E0042E02C0EE0FFF1F0A94E2F72E2B6C
S11301E021B922B12E2B22B9BFEF21EE34E0B15058
S11301F020403040E1F700C0000032B12E2F20959E
S1130200322332B95FEFA0EEB0E05150A040B040CD
S1130210E1F700C0000032B13E2B32B931B12323E3
S113022021B925ED2A95F1F7000020B130E0042E24
S113023002C0359527950A94E2F720FD74C0AFE318
S1130240B1E01197F1F700C0000020B130E002C026
S1130250359527954A95E2F720FF67C0AFE3B1E0F3
S11302601197F1F700C000009E012F5F3F4F790105
S11302706E0136E0C30ED11C01E010E031C04150E4
S1130280510919F454C049EC50E020B130E02E2358
S11302903F23232BA1F340EA4A95F1F720B130E044
S11302A02E233F23232B41F098010A2E02C0220F54
S11302B0331F0A94E2F7B22A49EC50E003C04150DC
S11302C05109B9F120B130E02E233F23232BB9F794
S11302D01197C8F6D701BD927D01CA16DB0621F03D
S11302E0A7E0B0E0B12CCFCF21B12E2B21B922B1A0
S11302F0E22BE2B9BFEFE1EEF4E0B150E040F040B0
S1130300E1F700C0000049815B812A81240F250F99
S11303103C81230F3D8123130EC0DC015C93FB0160
S1130320408380E009C08FEF07C08FEF05C08FEFD7
S113033003C08FEF01C08FEF0F900F900F900F90BD
S11303400F90DF91CF911F910F91FF90EF90DF906D
S1130350CF90BF9008950ADF89E092E0D5D5F3DE0F
S11303608130E9F32FEF80E792E021508040904004
S1130370E1F700C00000FACE08958F929F92AF92E9
S1130380BF92CF92DF92EF92FF920F931F93CF937E
S1130390DF93CDB7DEB7CF54D1400FB6F894DEBFAC
S11303A00FBECDBF4C017B01142F022FD4DF8FE28F
S11303B0E7E1F2E0DE01119601900D928A95E1F7F2
S11303C0B701CE010196B0D7011708F4B3C0CE012E
S11303D001967C010F2EF6E2AF2EB12CF02D0F2EDC
S11303E0FDE3CF2ED12CF02DF70101900020E9F789
S11303F03197B182A082D7010D900020E9F71197BF
S113040086E0E0EAF2E001900D928A95E1F74AE095
S1130410BE01655B7E4F812F90E0ABD7BE01655B6B
S11304207E4FC70181D7F70101900020E9F731978A
S1130430D182C082812F90E0FC013197E830F10530
S113044008F074C08827EE58FF4F8F4F48C7F40157
S113045081814AE0BE01655B7E4F90E08AD7BE0190
S1130460655B7E4FC70160D761C0F40182814AE0B9
S1130470BE01655B7E4F90E07CD7BE01655B7E4F1D
S1130480C70152D753C0F40183814AE0BE01655BC2
S11304907E4F90E06ED7BE01655B7E4FC70144D7A7
S11304A045C0F40184814AE0BE01655B7E4F90E063
S11304B060D7BE01655B7E4FC70136D737C0F401F4
S11304C085814AE0BE01655B7E4F90E052D7BE0154
S11304D0655B7E4FC70128D729C0F40186814AE0B5
S11304E0BE01655B7E4F90E044D7BE01655B7E4FE5
S11304F0C7011AD71BC0F40187814AE0BE01655BBE
S11305007E4F90E036D7BE01655B7E4FC7010CD7A6
S11305100DC0F40180854AE0BE01655B7E4F90E02A
S113052028D7BE01655B7E4FC701FED61F5F01174A
S113053008F05ACFDE011196FD0101900020E9F781
S113054031970F2EFDE0EF2EFAE0FF2EF02DF18211
S1130550E0821282FD0101900020E9F7CF010197AA
S11305604AE0BE01655B7E4F8A1B9B0B02D78E015E
S1130570035D1E4F8CE0E6E4F2E0D80101900D9299
S11305808A95E1F7BE01655B7E4FC801CDD6F801BF
S113059001900020E9F73197F182E0821282E6DDD2
S11305A082E592E0B1D4CFDD8130E9F38BE792E0CC
S11305B0EADD811105C081E892E0E5DD8823B1F32D
S11305C08BE792E0E0DD813059F4D0DDFFEF23EDDD
S11305D080E3F15020408040E1F700C000005AC0A1
S11305E09FEFE9EFF0E09150E040F040E1F700C008
S11305F00000BCDDCE01835D9E4F86D4A4DD813036
S1130600E9F38BE792E0BFDD81110AC081E892E053
S1130610BADD811105C084E892E0B5DD882389F351
S11306208BE792E0B0DD813059F4A0DD2FEF83ED4C
S113063090E3215080409040E1F700C000002AC0C0
S1130640EFEFF9EF20E0E150F0402040E1F700C087
S1130650000081E892E097DD813091F489E892E02E
S113066092DD8823D9F382DD8FEF90E7E2E08150B9
S11306709040E040E1F700C00000CE01019644D470
S113068075DDFFEF23ED80E3F15020408040E1F77A
S113069000C00000C15BDE4F0FB6F894DEBF0FBE92
S11306A0CDBFDF91CF911F910F91FF90EF90DF901D
S11306B0CF90BF90AF909F908F900895CF93DF938A
S11306C000D01F921F92CDB7DEB7DC019E012F5FD1
S11306D03F4F85E0F90111928A95E9F781E3898317
S11306E085E38A83BD01695F7F4F40E027E030E006
S11306F01DC0FB019191BF0180ED890F8A3010F07C
S11307009D3281F4E1E0F0E0EC0FFD1FE40FF11DF8
S113071090834F5FE1E0F0E0EC0FFD1FE40FF11D6B
S1130720108202C09C3261F02F5F3F4FFD010190A7
S11307300020E9F73197EA1BFB0B2E173F07C8F29D
S1130740CE010196D4D50F900F900F900F900F907B
S1130750DF91CF910895BF92CF92DF92EF92FF92F3
S11307600F931F93CF93DF93CDB7DEB72A970FB6BE
S1130770F894DEBF0FBECDBF7C01B62E6A0187E0C0
S1130780E6EAF2E0DE01119601900D928A95E1F716
S113079080E38E836DEA72E0C701D1D5892B09F419
S11307A04AC0BB2009F449C011E000E086E0E0EA59
S11307B0F2E0DE01119601900D928A95E1F780E353
S11307C0810F8E83BE016F5F7F4FC701B8D500973D
S11307D069F174DF282F812F90E0FC013197E83014
S11307E0F10520F58827E658FF4F8F4F78C5F601AD
S11307F021830F5F1BC0F60122830F5F17C0F60130
S113080023830F5F13C0F60124830F5F0FC0F6012B
S113081025830F5F0BC0F60126830F5F07C0F60127
S113082027830F5F03C0F60120870F5F1F5FB11698
S113083008F0BCCF03C000E001C000E0802F2A967E
S11308400FB6F894DEBF0FBECDBFDF91CF911F91DD
S11308500F91FF90EF90DF90CF90BF9008958F920B
S11308609F92BF92CF92DF92EF92FF920F931F93CA
S1130870CF93DF93CDB7DEB7CB5ED1090FB6F89433
S1130880DEBF0FBECDBF6C014B017A01B22E63DD1A
S113089089E2E1EBF2E08E010F5F1F4FD801019076
S11308A00D928A95E1F7B401C8013ED5D8010D90A7
S11308B00020E9F711978AE1EAEDF2E001900D9248
S11308C08A95E1F7B701C8012FD5F80101900020FE
S11308D0E9F731970F2EFDE0EF2EFAE0FF2EF02D11
S11308E0F182E0821282F80101900020E9F7CF0141
S11308F001974AE0BE0169517F4F801B910B39D5A6
S113090008531F4F8CE0E6E4F2E0D80101900D9209
S11309108A95E1F7BE0169517F4FC80105D5F801F9
S113092001900020E9F73197F182E08212821EDC07
S113093082E592E0E9D207DC8130E9F38BE792E0CB
S113094022DC811105C081E892E01DDC8823B1F32B
S11309508BE792E018DC813059F408DCFFEF23EDDB
S113096080E3F15020408040E1F700C000006FC0F8
S11309709FEFE9EFF0E09150E040F040E1F700C074
S11309800000F4DBCE0187539F4FBED2DCDB813005
S1130990E9F38BE792E0F7DB81110AC081E892E08A
S11309A0F2DB811105C084E892E0EDDB882389F352
S11309B08BE792E0E8DB813029F084E892E0E3DB26
S11309C0813059F4D3DB2FEF83ED90E32150804045
S11309D09040E1F700C000003AC0EFEFF9EF20E0EB
S11309E0E150F0402040E1F700C0000081E892E0CF
S11309F0CADB813011F589E892E0C5DB8823D9F39D
S1130A00B5DB8FEF90E7E2E081509040E040E1F702
S1130A1000C00000CE01019677D284EF92E0B3DBF0
S1130A208823D9F38FE19EE40197F1F700C0000019
S1130A30B5DBA6016B2D8FDE99DB98DB9FEFE3ED31
S1130A40F0E39150E040F040E1F700C00000C551F0
S1130A50DF4F0FB6F894DEBF0FBECDBFDF91CF914D
S1130A601F910F91FF90EF90DF90CF90BF909F90D8
S1130A708F900895FC018181811102C0449A01C0C4
S1130A8044988281811102C0459A01C045988381AE
S1130A90811102C0469A01C046988481811102C026
S1130AA0479A089547980895FC01878190913903E6
S1130AB0891709F442C08093390325812223FCF469
S1130AC0429A022E000C330B33231CF431952195EA
S1130AD0310988EC289F9001112430934A03209314
S1130AE0490381E08093DC04ABE0B1E08C918F7723
S1130AF08C93AEE6B0E08C9182608C931EC04298D9
S1130B00022E000C330B33231CF43195219531094B
S1130B1088EC289F9001112430934A0320934903C1
S1130B2081E08093DC04ABE0B1E08C918F778C930F
S1130B30AEE6B0E08C9182608C938085909138030E
S1130B40891709F442C08093380386818823FCF412
S1130B50439A082E000C990B99231CF491958195C6
S1130B60910928EC829FC001112490934A03809339
S1130B70490382E08093DC04EBE0F1E080818F772D
S1130B808083EEE6F0E0808182608083089543985C
S1130B90082E000C990B99231CF4919581959109C9
S1130BA028EC829FC001112490934A038093490347
S1130BB082E08093DC04EBE0F1E080818F77808336
S1130BC0EEE6F0E080818260808308958FEF87B93C
S1130BD018B8EAE0F1E0808180688083EBE0F1E01E
S1130BE08081806880838081806880838FE184B97C
S1130BF015B80895CF93DF93CDB7DEB729970FB615
S1130C00F894DEBF0FBECDBFE1DFF4D004D164D1D0
S1130C108FE19EE40197F1F700C00000F89415B845
S1130C20B3D19FEF23ED80E3915020408040E1F762
S1130C3000C000009FEF23ED80E3915020408040EE
S1130C40E1F700C000009FEF23ED80E391502040C6
S1130C508040E1F700C000009FEF23ED80E3915056
S1130C6020408040E1F700C000009FEF23ED80E3C7
S1130C70915020408040E1F700C0000010914B03E8
S1130C80789481E08A838B838C838D831E821F8278
S1130C901886198628E041E06BEF72E0CE010196D8
S1130CA06CDBE12CF12C00E080914B038117E1F324
S1130CB010914B03053019F412D000E001C00F5F0E
S1130CC09AE0E91203C04DD0E12C01C0E39424E082
S1130CD0F21203C036D0F12CE7CFF394E5CFCF93D3
S1130CE0DF93CDB7DEB729970FB6F894DEBF0FBEFA
S1130CF0CDBFF89441E06EE373E08FE393E051DA03
S1130D0080913F038A8380913E038B8340D160931B
S1130D103A0370933B0380933C0390933D036C83AD
S1130D20789423E041E06CE073E0CE01019625DB8A
S1130D3029960FB6F894DEBF0FBECDBFDF91CF91D9
S1130D40089528E04DE153E06EE273E080E092E024
S1130D5086DD80E092E08EDE80E092E0A5DE78948D
S1130D600895F89441E06EE373E08FE393E019DAB9
S1130D7081113CC060913F03062E000C770B880B59
S1130D80990BBED120914403309145034091460311
S1130D90509147031ED120E030E040E05FE33CD2B5
S1130DA07CD16F31CCF460913E03062E000C770B9E
S1130DB0880B990BA5D120914003309141034091B8
S1130DC042035091430305D120E030E040E05FE36B
S1130DD023D263D164341CF029982B9809C08091E4
S1130DE04803811105C0299A2B9A02C02B9829988F
S1130DF078940895E1E8F0E080818D608083EFE6E7
S1130E00F0E08081836080838DE38093890089E0B2
S1130E1080938800089584B5826084BD83E085BD95
S1130E208DE787BD08951F920F920FB60F9211247C
S1130E308F9380914B038F5F80934B038F910F901F
S1130E400FBE0F901F9018951F920F920FB60F921E
S1130E5011240BB60F928F939F93EF93FF9380917E
S1130E60DC04813019F0823079F01BC098B181E044
S1130E70892788B98091490390914A0301979093F7
S1130E804A03809349030DC098B182E0892788B949
S1130E908091490390914A03019790934A03809368
S1130EA049038091490390914A03892B51F4EBE063
S1130EB0F1E0808180688083EEE6F0E080818D7FC0
S1130EC08083FF91EF919F918F910F900BBE0F90B4
S1130ED00FBE0F901F90189588E98093C10086E09B
S1130EE08093C20085E38A95F1F700001092C50053
S1130EF083E08093C4000895E0ECF0E0908195FFD6
S1130F00FDCF8093C60008950F931F93CF93FC01E8
S1130F108081882351F08F01C0E0EEDFCF5FF801BC
S1130F20EC0FF11D80818111F8CFCF911F910F91AA
S1130F3008951F920F920FB60F9211240BB60F92C1
S1130F402F933F934F935F936F937F938F939F93CD
S1130F50AF93BF93EF93FF93F8948091C600FBD8AF
S1130F607894FF91EF91BF91AF919F918F917F9171
S1130F706F915F914F913F912F910F900BBE0F9006
S1130F800FBE0F901F9018950C9A059A08958AE049
S1130F908A95F1F700C0149A85E38A95F1F7000069
S1130FA0149809C080E090E0DC010196A11DB11DF8
S1130FB00599FBCF03C00599F5CFFDCFBC01CD0149
S1130FC09DD027EE3AE34DE05CE326D16BC0089553
S1130FD05058BB27AA270ED0E5C0D6D030F0DBD0BE
S1130FE020F031F49F3F11F41EF4CBC00EF4E095D1
S1130FF0E7FBC1C0E92FE7D080F3BA176207730794
S11310008407950718F071F49EF5FFC00EF4E0957F
S11310100B2EBA2FA02D0B01B90190010C01CA01AE
S1131020A0011124FF27591B99F0593F50F4503E59
S113103068F11A16F040A22F232F342F4427585F4B
S1131040F3CF469537952795A795F0405395C9F763
S11310507EF41F16BA0B620B730B840BBAF091501B
S1131060A1F0FF0FBB1F661F771F881FC2F70EC0BA
S1131070BA0F621F731F841F48F48795779567958D
S1131080B795F7959E3F08F0B3CF9395880F08F076
S11310909927EE0F97958795089504D06894B11118
S11310A0B5C0089598D088F09F5790F0B92F99272C
S11310B0B751A0F0D1F0660F771F881F991F1AF05F
S11310C0BA95C9F712C0B13081F09FD0B1E008954C
S11310D09CC0672F782F8827B85F39F0B93FCCF3CD
S11310E0869577956795B395D9F73EF49095809555
S11310F0709561957F4F8F4F9F4F0895E89409C075
S113110097FB3EF490958095709561957F4F8F4F36
S11311109F4F9923A9F0F92F96E9BB279395F6954C
S1131120879577956795B795F111F8CFFAF4BB0FCA
S113113011F460FF1BC06F5F7F4F8F4F9F4F16C02E
S1131140882311F096E911C0772321F09EE8872FB8
S1131150762F05C0662371F096E8862F70E060E074
S11311602AF09A95660F771F881FDAF7880F9695ED
S1131170879597F9089597F99F6780E870E060E094
S113118008959FEF80EC089500240A94161617061C
S113119018060906089500240A9412161306140664
S11311A005060895092E0394000C11F4882352F0C7
S11311B0BB0F40F4BF2B11F460FF04C06F5F7F4F7F
S11311C08F4F9F4F089557FD9058440F551F59F066
S11311D05F3F71F04795880F97FB991F61F09F3F20
S11311E079F087950895121613061406551FF2CF49
S11311F04695F1DF08C0161617061806991FF1CF99
S113120086957105610508940895E894BB276627BF
S11312107727CB0197F908950BD0C4CFB5DF28F019
S1131220BADF18F0952309F0A6CFABCF1124EECF87
S1131230CADFA0F3959FD1F3950F50E0551F629F2D
S1131240F001729FBB27F00DB11D639FAA27F00D1B
S1131250B11DAA1F649F6627B00DA11D661F829F42
S11312602227B00DA11D621F739FB00DA11D621F27
S1131270839FA00D611D221F749F3327A00D611D44
S1131280231F849F600D211D822F762F6A2F112426
S11312909F5750408AF0E1F088234AF0EE0FFF1F79
S11312A0BB1F661F771F881F91505040A9F79E3FB0
S11312B0510570F060CFAACF5F3FECF3983EDCF3AA
S11312C0869577956795B795F795E7959F5FC1F7ED
S11312D0FE2B880F911D9695879597F90895EE0F2B
S11312E0FF1F881F8BBF0790F691E02D1994FC0116
S11312F088279927E89421912032E9F3293010F0C6
S11313002E30C8F32B3239F02D3231F4689403C0F7
S11313103AD0820F911D219120532A30C8F31EF434
S1131320909581959F4F0895FB01DC010D9000205D
S1131330E9F7119701900D920020E1F70895FB0160
S113134051915523A9F0BF01DC014D91451741117D
S1131350E1F759F4CD010190002049F04D91401579
S11313604111C9F3FB014111EFCF81E090E00197F6
S11313700895BB274A3031F4992322F4BDE29095B5
S113138081959F4F09C07AE0979F902D879F802D6C
S1131390910D11240895BB27FB015527AA27880F17
S11313A0991FAA1FA41710F0A41B83955051B9F7D5
S11313B0A05DAA3308F0A95DA193009779F7B11154
S11313C0B1931192CB0100C0DC01FC01672F719134
S11313D07723E1F7329704C07C916D937083629117
S10F13E0AE17BF07C8F30895F894FFCFC0
S11313EC01010101000000000041542B434950430A
S11313FC4C4F53450D0A0047455420687474707360
S113140C3A2F2F6170692E7468696E677370656109
S113141C6B2E636F6D2F7570646174653F617069B9
S113142C5F6B65793D0041542B43495053454E4401
S113143C3D0041542B43495053544152543D225482
S113144C4350222C223138342E3130362E31353360
S113145C2E313439222C38300D0A004552524F5259
S113146C004F4B004641494C003E006669656C6474
S113147C31006669656C6432006669656C643300BE
S113148C6669656C64006669656C64300049504437
S113149C004745542068747470733A2F2F61706937
S11314AC2E7468696E67737065616B2E636F6D2F34
S11314BC6368616E6E656C732F002F66656564736B
S11314CC2F6C6173742E6A736F6E3F6170695F6BFE
S11314DC65793D00434C4F53454400584D58593899
S11314EC5045374B4F5430484E4D4D0035505855A0
S11314FC32354C33324D4A4C50534A3800484643EB
S113150C4B45564A36524B37594F4D5333003837A7
S109151C323636380000EF
S9030000FC
