:10000000EEC000000CC100000AC1000008C10000E1
:1000100006C1000004C1000002C1000000C10000D0
:10002000FEC00000FCC00000FAC00000F8C00000E4
:10003000F6C00000F4C00000F2C00000F0C00000F4
:10004000EEC0000057C40000EAC00000E8C0000095
:10005000E6C00000E4C00000E2C00000E0C0000014
:10006000DEC0000085C40000DAC00000D8C0000077
:10007000D6C00000D4C00000D2C00000D0C0000034
:10008000CEC00000CCC00000CAC00000C8C0000044
:10009000C6C00000C4C00000C2C00000C0C0000054
:1000A000BEC00000BCC00000BAC00000B8C0000064
:1000B000B6C00000B4C00000B2C00000B0C0000074
:1000C000AEC00000ACC00000AAC00000A8C0000084
:1000D000A6C00000A4C00000A2C00000A0C0000094
:1000E0009EC0000000407A10F35A00A0724E18091A
:1000F0000010A5D4E80000E87648170000E40B548F
:10010000020000CA9A3B000000E1F505000080965D
:100110009800000040420F000000A086010000008F
:10012000102700000000E803000000006400000049
:1001300000000A00000000000100000000002C7612
:10014000D888DC674F0823DFC1DFAE59E1B1B7962D
:10015000E5E3E453C63AE651997696E8E6C284268A
:10016000EB898C9B62ED407C6FFCEFBC9C9F40F266
:10017000BAA56FA5F490055A2AF75C936B6CF967E2
:100180006DC11BFCE0E40D47FEF520E6B500D0EDA7
:10019000902E0300943577050080841E080000200F
:1001A0004E0A000000C80C333333330F986E1283AD
:1001B0001141EF8D2114893BE65516CFFEE6DB1881
:1001C000D1844B381BF77C1D901DA4BBE424203246
:1001D00084725E228100C9F124ECA1E53D2711243F
:1001E0001FBECFEFD1E2DEBFCDBF00E00CBF12E0FB
:1001F000A0E0B2E0E8EBF2E100E00BBF02C0079044
:100200000D92A033B107D9F722E0A0E3B2E001C01C
:100210001D92A433B207E1F7E9D10C945A09F0CE4C
:10022000BF92CF92DF92EF92FF920F931F93CF93E3
:10023000DF9300D01F921F92CDB7DEB7FE0131963B
:1002400025E0DF011D922A95E9F721B1E1E0F0E018
:10025000042E02C0EE0FFF1F0A94E2F72E2B21B9E5
:1002600022B12E2B22B9BFEF21EE34E0B150204055
:100270003040E1F700C0000032B12E2F209532232C
:1002800032B95FEFA0EEB0E05150A040B040E1F7CE
:1002900000C0000032B13E2B32B931B1232321B965
:1002A00025ED2A95F1F7000020B130E0042E02C0C0
:1002B000359527950A94E2F720FD74C0AFE3B1E0CD
:1002C0001197F1F700C0000020B130E002C0359571
:1002D00027954A95E2F720FF67C0AFE3B1E0119799
:1002E000F1F700C000009E012F5F3F4F79016E01C2
:1002F00036E0C30ED11C01E010E031C0415051097D
:1003000019F454C049EC50E020B130E02E233F23D3
:10031000232BA1F340EA4A95F1F720B130E02E23D8
:100320003F23232B41F098010A2E02C0220F331FD6
:100330000A94E2F7B22A49EC50E003C04150510957
:10034000B9F120B130E02E233F23232BB9F71197C9
:10035000C8F6D701BD927D01CA16DB0621F0A7E0E1
:10036000B0E0B12CCFCF21B12E2B21B922B1E22B9D
:10037000E2B9BFEFE1EEF4E0B150E040F040E1F768
:1003800000C0000049815B812A81240F250F3C8138
:10039000230F3D8123130EC0DC015C93FB014083DE
:1003A00080E009C08FEF07C08FEF05C08FEF03C05B
:1003B0008FEF01C08FEF0F900F900F900F900F9065
:1003C000DF91CF911F910F91FF90EF90DF90CF9031
:1003D000BF900895BF92CF92DF92EF92FF920F935A
:1003E0001F93CF93DF9300D01F921F92CDB7DEB73C
:1003F000FE01319625E0DF011D922A95E9F721B132
:10040000E1E0F0E0042E02C0EE0FFF1F0A94E2F7D5
:100410002E2B21B922B12E2B22B9BFEF21EE34E0D1
:10042000B15020403040E1F700C0000032B12E2F23
:100430002095322332B9AFECB7E01197F1F700C045
:10044000000032B13E2B32B931B1232321B9B5EDD1
:10045000BA95F1F7000020B130E0042E02C03595C6
:1004600027950A94E2F720FDA9C0AFE3B1E0119708
:10047000F1F700C0000020B130E002C035952795AB
:100480004A95E2F720FF9CC0AFE3B1E01197F1F786
:1004900000C000009E012F5F3F4F79016E0136E0E2
:1004A000C30ED11C01E010E032C04150510919F4D3
:1004B00089C049EC50E020B130E02E233F23232BAC
:1004C000A1F340EA4A95F1F720B130E02E233F2313
:1004D000232B41F098010A2E02C0220F331F0A94E9
:1004E000E2F7B22A49EC50E004C04150510909F446
:1004F0006BC020B130E02E233F23232BB1F711979F
:10050000C0F6D701BD927D01CA16DB0621F0A7E037
:10051000B0E0B12CCECF21B12E2B21B922B1E22BEC
:10052000E2B9BFEFE1EEF4E0B150E040F040E1F7B6
:1005300000C0000059810A814B812C81352F300F7A
:10054000340F320FED813E1341C07B016C0110E08E
:10055000152B622F70E0742B772394F47F7780E063
:1005600090E017D320E030E040E251E479D2DC01A2
:10057000CB01B058F60180839183A283B3830EC070
:1005800080E090E006D320E030E040E251E468D221
:10059000D6016D937D938D939C931397B80180E062
:1005A00090E0F7D220E030E040E251E459D2F70188
:1005B000608371838283938380E009C08FEF07C0DB
:1005C0008FEF05C08FEF03C08FEF01C08FEF0F904B
:1005D0000F900F900F900F90DF91CF911F910F917F
:1005E000FF90EF90DF90CF90BF900895CF93DF936F
:1005F000CDB7DEB7AF970FB6F894DEBF0FBECDBF55
:100600008FE184B915B88FEF87B918B862D183D15B
:100610008FE19EE40197F1F700C0000019821A8271
:100620001B821C821D821E821F82188619861A86D2
:1006300088E0E0E0F2E0DE011B9601900D928A95E1
:10064000E1F788E0E8E0F2E0DE01539601900D92D8
:100650008A95E1F789E0E0E1F2E0DE015B96019046
:100660000D928A95E1F789E0E9E1F2E0DE019496E6
:1006700001900D928A95E1F7F89415B89FEF23ED5C
:1006800080E3915020408040E1F700C000009FEFE0
:1006900023ED80E3915020408040E1F700C000004E
:1006A0009FEF23ED80E3915020408040E1F700C0B0
:1006B00000009FEF23ED80E3915020408040E1F760
:1006C00000C000009FEF23ED80E391502040804068
:1006D000E1F700C00000E09033027894F12C10E0C4
:1006E00080913302E81609F49EC0E0903302153081
:1006F00009F04FC0F89440E0BE016B5F7F4FCE0120
:10070000019668DE69817A818B819C818E01035D0F
:100710001F4F23E043E02ED3CE014B9614D1CE01E0
:100720000B9611D1C8010FD16D817E818F81988583
:1007300023E043E01FD3CE01439605D1C80103D186
:100740008AE0F9D041E0BE01665F7F4FCE01099695
:1007500067DD89854AE0B801082E000C990B29D382
:10076000CE018496F0D0CE010B96EDD0C801EBD02F
:100770008A854AE0B801082E000C990B1AD3CE01E5
:100780004396E1D0C801DFD08AE0D5D0789410E05C
:1007900001C01F5F93E0F91244C0F89441E0BE012C
:1007A000665F7F4FCE0109963BDD8F3F91F16985F2
:1007B000062E000C770B880B990BEDD129813A811D
:1007C0004B815C81E9D020E030E040E05FE36FD214
:1007D000AFD16F31A4F46A85062E000C770B880B1D
:1007E000990BD9D12D813E814F815885D5D020E0FC
:1007F00030E040E05FE35BD29BD164341CF0299889
:100800002C980CC080913002811108C0299A2C9A32
:1008100005C082E292E097D02C9829987894F12C28
:1008200003C0F39401C0E82E80913202813009F0B8
:1008300057CFF894809131027ED08091310282337B
:1008400079F1833391F18133A1F541E0BE01665F17
:100850007F4FCE010996E4DC89854AE0BE01635DE5
:100860007F4F082E000C990BA4D2CE0184966BD03A
:10087000CE010B9668D0CE018D9665D08A854AE070
:10088000BE01635D7F4F082E000C990B92D2CE0102
:10089000439659D0CE018D9656D08AE04CD00CC0EC
:1008A0002C9881E08093300207C02C9A109230027D
:1008B00003C0809131023FD0109232022FEF83EDBE
:1008C00090E3215080409040E1F700C00000789410
:1008D00007CFE1E8F0E080818D608083EFE6F0E013
:1008E0008081836080838DE38093890089E0809399
:1008F000880008951F920F920FB60F9211248F93C4
:10090000809133028F5F809333028F910F900FBEDF
:100910000F901F90189588E98093C10086E080931E
:10092000C20085E38A95F1F700001092C50087E6C2
:100930008093C4000895E0ECF0E0908195FFFDCF36
:100940008093C60008950F931F93CF93FC0180817D
:10095000882351F08F01C0E0EEDFCF5FF801EC0F8C
:10096000F11D80818111F8CFCF911F910F910895D2
:100970001F920F920FB60F9211248F938091C60091
:100980008093310281E0809332028F910F900FBEED
:100990000F901F9018955058BB27AA270ED04DC115
:1009A0003ED130F043D120F031F49F3F11F41EF4DA
:1009B00033C10EF4E095E7FB29C1E92F4FD180F355
:1009C000BA17620773078407950718F071F49EF54C
:1009D00067C10EF4E0950B2EBA2FA02D0B01B901C3
:1009E00090010C01CA01A0011124FF27591B99F0A5
:1009F000593F50F4503E68F11A16F040A22F232FB1
:100A0000342F4427585FF3CF469537952795A79500
:100A1000F0405395C9F77EF41F16BA0B620B730BA7
:100A2000840BBAF09150A1F0FF0FBB1F661F771F18
:100A3000881FC2F70EC0BA0F621F731F841F48F4CD
:100A4000879577956795B795F7959E3F08F0B3CF53
:100A50009395880F08F09927EE0F9795879508953D
:100A60000CD0EBC0E3D040F0DAD030F021F45F3F9F
:100A700019F0CCC0511115C1CFC0F0D098F3992313
:100A8000C9F35523B1F3951B550BBB27AA27621752
:100A90007307840738F09F5F5F4F220F331F441F97
:100AA000AA1FA9F333D00E2E3AF0E0E830D09150CF
:100AB0005040E695001CCAF729D0FE2F27D0660FBC
:100AC000771F881FBB1F261737074807AB07B0E8FB
:100AD00009F0BB0B802DBF01FF2793585F4F2AF011
:100AE0009E3F510568F092C0DCC05F3FECF3983E3A
:100AF000DCF3869577956795B795F7959F5FC9F76E
:100B0000880F911D9695879597F90895E1E0660FF6
:100B1000771F881FBB1F621773078407BA0720F06F
:100B2000621B730B840BBA0BEE1F88F7E0950895D8
:100B300004D06894B111B5C0089598D088F09F573B
:100B400090F0B92F9927B751A0F0D1F0660F771F19
:100B5000881F991F1AF0BA95C9F712C0B13081F0F9
:100B60009FD0B1E008959CC0672F782F8827B85F89
:100B700039F0B93FCCF3869577956795B395D9F75A
:100B80003EF490958095709561957F4F8F4F9F4F64
:100B90000895E89409C097FB3EF490958095709570
:100BA00061957F4F8F4F9F4F9923A9F0F92F96E9B9
:100BB000BB279395F695879577956795B795F1112E
:100BC000F8CFFAF4BB0F11F460FF1BC06F5F7F4FCB
:100BD0008F4F9F4F16C0882311F096E911C07723DD
:100BE00021F09EE8872F762F05C0662371F096E8E6
:100BF000862F70E060E02AF09A95660F771F881FB5
:100C0000DAF7880F9695879597F9089597F99F6772
:100C100080E870E060E008959FEF80EC0895002484
:100C20000A941616170618060906089500240A9451
:100C300012161306140605060895092E0394000CD7
:100C400011F4882352F0BB0F40F4BF2B11F460FF66
:100C500004C06F5F7F4F8F4F9F4F089557FD90588F
:100C6000440F551F59F05F3F71F04795880F97FB70
:100C7000991F61F09F3F79F087950895121613062A
:100C80001406551FF2CF4695F1DF08C01616170659
:100C90001806991FF1CF869571056105089408958E
:100CA000E894BB2766277727CB0197F908950BD0E7
:100CB000C4CFB5DF28F0BADF18F0952309F0A6CF2E
:100CC000ABCF1124EECFCADFA0F3959FD1F3950FE0
:100CD00050E0551F629FF001729FBB27F00DB11DC0
:100CE000639FAA27F00DB11DAA1F649F6627B00D50
:100CF000A11D661F829F2227B00DA11D621F739F39
:100D0000B00DA11D621F839FA00D611D221F749F46
:100D10003327A00D611D231F849F600D211D822F8D
:100D2000762F6A2F11249F5750408AF0E1F08823D4
:100D30004AF0EE0FFF1FBB1F661F771F881F9150E1
:100D40005040A9F79E3F510570F060CFAACF5F3F9A
:100D5000ECF3983EDCF3869577956795B795F79514
:100D6000E7959F5FC1F7FE2B880F911D969587959C
:100D700097F90895EF920F931F93CF93DF93E801B4
:100D800047FD02C034E001C034E1042E000C550BD5
:100D900057FF03C0519541955109E32E022F242F8F
:100DA000AE012AD0CE01DF91CF911F910F91EF902C
:100DB0000895BB274A3031F4992322F4BDE290957F
:100DC00081959F4F01C0BB27FB015527AA27880F9C
:100DD000991FAA1FA41710F0A41B83955051B9F7AF
:100DE000A05DAA3308F0A95DA193009779F7B1112E
:100DF000B1931192CB014EC28F929F92AF92BF924C
:100E0000CF92DF92EF92FF920F931F93CF93DF93D6
:100E1000CDB7DEB729970FB6F894DEBF0FBECDBFB2
:100E20006A01122FB02E2BE3201720F0FF24F39439
:100E3000F00E02C02CE3F22E0F2D27E0AE014F5F23
:100E40005F4F50D1BC014981842F8970813031F0CE
:100E5000E1FC06C0E0FE06C090E205C09DE203C0D2
:100E60009BE201C090E05E2D507143FF3CC09111A8
:100E700002C083E001C084E0811718F4212F281BF1
:100E800001C020E051110BC0F601822F30E288230F
:100E900019F031938150FBCFC20ED11C20E0992371
:100EA00029F0D6019C93F60131966F01C601039695
:100EB000E2FE0AC03EE4D6013C9341E411964C9315
:100EC000119712963C9306C03EE6F601308341E648
:100ED00041833283FC01322F40E2332309F442C0C4
:100EE00041933150FACF42FF44C0911102C083E0D8
:100EF00001C084E0811718F4212F281B01C020E0D5
:100F000051110BC0F601822F30E2882319F0319382
:100F10008150FBCFC20ED11C20E0992329F0D601CD
:100F20009C93F60131966F01C6010396E2FE0BC059
:100F300039E4D6013C933EE411963C93119736E494
:100F400012963C9307C039E6F60130833EE63183C2
:100F500036E63283FC01322F40E2332319F041930D
:100F60003150FBCFFC01E20FF11D10828EEF9FEF9D
:100F7000A6C021E030E0911102C020E030E016165A
:100F800017061CF4FB01319602C0E1E0F0E02E0FE1
:100F90003F1FBB2021F0EB2DF0E0319602C0E0E0D6
:100FA000F0E02E0F3F1FE12FF0E02E173F071CF45B
:100FB000121B212F01C020E08E2D887159F4F601FB
:100FC000822F30E2882319F031938150FBCFC20E7B
:100FD000D11C20E0992329F0D6019C93F60131968B
:100FE0006F0151110BC0F601822F90E3882319F095
:100FF00091938150FBCFC20ED11C20E00F2D060F24
:101000009A81342F307144FF03C0913309F40150A9
:10101000101624F4093018F008E001C001E0AB011B
:1010200077FF02C040E050E0FB01E41BF50BA1E0BC
:10103000B0E0AC0FBD1FEA0FFB1F8EE2A82E4B01E4
:10104000801A91080B2D10E01195019511094F3F61
:10105000BFEF5B0721F4D601AC9211966D016417C6
:1010600075072CF08416950614F4818101C080E385
:10107000415051093196D60111967D014017510713
:1010800024F0D6018C936701E2CF6417750739F419
:10109000963320F4953319F4311101C081E3F60140
:1010A0008083F701822F90E2882319F09193815079
:1010B000FBCFF701E20FF11D108280E090E029964E
:1010C0000FB6F894DEBF0FBECDBFDF91CF911F9159
:1010D0000F91FF90EF90DF90CF90BF90AF909F90D7
:1010E0008F900895283008F027E03327DA01990F10
:1010F000311D87FD916000966105710539F43260FC
:101100002E5F3D9330E32A95E1F708959F3F30F03D
:1011100080387105610509F03C5F3C5F3D9391307B
:1011200008F08068911DDF93CF931F930F93FF9278
:10113000EF92192F987F9695E92F96959695E90F3E
:10114000FF27E25CFE4F99273327EE24FF24A701F7
:10115000E70105900894079428F4360FE71EF81E5F
:10116000491F511D660F771F881F991F0694A1F70D
:101170000590079428F4E70EF81E491F561FC11D5D
:10118000770F881F991F661F0694A1F70590079493
:1011900028F4F80E491F561FC71FD11D880F991F2D
:1011A000661F771F0694A1F70590079420F4490F56
:1011B000561FC71FD81F990F661F771F881F0694D9
:1011C000A9F784911095177041F0D695C79557955A
:1011D0004795F794E7941A95C1F7E4EEF0E0689428
:1011E0001590159135916591959105907FE27395D4
:1011F000E118F10A430B560BC90BD009C0F7E10CFB
:10120000F11E431F561FC91FD01D7EF4703311F409
:101210008A95E6CFE894015030F0080F0AF40027D1
:10122000021708F4202F2395022F7A3328F079E350
:101230007D932A95E9F710C07D932A9589F6069447
:1012400097956795379517951794E118F10A430B11
:10125000560BC90BD00998F023957E9173957A337C
:1012600008F070E37C932013B8F77E9170617D9352
:1012700030F0839571E37D9370E32A95E1F71124B3
:10128000EF90FF900F911F91CF91DF91992787FDEC
:1012900090950895DC01FC01672F71917723E1F7A8
:1012A000329704C07C916D9370836291AE17BF0733
:0812B000C8F30895F894FFCF84
:1012B80054656D70203D200048756D64203D200008
:1012C80053656E736F7231200053656E736F72329F
:1012D8002000464154414C204552524F52210000B3
:00000001FF
